{
  "_format": "hh-sol-artifact-1",
  "contractName": "Warranty",
  "sourceName": "contracts/Warranty.sol",
  "abi": [
    {
      "anonymous": false,
      "inputs": [
        {
          "indexed": true,
          "internalType": "string",
          "name": "productId",
          "type": "string"
        },
        {
          "indexed": true,
          "internalType": "address",
          "name": "oldOwner",
          "type": "address"
        },
        {
          "indexed": true,
          "internalType": "address",
          "name": "newOwner",
          "type": "address"
        },
        {
          "indexed": false,
          "internalType": "uint256",
          "name": "timestamp",
          "type": "uint256"
        }
      ],
      "name": "OwnershipTransferred",
      "type": "event"
    },
    {
      "anonymous": false,
      "inputs": [
        {
          "indexed": true,
          "internalType": "string",
          "name": "productId",
          "type": "string"
        },
        {
          "indexed": true,
          "internalType": "address",
          "name": "owner",
          "type": "address"
        },
        {
          "indexed": false,
          "internalType": "uint256",
          "name": "timestamp",
          "type": "uint256"
        }
      ],
      "name": "ProductRegistered",
      "type": "event"
    },
    {
      "inputs": [
        {
          "internalType": "string",
          "name": "_productId",
          "type": "string"
        },
        {
          "internalType": "string",
          "name": "_productName",
          "type": "string"
        },
        {
          "internalType": "uint256",
          "name": "_warrantyStart",
          "type": "uint256"
        },
        {
          "internalType": "uint256",
          "name": "_warrantyEnd",
          "type": "uint256"
        },
        {
          "internalType": "string",
          "name": "_ownerName",
          "type": "string"
        },
        {
          "internalType": "string",
          "name": "_ownerContact",
          "type": "string"
        }
      ],
      "name": "registerProduct",
      "outputs": [],
      "stateMutability": "nonpayable",
      "type": "function"
    },
    {
      "inputs": [
        {
          "internalType": "string",
          "name": "_productId",
          "type": "string"
        },
        {
          "internalType": "address",
          "name": "_newOwner",
          "type": "address"
        },
        {
          "internalType": "string",
          "name": "_newOwnerName",
          "type": "string"
        },
        {
          "internalType": "string",
          "name": "_newOwnerContact",
          "type": "string"
        }
      ],
      "name": "transferOwnership",
      "outputs": [],
      "stateMutability": "nonpayable",
      "type": "function"
    },
    {
      "inputs": [
        {
          "internalType": "string",
          "name": "_productId",
          "type": "string"
        }
      ],
      "name": "verifyOwnership",
      "outputs": [
        {
          "internalType": "address",
          "name": "ownerAddress",
          "type": "address"
        },
        {
          "internalType": "string",
          "name": "ownerName",
          "type": "string"
        },
        {
          "internalType": "string",
          "name": "ownerContact",
          "type": "string"
        },
        {
          "components": [
            {
              "internalType": "address",
              "name": "ownerAddress",
              "type": "address"
            },
            {
              "internalType": "string",
              "name": "ownerName",
              "type": "string"
            },
            {
              "internalType": "string",
              "name": "ownerContact",
              "type": "string"
            },
            {
              "internalType": "uint256",
              "name": "transferDate",
              "type": "uint256"
            }
          ],
          "internalType": "struct Warranty.OwnershipRecord[]",
          "name": "history",
          "type": "tuple[]"
        }
      ],
      "stateMutability": "view",
      "type": "function"
    },
    {
      "inputs": [
        {
          "internalType": "string",
          "name": "_productId",
          "type": "string"
        }
      ],
      "name": "verifyWarranty",
      "outputs": [
        {
          "internalType": "string",
          "name": "productName",
          "type": "string"
        },
        {
          "internalType": "uint256",
          "name": "warrantyStart",
          "type": "uint256"
        },
        {
          "internalType": "uint256",
          "name": "warrantyEnd",
          "type": "uint256"
        },
        {
          "internalType": "bool",
          "name": "isValid",
          "type": "bool"
        },
        {
          "internalType": "uint256",
          "name": "daysRemaining",
          "type": "uint256"
        },
        {
          "internalType": "address",
          "name": "ownerAddress",
          "type": "address"
        },
        {
          "internalType": "string",
          "name": "ownerName",
          "type": "string"
        },
        {
          "internalType": "string",
          "name": "ownerContact",
          "type": "string"
        }
      ],
      "stateMutability": "view",
      "type": "function"
    }
  ],
  "bytecode": "0x608060405234801561001057600080fd5b50611ef0806100206000396000f3fe608060405234801561001057600080fd5b506004361061004c5760003560e01c8063293f854e14610051578063baa526a814610084578063cbd9cc62146100bb578063f52c5513146100d7575b600080fd5b61006b600480360381019061006691906112c1565b6100f3565b60405161007b9493929190611568565b60405180910390f35b61009e600480360381019061009991906112c1565b610668565b6040516100b29897969594939291906115ec565b60405180910390f35b6100d560048036038101906100d091906116ab565b610a3c565b005b6100f160048036038101906100ec91906117d4565b610dc4565b005b6000606080606060028560405161010a91906118cb565b908152602001604051809103902060009054906101000a900460ff16610165576040517f08c379a000000000000000000000000000000000000000000000000000000000815260040161015c9061192e565b60405180910390fd5b6000808660405161017691906118cb565b9081526020016040518091039020604051806101000160405290816000820180546101a09061197d565b80601f01602080910402602001604051908101604052809291908181526020018280546101cc9061197d565b80156102195780601f106101ee57610100808354040283529160200191610219565b820191906000526020600020905b8154815290600101906020018083116101fc57829003601f168201915b505050505081526020016001820180546102329061197d565b80601f016020809104026020016040519081016040528092919081815260200182805461025e9061197d565b80156102ab5780601f10610280576101008083540402835291602001916102ab565b820191906000526020600020905b81548152906001019060200180831161028e57829003601f168201915b5050505050815260200160028201548152602001600382015481526020016004820160009054906101000a900473ffffffffffffffffffffffffffffffffffffffff1673ffffffffffffffffffffffffffffffffffffffff1673ffffffffffffffffffffffffffffffffffffffff16815260200160058201805461032e9061197d565b80601f016020809104026020016040519081016040528092919081815260200182805461035a9061197d565b80156103a75780601f1061037c576101008083540402835291602001916103a7565b820191906000526020600020905b81548152906001019060200180831161038a57829003601f168201915b505050505081526020016006820180546103c09061197d565b80601f01602080910402602001604051908101604052809291908181526020018280546103ec9061197d565b80156104395780601f1061040e57610100808354040283529160200191610439565b820191906000526020600020905b81548152906001019060200180831161041c57829003601f168201915b50505050508152602001600782015481525050905080608001518160a001518260c0015160018960405161046d91906118cb565b908152602001604051809103902080805480602002602001604051908101604052809291908181526020016000905b8282101561065257838290600052602060002090600402016040518060800160405290816000820160009054906101000a900473ffffffffffffffffffffffffffffffffffffffff1673ffffffffffffffffffffffffffffffffffffffff1673ffffffffffffffffffffffffffffffffffffffff1681526020016001820180546105259061197d565b80601f01602080910402602001604051908101604052809291908181526020018280546105519061197d565b801561059e5780601f106105735761010080835404028352916020019161059e565b820191906000526020600020905b81548152906001019060200180831161058157829003601f168201915b505050505081526020016002820180546105b79061197d565b80601f01602080910402602001604051908101604052809291908181526020018280546105e39061197d565b80156106305780601f1061060557610100808354040283529160200191610630565b820191906000526020600020905b81548152906001019060200180831161061357829003601f168201915b505050505081526020016003820154815250508152602001906001019061049c565b5050505090509450945094509450509193509193565b6060600080600080600060608060028960405161068591906118cb565b908152602001604051809103902060009054906101000a900460ff166106e0576040517f08c379a00000000000000000000000000000000000000000000000000000000081526004016106d79061192e565b60405180910390fd5b6000808a6040516106f191906118cb565b90815260200160405180910390206040518061010001604052908160008201805461071b9061197d565b80601f01602080910402602001604051908101604052809291908181526020018280546107479061197d565b80156107945780601f1061076957610100808354040283529160200191610794565b820191906000526020600020905b81548152906001019060200180831161077757829003601f168201915b505050505081526020016001820180546107ad9061197d565b80601f01602080910402602001604051908101604052809291908181526020018280546107d99061197d565b80156108265780601f106107fb57610100808354040283529160200191610826565b820191906000526020600020905b81548152906001019060200180831161080957829003601f168201915b5050505050815260200160028201548152602001600382015481526020016004820160009054906101000a900473ffffffffffffffffffffffffffffffffffffffff1673ffffffffffffffffffffffffffffffffffffffff1673ffffffffffffffffffffffffffffffffffffffff1681526020016005820180546108a99061197d565b80601f01602080910402602001604051908101604052809291908181526020018280546108d59061197d565b80156109225780601f106108f757610100808354040283529160200191610922565b820191906000526020600020905b81548152906001019060200180831161090557829003601f168201915b5050505050815260200160068201805461093b9061197d565b80601f01602080910402602001604051908101604052809291908181526020018280546109679061197d565b80156109b45780601f10610989576101008083540402835291602001916109b4565b820191906000526020600020905b81548152906001019060200180831161099757829003601f168201915b505050505081526020016007820154815250509050600081606001514211159050600081156109fe57620151804284606001516109f191906119dd565b6109fb9190611a40565b90505b826020015183604001518460600151848487608001518860a001518960c001519a509a509a509a509a509a509a509a50505050919395975091939597565b600286604051610a4c91906118cb565b908152602001604051809103902060009054906101000a900460ff1615610aa8576040517f08c379a0000000000000000000000000000000000000000000000000000000008152600401610a9f90611abd565b60405180910390fd5b838311610aea576040517f08c379a0000000000000000000000000000000000000000000000000000000008152600401610ae190611b29565b60405180910390fd5b60006040518061010001604052808881526020018781526020018681526020018581526020013373ffffffffffffffffffffffffffffffffffffffff16815260200184815260200183815260200142815250905080600088604051610b4f91906118cb565b90815260200160405180910390206000820151816000019081610b729190611cf5565b506020820151816001019081610b889190611cf5565b50604082015181600201556060820151816003015560808201518160040160006101000a81548173ffffffffffffffffffffffffffffffffffffffff021916908373ffffffffffffffffffffffffffffffffffffffff16021790555060a0820151816005019081610bf99190611cf5565b5060c0820151816006019081610c0f9190611cf5565b5060e082015181600701559050506001600288604051610c2f91906118cb565b908152602001604051809103902060006101000a81548160ff021916908315150217905550600060405180608001604052803373ffffffffffffffffffffffffffffffffffffffff168152602001858152602001848152602001428152509050600188604051610c9f91906118cb565b908152602001604051809103902081908060018154018082558091505060019003906000526020600020906004020160009091909190915060008201518160000160006101000a81548173ffffffffffffffffffffffffffffffffffffffff021916908373ffffffffffffffffffffffffffffffffffffffff1602179055506020820151816001019081610d339190611cf5565b506040820151816002019081610d499190611cf5565b506060820151816003015550503373ffffffffffffffffffffffffffffffffffffffff1688604051610d7b91906118cb565b60405180910390207f69a364a36de428def83b9136062f8e6214b44410a34f51f779f06dc745de8fca42604051610db29190611dc7565b60405180910390a35050505050505050565b600284604051610dd491906118cb565b908152602001604051809103902060009054906101000a900460ff16610e2f576040517f08c379a0000000000000000000000000000000000000000000000000000000008152600401610e269061192e565b60405180910390fd5b60008085604051610e4091906118cb565b908152602001604051809103902090508060040160009054906101000a900473ffffffffffffffffffffffffffffffffffffffff1673ffffffffffffffffffffffffffffffffffffffff163373ffffffffffffffffffffffffffffffffffffffff1614610ee2576040517f08c379a0000000000000000000000000000000000000000000000000000000008152600401610ed990611e2e565b60405180910390fd5b600073ffffffffffffffffffffffffffffffffffffffff168473ffffffffffffffffffffffffffffffffffffffff1603610f51576040517f08c379a0000000000000000000000000000000000000000000000000000000008152600401610f4890611e9a565b60405180910390fd5b60008160040160009054906101000a900473ffffffffffffffffffffffffffffffffffffffff169050848260040160006101000a81548173ffffffffffffffffffffffffffffffffffffffff021916908373ffffffffffffffffffffffffffffffffffffffff16021790555083826005019081610fce9190611cf5565b5082826006019081610fe09190611cf5565b50600060405180608001604052808773ffffffffffffffffffffffffffffffffffffffff16815260200186815260200185815260200142815250905060018760405161102c91906118cb565b908152602001604051809103902081908060018154018082558091505060019003906000526020600020906004020160009091909190915060008201518160000160006101000a81548173ffffffffffffffffffffffffffffffffffffffff021916908373ffffffffffffffffffffffffffffffffffffffff16021790555060208201518160010190816110c09190611cf5565b5060408201518160020190816110d69190611cf5565b506060820151816003015550508573ffffffffffffffffffffffffffffffffffffffff168273ffffffffffffffffffffffffffffffffffffffff168860405161111f91906118cb565b60405180910390207fe9bf8dbaa7eb0b6910401512e60afcae7734db09df0b7291b4a16e630d796e56426040516111569190611dc7565b60405180910390a450505050505050565b6000604051905090565b600080fd5b600080fd5b600080fd5b600080fd5b6000601f19601f8301169050919050565b7f4e487b7100000000000000000000000000000000000000000000000000000000600052604160045260246000fd5b6111ce82611185565b810181811067ffffffffffffffff821117156111ed576111ec611196565b5b80604052505050565b6000611200611167565b905061120c82826111c5565b919050565b600067ffffffffffffffff82111561122c5761122b611196565b5b61123582611185565b9050602081019050919050565b82818337600083830152505050565b600061126461125f84611211565b6111f6565b9050828152602081018484840111156112805761127f611180565b5b61128b848285611242565b509392505050565b600082601f8301126112a8576112a761117b565b5b81356112b8848260208601611251565b91505092915050565b6000602082840312156112d7576112d6611171565b5b600082013567ffffffffffffffff8111156112f5576112f4611176565b5b61130184828501611293565b91505092915050565b600073ffffffffffffffffffffffffffffffffffffffff82169050919050565b60006113358261130a565b9050919050565b6113458161132a565b82525050565b600081519050919050565b600082825260208201905092915050565b60005b8381101561138557808201518184015260208101905061136a565b60008484015250505050565b600061139c8261134b565b6113a68185611356565b93506113b6818560208601611367565b6113bf81611185565b840191505092915050565b600081519050919050565b600082825260208201905092915050565b6000819050602082019050919050565b6113ff8161132a565b82525050565b600082825260208201905092915050565b60006114218261134b565b61142b8185611405565b935061143b818560208601611367565b61144481611185565b840191505092915050565b6000819050919050565b6114628161144f565b82525050565b600060808301600083015161148060008601826113f6565b50602083015184820360208601526114988282611416565b915050604083015184820360408601526114b28282611416565b91505060608301516114c76060860182611459565b508091505092915050565b60006114de8383611468565b905092915050565b6000602082019050919050565b60006114fe826113ca565b61150881856113d5565b93508360208202850161151a856113e6565b8060005b85811015611556578484038952815161153785826114d2565b9450611542836114e6565b925060208a0199505060018101905061151e565b50829750879550505050505092915050565b600060808201905061157d600083018761133c565b818103602083015261158f8186611391565b905081810360408301526115a38185611391565b905081810360608301526115b781846114f3565b905095945050505050565b6115cb8161144f565b82525050565b60008115159050919050565b6115e6816115d1565b82525050565b6000610100820190508181036000830152611607818b611391565b9050611616602083018a6115c2565b61162360408301896115c2565b61163060608301886115dd565b61163d60808301876115c2565b61164a60a083018661133c565b81810360c083015261165c8185611391565b905081810360e08301526116708184611391565b90509998505050505050505050565b6116888161144f565b811461169357600080fd5b50565b6000813590506116a58161167f565b92915050565b60008060008060008060c087890312156116c8576116c7611171565b5b600087013567ffffffffffffffff8111156116e6576116e5611176565b5b6116f289828a01611293565b965050602087013567ffffffffffffffff81111561171357611712611176565b5b61171f89828a01611293565b955050604061173089828a01611696565b945050606061174189828a01611696565b935050608087013567ffffffffffffffff81111561176257611761611176565b5b61176e89828a01611293565b92505060a087013567ffffffffffffffff81111561178f5761178e611176565b5b61179b89828a01611293565b9150509295509295509295565b6117b18161132a565b81146117bc57600080fd5b50565b6000813590506117ce816117a8565b92915050565b600080600080608085870312156117ee576117ed611171565b5b600085013567ffffffffffffffff81111561180c5761180b611176565b5b61181887828801611293565b9450506020611829878288016117bf565b935050604085013567ffffffffffffffff81111561184a57611849611176565b5b61185687828801611293565b925050606085013567ffffffffffffffff81111561187757611876611176565b5b61188387828801611293565b91505092959194509250565b600081905092915050565b60006118a58261134b565b6118af818561188f565b93506118bf818560208601611367565b80840191505092915050565b60006118d7828461189a565b915081905092915050565b7f50726f64756374206e6f7420666f756e64000000000000000000000000000000600082015250565b6000611918601183611356565b9150611923826118e2565b602082019050919050565b600060208201905081810360008301526119478161190b565b9050919050565b7f4e487b7100000000000000000000000000000000000000000000000000000000600052602260045260246000fd5b6000600282049050600182168061199557607f821691505b6020821081036119a8576119a761194e565b5b50919050565b7f4e487b7100000000000000000000000000000000000000000000000000000000600052601160045260246000fd5b60006119e88261144f565b91506119f38361144f565b9250828203905081811115611a0b57611a0a6119ae565b5b92915050565b7f4e487b7100000000000000000000000000000000000000000000000000000000600052601260045260246000fd5b6000611a4b8261144f565b9150611a568361144f565b925082611a6657611a65611a11565b5b828204905092915050565b7f50726f6475637420494420616c72656164792072656769737465726564000000600082015250565b6000611aa7601d83611356565b9150611ab282611a71565b602082019050919050565b60006020820190508181036000830152611ad681611a9a565b9050919050565b7f496e76616c69642077617272616e747920646174657300000000000000000000600082015250565b6000611b13601683611356565b9150611b1e82611add565b602082019050919050565b60006020820190508181036000830152611b4281611b06565b9050919050565b60008190508160005260206000209050919050565b60006020601f8301049050919050565b600082821b905092915050565b600060088302611bab7fffffffffffffffffffffffffffffffffffffffffffffffffffffffffffffffff82611b6e565b611bb58683611b6e565b95508019841693508086168417925050509392505050565b6000819050919050565b6000611bf2611bed611be88461144f565b611bcd565b61144f565b9050919050565b6000819050919050565b611c0c83611bd7565b611c20611c1882611bf9565b848454611b7b565b825550505050565b600090565b611c35611c28565b611c40818484611c03565b505050565b5b81811015611c6457611c59600082611c2d565b600181019050611c46565b5050565b601f821115611ca957611c7a81611b49565b611c8384611b5e565b81016020851015611c92578190505b611ca6611c9e85611b5e565b830182611c45565b50505b505050565b600082821c905092915050565b6000611ccc60001984600802611cae565b1980831691505092915050565b6000611ce58383611cbb565b9150826002028217905092915050565b611cfe8261134b565b67ffffffffffffffff811115611d1757611d16611196565b5b611d21825461197d565b611d2c828285611c68565b600060209050601f831160018114611d5f5760008415611d4d578287015190505b611d578582611cd9565b865550611dbf565b601f198416611d6d86611b49565b60005b82811015611d9557848901518255600182019150602085019450602081019050611d70565b86831015611db25784890151611dae601f891682611cbb565b8355505b6001600288020188555050505b505050505050565b6000602082019050611ddc60008301846115c2565b92915050565b7f4f6e6c79206f776e65722063616e207472616e73666572000000000000000000600082015250565b6000611e18601783611356565b9150611e2382611de2565b602082019050919050565b60006020820190508181036000830152611e4781611e0b565b9050919050565b7f496e76616c6964206e6577206f776e6572206164647265737300000000000000600082015250565b6000611e84601983611356565b9150611e8f82611e4e565b602082019050919050565b60006020820190508181036000830152611eb381611e77565b905091905056fea2646970667358221220c9d2dbd3a6f90e3119e3501ad1998f6dab53583d41d9c05deb78f37df0f90dfd64736f6c63430008180033",
  "linkReferences": {},
  "deployedLinkReferences": {}
}