{
  "_format": "hh-sol-artifact-1",
  "contractName": "Warranty",
  "sourceName": "contracts/Warranty.sol",
  "abi": [
    {
      "anonymous": false,
      "inputs": [
        {
          "indexed": true,
          "internalType": "string",
          "name": "productId",
          "type": "string"
        },
        {
          "indexed": true,
          "internalType": "address",
          "name": "oldOwner",
          "type": "address"
        },
        {
          "indexed": true,
          "internalType": "address",
          "name": "newOwner",
          "type": "address"
        },
        {
          "indexed": false,
          "internalType": "uint256",
          "name": "timestamp",
          "type": "uint256"
        }
      ],
      "name": "OwnershipTransferred",
      "type": "event"
    },
    {
      "anonymous": false,
      "inputs": [
        {
          "indexed": true,
          "internalType": "string",
          "name": "productId",
          "type": "string"
        },
        {
          "indexed": true,
          "internalType": "address",
          "name": "owner",
          "type": "address"
        },
        {
          "indexed": false,
          "internalType": "uint256",
          "name": "timestamp",
          "type": "uint256"
        }
      ],
      "name": "ProductRegistered",
      "type": "event"
    },
    {
      "inputs": [],
      "name": "getAllProductIds",
      "outputs": [
        {
          "internalType": "string[]",
          "name": "",
          "type": "string[]"
        }
      ],
      "stateMutability": "view",
      "type": "function"
    },
    {
      "inputs": [],
      "name": "getAllProducts",
      "outputs": [
        {
          "components": [
            {
              "internalType": "string",
              "name": "productId",
              "type": "string"
            },
            {
              "internalType": "string",
              "name": "productName",
              "type": "string"
            },
            {
              "internalType": "uint256",
              "name": "warrantyStart",
              "type": "uint256"
            },
            {
              "internalType": "uint256",
              "name": "warrantyEnd",
              "type": "uint256"
            },
            {
              "internalType": "address",
              "name": "owner",
              "type": "address"
            },
            {
              "internalType": "string",
              "name": "ownerName",
              "type": "string"
            },
            {
              "internalType": "string",
              "name": "ownerContact",
              "type": "string"
            },
            {
              "internalType": "string",
              "name": "serialNumber",
              "type": "string"
            },
            {
              "internalType": "string",
              "name": "specifications",
              "type": "string"
            },
            {
              "internalType": "uint256",
              "name": "createdAt",
              "type": "uint256"
            }
          ],
          "internalType": "struct Warranty.Product[]",
          "name": "",
          "type": "tuple[]"
        }
      ],
      "stateMutability": "view",
      "type": "function"
    },
    {
      "inputs": [
        {
          "internalType": "string",
          "name": "_productId",
          "type": "string"
        }
      ],
      "name": "getProduct",
      "outputs": [
        {
          "components": [
            {
              "internalType": "string",
              "name": "productId",
              "type": "string"
            },
            {
              "internalType": "string",
              "name": "productName",
              "type": "string"
            },
            {
              "internalType": "uint256",
              "name": "warrantyStart",
              "type": "uint256"
            },
            {
              "internalType": "uint256",
              "name": "warrantyEnd",
              "type": "uint256"
            },
            {
              "internalType": "address",
              "name": "owner",
              "type": "address"
            },
            {
              "internalType": "string",
              "name": "ownerName",
              "type": "string"
            },
            {
              "internalType": "string",
              "name": "ownerContact",
              "type": "string"
            },
            {
              "internalType": "string",
              "name": "serialNumber",
              "type": "string"
            },
            {
              "internalType": "string",
              "name": "specifications",
              "type": "string"
            },
            {
              "internalType": "uint256",
              "name": "createdAt",
              "type": "uint256"
            }
          ],
          "internalType": "struct Warranty.Product",
          "name": "",
          "type": "tuple"
        }
      ],
      "stateMutability": "view",
      "type": "function"
    },
    {
      "inputs": [
        {
          "internalType": "string",
          "name": "_productId",
          "type": "string"
        },
        {
          "internalType": "string",
          "name": "_productName",
          "type": "string"
        },
        {
          "internalType": "uint256",
          "name": "_warrantyStart",
          "type": "uint256"
        },
        {
          "internalType": "uint256",
          "name": "_warrantyEnd",
          "type": "uint256"
        },
        {
          "internalType": "string",
          "name": "_ownerName",
          "type": "string"
        },
        {
          "internalType": "string",
          "name": "_ownerContact",
          "type": "string"
        },
        {
          "internalType": "string",
          "name": "_serialNumber",
          "type": "string"
        },
        {
          "internalType": "string",
          "name": "_specifications",
          "type": "string"
        }
      ],
      "name": "registerProduct",
      "outputs": [],
      "stateMutability": "nonpayable",
      "type": "function"
    },
    {
      "inputs": [
        {
          "internalType": "string",
          "name": "_productId",
          "type": "string"
        },
        {
          "internalType": "address",
          "name": "_newOwner",
          "type": "address"
        },
        {
          "internalType": "string",
          "name": "_newOwnerName",
          "type": "string"
        },
        {
          "internalType": "string",
          "name": "_newOwnerContact",
          "type": "string"
        }
      ],
      "name": "transferOwnership",
      "outputs": [],
      "stateMutability": "nonpayable",
      "type": "function"
    },
    {
      "inputs": [
        {
          "internalType": "string",
          "name": "_productId",
          "type": "string"
        }
      ],
      "name": "verifyOwnership",
      "outputs": [
        {
          "internalType": "address",
          "name": "currentOwner",
          "type": "address"
        },
        {
          "internalType": "string",
          "name": "currentOwnerName",
          "type": "string"
        },
        {
          "components": [
            {
              "internalType": "address",
              "name": "owner",
              "type": "address"
            },
            {
              "internalType": "string",
              "name": "ownerName",
              "type": "string"
            },
            {
              "internalType": "string",
              "name": "ownerContact",
              "type": "string"
            },
            {
              "internalType": "uint256",
              "name": "transferDate",
              "type": "uint256"
            }
          ],
          "internalType": "struct Warranty.OwnershipRecord[]",
          "name": "history",
          "type": "tuple[]"
        }
      ],
      "stateMutability": "view",
      "type": "function"
    },
    {
      "inputs": [
        {
          "internalType": "string",
          "name": "_productId",
          "type": "string"
        }
      ],
      "name": "verifyWarranty",
      "outputs": [
        {
          "internalType": "string",
          "name": "productName",
          "type": "string"
        },
        {
          "internalType": "uint256",
          "name": "warrantyStart",
          "type": "uint256"
        },
        {
          "internalType": "uint256",
          "name": "warrantyEnd",
          "type": "uint256"
        },
        {
          "internalType": "bool",
          "name": "isValid",
          "type": "bool"
        },
        {
          "internalType": "uint256",
          "name": "daysRemaining",
          "type": "uint256"
        },
        {
          "internalType": "address",
          "name": "owner",
          "type": "address"
        },
        {
          "internalType": "string",
          "name": "ownerName",
          "type": "string"
        },
        {
          "internalType": "string",
          "name": "ownerContact",
          "type": "string"
        },
        {
          "internalType": "string",
          "name": "serialNumber",
          "type": "string"
        },
        {
          "internalType": "string",
          "name": "specifications",
          "type": "string"
        }
      ],
      "stateMutability": "view",
      "type": "function"
    }
  ],
  "bytecode": "0x608060405234801561001057600080fd5b50613359806100206000396000f3fe608060405234801561001057600080fd5b506004361061007d5760003560e01c806368111cce1161005b57806368111cce146100f0578063b19a58de14610120578063baa526a81461013c578063f52c5513146101755761007d565b806302ee3a5214610082578063293f854e146100a0578063663c01af146100d2575b600080fd5b61008a610191565b60405161009791906122e8565b60405180910390f35b6100ba60048036038101906100b59190612453565b61065a565b6040516100c993929190612621565b60405180910390f35b6100da610cea565b6040516100e79190612728565b60405180910390f35b61010a60048036038101906101059190612453565b610dc3565b6040516101179190612847565b60405180910390f35b61013a60048036038101906101359190612895565b611247565b005b61015660048036038101906101519190612453565b611727565b60405161016c9a99989796959493929190612a1d565b60405180910390f35b61018f600480360381019061018a9190612b08565b611c33565b005b6060600060048054905067ffffffffffffffff8111156101b4576101b3612328565b5b6040519080825280602002602001820160405280156101ed57816020015b6101da611fd6565b8152602001906001900390816101d25790505b50905060005b6004805490508110156106525760006004828154811061021657610215612bc3565b5b9060005260206000200160405161022d9190612cf5565b90815260200160405180910390206040518061014001604052908160008201805461025790612c21565b80601f016020809104026020016040519081016040528092919081815260200182805461028390612c21565b80156102d05780601f106102a5576101008083540402835291602001916102d0565b820191906000526020600020905b8154815290600101906020018083116102b357829003601f168201915b505050505081526020016001820180546102e990612c21565b80601f016020809104026020016040519081016040528092919081815260200182805461031590612c21565b80156103625780601f1061033757610100808354040283529160200191610362565b820191906000526020600020905b81548152906001019060200180831161034557829003601f168201915b5050505050815260200160028201548152602001600382015481526020016004820160009054906101000a900473ffffffffffffffffffffffffffffffffffffffff1673ffffffffffffffffffffffffffffffffffffffff1673ffffffffffffffffffffffffffffffffffffffff1681526020016005820180546103e590612c21565b80601f016020809104026020016040519081016040528092919081815260200182805461041190612c21565b801561045e5780601f106104335761010080835404028352916020019161045e565b820191906000526020600020905b81548152906001019060200180831161044157829003601f168201915b5050505050815260200160068201805461047790612c21565b80601f01602080910402602001604051908101604052809291908181526020018280546104a390612c21565b80156104f05780601f106104c5576101008083540402835291602001916104f0565b820191906000526020600020905b8154815290600101906020018083116104d357829003601f168201915b5050505050815260200160078201805461050990612c21565b80601f016020809104026020016040519081016040528092919081815260200182805461053590612c21565b80156105825780601f1061055757610100808354040283529160200191610582565b820191906000526020600020905b81548152906001019060200180831161056557829003601f168201915b5050505050815260200160088201805461059b90612c21565b80601f01602080910402602001604051908101604052809291908181526020018280546105c790612c21565b80156106145780601f106105e957610100808354040283529160200191610614565b820191906000526020600020905b8154815290600101906020018083116105f757829003601f168201915b5050505050815260200160098201548152505082828151811061063a57610639612bc3565b5b602002602001018190525080806001019150506101f3565b508091505090565b600060608060028460405161066f9190612d3d565b908152602001604051809103902060009054906101000a900460ff166106ca576040517f08c379a00000000000000000000000000000000000000000000000000000000081526004016106c190612da0565b60405180910390fd5b600080856040516106db9190612d3d565b90815260200160405180910390206040518061014001604052908160008201805461070590612c21565b80601f016020809104026020016040519081016040528092919081815260200182805461073190612c21565b801561077e5780601f106107535761010080835404028352916020019161077e565b820191906000526020600020905b81548152906001019060200180831161076157829003601f168201915b5050505050815260200160018201805461079790612c21565b80601f01602080910402602001604051908101604052809291908181526020018280546107c390612c21565b80156108105780601f106107e557610100808354040283529160200191610810565b820191906000526020600020905b8154815290600101906020018083116107f357829003601f168201915b5050505050815260200160028201548152602001600382015481526020016004820160009054906101000a900473ffffffffffffffffffffffffffffffffffffffff1673ffffffffffffffffffffffffffffffffffffffff1673ffffffffffffffffffffffffffffffffffffffff16815260200160058201805461089390612c21565b80601f01602080910402602001604051908101604052809291908181526020018280546108bf90612c21565b801561090c5780601f106108e15761010080835404028352916020019161090c565b820191906000526020600020905b8154815290600101906020018083116108ef57829003601f168201915b5050505050815260200160068201805461092590612c21565b80601f016020809104026020016040519081016040528092919081815260200182805461095190612c21565b801561099e5780601f106109735761010080835404028352916020019161099e565b820191906000526020600020905b81548152906001019060200180831161098157829003601f168201915b505050505081526020016007820180546109b790612c21565b80601f01602080910402602001604051908101604052809291908181526020018280546109e390612c21565b8015610a305780601f10610a0557610100808354040283529160200191610a30565b820191906000526020600020905b815481529060010190602001808311610a1357829003601f168201915b50505050508152602001600882018054610a4990612c21565b80601f0160208091040260200160405190810160405280929190818152602001828054610a7590612c21565b8015610ac25780601f10610a9757610100808354040283529160200191610ac2565b820191906000526020600020905b815481529060010190602001808311610aa557829003601f168201915b50505050508152602001600982015481525050905080608001518160a00151600187604051610af19190612d3d565b908152602001604051809103902080805480602002602001604051908101604052809291908181526020016000905b82821015610cd657838290600052602060002090600402016040518060800160405290816000820160009054906101000a900473ffffffffffffffffffffffffffffffffffffffff1673ffffffffffffffffffffffffffffffffffffffff1673ffffffffffffffffffffffffffffffffffffffff168152602001600182018054610ba990612c21565b80601f0160208091040260200160405190810160405280929190818152602001828054610bd590612c21565b8015610c225780601f10610bf757610100808354040283529160200191610c22565b820191906000526020600020905b815481529060010190602001808311610c0557829003601f168201915b50505050508152602001600282018054610c3b90612c21565b80601f0160208091040260200160405190810160405280929190818152602001828054610c6790612c21565b8015610cb45780601f10610c8957610100808354040283529160200191610cb4565b820191906000526020600020905b815481529060010190602001808311610c9757829003601f168201915b5050505050815260200160038201548152505081526020019060010190610b20565b505050509050935093509350509193909250565b60606004805480602002602001604051908101604052809291908181526020016000905b82821015610dba578382906000526020600020018054610d2d90612c21565b80601f0160208091040260200160405190810160405280929190818152602001828054610d5990612c21565b8015610da65780601f10610d7b57610100808354040283529160200191610da6565b820191906000526020600020905b815481529060010190602001808311610d8957829003601f168201915b505050505081526020019060010190610d0e565b50505050905090565b610dcb611fd6565b600282604051610ddb9190612d3d565b908152602001604051809103902060009054906101000a900460ff16610e36576040517f08c379a0000000000000000000000000000000000000000000000000000000008152600401610e2d90612da0565b60405180910390fd5b600082604051610e469190612d3d565b908152602001604051809103902060405180610140016040529081600082018054610e7090612c21565b80601f0160208091040260200160405190810160405280929190818152602001828054610e9c90612c21565b8015610ee95780601f10610ebe57610100808354040283529160200191610ee9565b820191906000526020600020905b815481529060010190602001808311610ecc57829003601f168201915b50505050508152602001600182018054610f0290612c21565b80601f0160208091040260200160405190810160405280929190818152602001828054610f2e90612c21565b8015610f7b5780601f10610f5057610100808354040283529160200191610f7b565b820191906000526020600020905b815481529060010190602001808311610f5e57829003601f168201915b5050505050815260200160028201548152602001600382015481526020016004820160009054906101000a900473ffffffffffffffffffffffffffffffffffffffff1673ffffffffffffffffffffffffffffffffffffffff1673ffffffffffffffffffffffffffffffffffffffff168152602001600582018054610ffe90612c21565b80601f016020809104026020016040519081016040528092919081815260200182805461102a90612c21565b80156110775780601f1061104c57610100808354040283529160200191611077565b820191906000526020600020905b81548152906001019060200180831161105a57829003601f168201915b5050505050815260200160068201805461109090612c21565b80601f01602080910402602001604051908101604052809291908181526020018280546110bc90612c21565b80156111095780601f106110de57610100808354040283529160200191611109565b820191906000526020600020905b8154815290600101906020018083116110ec57829003601f168201915b5050505050815260200160078201805461112290612c21565b80601f016020809104026020016040519081016040528092919081815260200182805461114e90612c21565b801561119b5780601f106111705761010080835404028352916020019161119b565b820191906000526020600020905b81548152906001019060200180831161117e57829003601f168201915b505050505081526020016008820180546111b490612c21565b80601f01602080910402602001604051908101604052809291908181526020018280546111e090612c21565b801561122d5780601f106112025761010080835404028352916020019161122d565b820191906000526020600020905b81548152906001019060200180831161121057829003601f168201915b505050505081526020016009820154815250509050919050565b600073ffffffffffffffffffffffffffffffffffffffff1660008960405161126f9190612d3d565b908152602001604051809103902060040160009054906101000a900473ffffffffffffffffffffffffffffffffffffffff1673ffffffffffffffffffffffffffffffffffffffff16146112f7576040517f08c379a00000000000000000000000000000000000000000000000000000000081526004016112ee90612e0c565b60405180910390fd5b6003826040516113079190612d3d565b908152602001604051809103902060009054906101000a900460ff1615611363576040517f08c379a000000000000000000000000000000000000000000000000000000000815260040161135a90612e78565b60405180910390fd5b8585116113a5576040517f08c379a000000000000000000000000000000000000000000000000000000000815260040161139c90612ee4565b60405180910390fd5b60006040518061014001604052808a81526020018981526020018881526020018781526020013373ffffffffffffffffffffffffffffffffffffffff1681526020018681526020018581526020018481526020018381526020014281525090508060008a6040516114169190612d3d565b90815260200160405180910390206000820151816000019081611439919061309b565b50602082015181600101908161144f919061309b565b50604082015181600201556060820151816003015560808201518160040160006101000a81548173ffffffffffffffffffffffffffffffffffffffff021916908373ffffffffffffffffffffffffffffffffffffffff16021790555060a08201518160050190816114c0919061309b565b5060c08201518160060190816114d6919061309b565b5060e08201518160070190816114ec919061309b565b50610100820151816008019081611503919061309b565b506101208201518160090155905050600160028a6040516115249190612d3d565b908152602001604051809103902060006101000a81548160ff021916908315150217905550600160038460405161155b9190612d3d565b908152602001604051809103902060006101000a81548160ff0219169083151502179055506004899080600181540180825580915050600190039060005260206000200160009091909190915090816115b4919061309b565b50600060405180608001604052803373ffffffffffffffffffffffffffffffffffffffff16815260200187815260200186815260200142815250905060018a6040516116009190612d3d565b908152602001604051809103902081908060018154018082558091505060019003906000526020600020906004020160009091909190915060008201518160000160006101000a81548173ffffffffffffffffffffffffffffffffffffffff021916908373ffffffffffffffffffffffffffffffffffffffff1602179055506020820151816001019081611694919061309b565b5060408201518160020190816116aa919061309b565b506060820151816003015550503373ffffffffffffffffffffffffffffffffffffffff168a6040516116dc9190612d3d565b60405180910390207f69a364a36de428def83b9136062f8e6214b44410a34f51f779f06dc745de8fca42604051611713919061316d565b60405180910390a350505050505050505050565b6060600080600080600060608060608060028b6040516117479190612d3d565b908152602001604051809103902060009054906101000a900460ff166117a2576040517f08c379a000000000000000000000000000000000000000000000000000000000815260040161179990612da0565b60405180910390fd5b6000808c6040516117b39190612d3d565b9081526020016040518091039020604051806101400160405290816000820180546117dd90612c21565b80601f016020809104026020016040519081016040528092919081815260200182805461180990612c21565b80156118565780601f1061182b57610100808354040283529160200191611856565b820191906000526020600020905b81548152906001019060200180831161183957829003601f168201915b5050505050815260200160018201805461186f90612c21565b80601f016020809104026020016040519081016040528092919081815260200182805461189b90612c21565b80156118e85780601f106118bd576101008083540402835291602001916118e8565b820191906000526020600020905b8154815290600101906020018083116118cb57829003601f168201915b5050505050815260200160028201548152602001600382015481526020016004820160009054906101000a900473ffffffffffffffffffffffffffffffffffffffff1673ffffffffffffffffffffffffffffffffffffffff1673ffffffffffffffffffffffffffffffffffffffff16815260200160058201805461196b90612c21565b80601f016020809104026020016040519081016040528092919081815260200182805461199790612c21565b80156119e45780601f106119b9576101008083540402835291602001916119e4565b820191906000526020600020905b8154815290600101906020018083116119c757829003601f168201915b505050505081526020016006820180546119fd90612c21565b80601f0160208091040260200160405190810160405280929190818152602001828054611a2990612c21565b8015611a765780601f10611a4b57610100808354040283529160200191611a76565b820191906000526020600020905b815481529060010190602001808311611a5957829003601f168201915b50505050508152602001600782018054611a8f90612c21565b80601f0160208091040260200160405190810160405280929190818152602001828054611abb90612c21565b8015611b085780601f10611add57610100808354040283529160200191611b08565b820191906000526020600020905b815481529060010190602001808311611aeb57829003601f168201915b50505050508152602001600882018054611b2190612c21565b80601f0160208091040260200160405190810160405280929190818152602001828054611b4d90612c21565b8015611b9a5780601f10611b6f57610100808354040283529160200191611b9a565b820191906000526020600020905b815481529060010190602001808311611b7d57829003601f168201915b50505050508152602001600982015481525050905060008160600151421115905060008115611be45762015180428460600151611bd791906131b7565b611be1919061321a565b90505b826020015183604001518460600151848487608001518860a001518960c001518a60e001518b61010001519c509c509c509c509c509c509c509c509c509c505050509193959799509193959799565b600284604051611c439190612d3d565b908152602001604051809103902060009054906101000a900460ff16611c9e576040517f08c379a0000000000000000000000000000000000000000000000000000000008152600401611c9590612da0565b60405180910390fd5b60008085604051611caf9190612d3d565b908152602001604051809103902090508060040160009054906101000a900473ffffffffffffffffffffffffffffffffffffffff1673ffffffffffffffffffffffffffffffffffffffff163373ffffffffffffffffffffffffffffffffffffffff1614611d51576040517f08c379a0000000000000000000000000000000000000000000000000000000008152600401611d4890613297565b60405180910390fd5b600073ffffffffffffffffffffffffffffffffffffffff168473ffffffffffffffffffffffffffffffffffffffff1603611dc0576040517f08c379a0000000000000000000000000000000000000000000000000000000008152600401611db790613303565b60405180910390fd5b60008160040160009054906101000a900473ffffffffffffffffffffffffffffffffffffffff169050848260040160006101000a81548173ffffffffffffffffffffffffffffffffffffffff021916908373ffffffffffffffffffffffffffffffffffffffff16021790555083826005019081611e3d919061309b565b5082826006019081611e4f919061309b565b50600060405180608001604052808773ffffffffffffffffffffffffffffffffffffffff168152602001868152602001858152602001428152509050600187604051611e9b9190612d3d565b908152602001604051809103902081908060018154018082558091505060019003906000526020600020906004020160009091909190915060008201518160000160006101000a81548173ffffffffffffffffffffffffffffffffffffffff021916908373ffffffffffffffffffffffffffffffffffffffff1602179055506020820151816001019081611f2f919061309b565b506040820151816002019081611f45919061309b565b506060820151816003015550508573ffffffffffffffffffffffffffffffffffffffff168273ffffffffffffffffffffffffffffffffffffffff1688604051611f8e9190612d3d565b60405180910390207fe9bf8dbaa7eb0b6910401512e60afcae7734db09df0b7291b4a16e630d796e5642604051611fc5919061316d565b60405180910390a450505050505050565b60405180610140016040528060608152602001606081526020016000815260200160008152602001600073ffffffffffffffffffffffffffffffffffffffff16815260200160608152602001606081526020016060815260200160608152602001600081525090565b600081519050919050565b600082825260208201905092915050565b6000819050602082019050919050565b600081519050919050565b600082825260208201905092915050565b60005b838110156120a557808201518184015260208101905061208a565b60008484015250505050565b6000601f19601f8301169050919050565b60006120cd8261206b565b6120d78185612076565b93506120e7818560208601612087565b6120f0816120b1565b840191505092915050565b6000819050919050565b61210e816120fb565b82525050565b600073ffffffffffffffffffffffffffffffffffffffff82169050919050565b600061213f82612114565b9050919050565b61214f81612134565b82525050565b600061014083016000830151848203600086015261217382826120c2565b9150506020830151848203602086015261218d82826120c2565b91505060408301516121a26040860182612105565b5060608301516121b56060860182612105565b5060808301516121c86080860182612146565b5060a083015184820360a08601526121e082826120c2565b91505060c083015184820360c08601526121fa82826120c2565b91505060e083015184820360e086015261221482826120c2565b91505061010083015184820361010086015261223082826120c2565b915050610120830151612247610120860182612105565b508091505092915050565b600061225e8383612155565b905092915050565b6000602082019050919050565b600061227e8261203f565b612288818561204a565b93508360208202850161229a8561205b565b8060005b858110156122d657848403895281516122b78582612252565b94506122c283612266565b925060208a0199505060018101905061229e565b50829750879550505050505092915050565b600060208201905081810360008301526123028184612273565b905092915050565b6000604051905090565b600080fd5b600080fd5b600080fd5b600080fd5b7f4e487b7100000000000000000000000000000000000000000000000000000000600052604160045260246000fd5b612360826120b1565b810181811067ffffffffffffffff8211171561237f5761237e612328565b5b80604052505050565b600061239261230a565b905061239e8282612357565b919050565b600067ffffffffffffffff8211156123be576123bd612328565b5b6123c7826120b1565b9050602081019050919050565b82818337600083830152505050565b60006123f66123f1846123a3565b612388565b90508281526020810184848401111561241257612411612323565b5b61241d8482856123d4565b509392505050565b600082601f83011261243a5761243961231e565b5b813561244a8482602086016123e3565b91505092915050565b60006020828403121561246957612468612314565b5b600082013567ffffffffffffffff81111561248757612486612319565b5b61249384828501612425565b91505092915050565b6124a581612134565b82525050565b600082825260208201905092915050565b60006124c78261206b565b6124d181856124ab565b93506124e1818560208601612087565b6124ea816120b1565b840191505092915050565b600081519050919050565b600082825260208201905092915050565b6000819050602082019050919050565b60006080830160008301516125396000860182612146565b506020830151848203602086015261255182826120c2565b9150506040830151848203604086015261256b82826120c2565b91505060608301516125806060860182612105565b508091505092915050565b60006125978383612521565b905092915050565b6000602082019050919050565b60006125b7826124f5565b6125c18185612500565b9350836020820285016125d385612511565b8060005b8581101561260f57848403895281516125f0858261258b565b94506125fb8361259f565b925060208a019950506001810190506125d7565b50829750879550505050505092915050565b6000606082019050612636600083018661249c565b818103602083015261264881856124bc565b9050818103604083015261265c81846125ac565b9050949350505050565b600081519050919050565b600082825260208201905092915050565b6000819050602082019050919050565b600061269e83836120c2565b905092915050565b6000602082019050919050565b60006126be82612666565b6126c88185612671565b9350836020820285016126da85612682565b8060005b8581101561271657848403895281516126f78582612692565b9450612702836126a6565b925060208a019950506001810190506126de565b50829750879550505050505092915050565b6000602082019050818103600083015261274281846126b3565b905092915050565b600061014083016000830151848203600086015261276882826120c2565b9150506020830151848203602086015261278282826120c2565b91505060408301516127976040860182612105565b5060608301516127aa6060860182612105565b5060808301516127bd6080860182612146565b5060a083015184820360a08601526127d582826120c2565b91505060c083015184820360c08601526127ef82826120c2565b91505060e083015184820360e086015261280982826120c2565b91505061010083015184820361010086015261282582826120c2565b91505061012083015161283c610120860182612105565b508091505092915050565b60006020820190508181036000830152612861818461274a565b905092915050565b612872816120fb565b811461287d57600080fd5b50565b60008135905061288f81612869565b92915050565b600080600080600080600080610100898b0312156128b6576128b5612314565b5b600089013567ffffffffffffffff8111156128d4576128d3612319565b5b6128e08b828c01612425565b985050602089013567ffffffffffffffff81111561290157612900612319565b5b61290d8b828c01612425565b975050604061291e8b828c01612880565b965050606061292f8b828c01612880565b955050608089013567ffffffffffffffff8111156129505761294f612319565b5b61295c8b828c01612425565b94505060a089013567ffffffffffffffff81111561297d5761297c612319565b5b6129898b828c01612425565b93505060c089013567ffffffffffffffff8111156129aa576129a9612319565b5b6129b68b828c01612425565b92505060e089013567ffffffffffffffff8111156129d7576129d6612319565b5b6129e38b828c01612425565b9150509295985092959890939650565b6129fc816120fb565b82525050565b60008115159050919050565b612a1781612a02565b82525050565b6000610140820190508181036000830152612a38818d6124bc565b9050612a47602083018c6129f3565b612a54604083018b6129f3565b612a61606083018a612a0e565b612a6e60808301896129f3565b612a7b60a083018861249c565b81810360c0830152612a8d81876124bc565b905081810360e0830152612aa181866124bc565b9050818103610100830152612ab681856124bc565b9050818103610120830152612acb81846124bc565b90509b9a5050505050505050505050565b612ae581612134565b8114612af057600080fd5b50565b600081359050612b0281612adc565b92915050565b60008060008060808587031215612b2257612b21612314565b5b600085013567ffffffffffffffff811115612b4057612b3f612319565b5b612b4c87828801612425565b9450506020612b5d87828801612af3565b935050604085013567ffffffffffffffff811115612b7e57612b7d612319565b5b612b8a87828801612425565b925050606085013567ffffffffffffffff811115612bab57612baa612319565b5b612bb787828801612425565b91505092959194509250565b7f4e487b7100000000000000000000000000000000000000000000000000000000600052603260045260246000fd5b7f4e487b7100000000000000000000000000000000000000000000000000000000600052602260045260246000fd5b60006002820490506001821680612c3957607f821691505b602082108103612c4c57612c4b612bf2565b5b50919050565b600081905092915050565b60008190508160005260206000209050919050565b60008154612c7f81612c21565b612c898186612c52565b94506001821660008114612ca45760018114612cb957612cec565b60ff1983168652811515820286019350612cec565b612cc285612c5d565b60005b83811015612ce457815481890152600182019150602081019050612cc5565b838801955050505b50505092915050565b6000612d018284612c72565b915081905092915050565b6000612d178261206b565b612d218185612c52565b9350612d31818560208601612087565b80840191505092915050565b6000612d498284612d0c565b915081905092915050565b7f50726f64756374206e6f7420666f756e64000000000000000000000000000000600082015250565b6000612d8a6011836124ab565b9150612d9582612d54565b602082019050919050565b60006020820190508181036000830152612db981612d7d565b9050919050565b7f50726f6475637420494420616c72656164792072656769737465726564000000600082015250565b6000612df6601d836124ab565b9150612e0182612dc0565b602082019050919050565b60006020820190508181036000830152612e2581612de9565b9050919050565b7f53657269616c204e756d62657220616c72656164792072656769737465726564600082015250565b6000612e626020836124ab565b9150612e6d82612e2c565b602082019050919050565b60006020820190508181036000830152612e9181612e55565b9050919050565b7f496e76616c69642077617272616e747920646174657300000000000000000000600082015250565b6000612ece6016836124ab565b9150612ed982612e98565b602082019050919050565b60006020820190508181036000830152612efd81612ec1565b9050919050565b60006020601f8301049050919050565b600082821b905092915050565b600060088302612f517fffffffffffffffffffffffffffffffffffffffffffffffffffffffffffffffff82612f14565b612f5b8683612f14565b95508019841693508086168417925050509392505050565b6000819050919050565b6000612f98612f93612f8e846120fb565b612f73565b6120fb565b9050919050565b6000819050919050565b612fb283612f7d565b612fc6612fbe82612f9f565b848454612f21565b825550505050565b600090565b612fdb612fce565b612fe6818484612fa9565b505050565b5b8181101561300a57612fff600082612fd3565b600181019050612fec565b5050565b601f82111561304f5761302081612c5d565b61302984612f04565b81016020851015613038578190505b61304c61304485612f04565b830182612feb565b50505b505050565b600082821c905092915050565b600061307260001984600802613054565b1980831691505092915050565b600061308b8383613061565b9150826002028217905092915050565b6130a48261206b565b67ffffffffffffffff8111156130bd576130bc612328565b5b6130c78254612c21565b6130d282828561300e565b600060209050601f83116001811461310557600084156130f3578287015190505b6130fd858261307f565b865550613165565b601f19841661311386612c5d565b60005b8281101561313b57848901518255600182019150602085019450602081019050613116565b868310156131585784890151613154601f891682613061565b8355505b6001600288020188555050505b505050505050565b600060208201905061318260008301846129f3565b92915050565b7f4e487b7100000000000000000000000000000000000000000000000000000000600052601160045260246000fd5b60006131c2826120fb565b91506131cd836120fb565b92508282039050818111156131e5576131e4613188565b5b92915050565b7f4e487b7100000000000000000000000000000000000000000000000000000000600052601260045260246000fd5b6000613225826120fb565b9150613230836120fb565b9250826132405761323f6131eb565b5b828204905092915050565b7f4e6f7420746865206f776e657200000000000000000000000000000000000000600082015250565b6000613281600d836124ab565b915061328c8261324b565b602082019050919050565b600060208201905081810360008301526132b081613274565b9050919050565b7f496e76616c6964206e6577206f776e6572206164647265737300000000000000600082015250565b60006132ed6019836124ab565b91506132f8826132b7565b602082019050919050565b6000602082019050818103600083015261331c816132e0565b905091905056fea2646970667358221220ca775209dfffe727e376159b11cfa9849a440fc110befc22de23aa6f2fbd38a164736f6c63430008180033",
  "linkReferences": {},
  "deployedLinkReferences": {}
}