{
  "_format": "hh-sol-artifact-1",
  "contractName": "Warranty",
  "sourceName": "contracts/Warranty.sol",
  "abi": [
    {
      "anonymous": false,
      "inputs": [
        {
          "indexed": true,
          "internalType": "string",
          "name": "productId",
          "type": "string"
        },
        {
          "indexed": true,
          "internalType": "address",
          "name": "oldOwner",
          "type": "address"
        },
        {
          "indexed": true,
          "internalType": "address",
          "name": "newOwner",
          "type": "address"
        },
        {
          "indexed": false,
          "internalType": "uint256",
          "name": "timestamp",
          "type": "uint256"
        }
      ],
      "name": "OwnershipTransferred",
      "type": "event"
    },
    {
      "anonymous": false,
      "inputs": [
        {
          "indexed": true,
          "internalType": "string",
          "name": "productId",
          "type": "string"
        },
        {
          "indexed": true,
          "internalType": "address",
          "name": "owner",
          "type": "address"
        },
        {
          "indexed": false,
          "internalType": "uint256",
          "name": "timestamp",
          "type": "uint256"
        }
      ],
      "name": "ProductRegistered",
      "type": "event"
    },
    {
      "inputs": [],
      "name": "getAllProductIds",
      "outputs": [
        {
          "internalType": "string[]",
          "name": "",
          "type": "string[]"
        }
      ],
      "stateMutability": "view",
      "type": "function"
    },
    {
      "inputs": [],
      "name": "getAllProducts",
      "outputs": [
        {
          "components": [
            {
              "internalType": "string",
              "name": "productId",
              "type": "string"
            },
            {
              "internalType": "string",
              "name": "productName",
              "type": "string"
            },
            {
              "internalType": "uint256",
              "name": "warrantyStart",
              "type": "uint256"
            },
            {
              "internalType": "uint256",
              "name": "warrantyEnd",
              "type": "uint256"
            },
            {
              "internalType": "address",
              "name": "ownerAddress",
              "type": "address"
            },
            {
              "internalType": "string",
              "name": "ownerName",
              "type": "string"
            },
            {
              "internalType": "uint256",
              "name": "createdAt",
              "type": "uint256"
            }
          ],
          "internalType": "struct Warranty.Product[]",
          "name": "",
          "type": "tuple[]"
        }
      ],
      "stateMutability": "view",
      "type": "function"
    },
    {
      "inputs": [
        {
          "internalType": "string",
          "name": "_productId",
          "type": "string"
        }
      ],
      "name": "getProduct",
      "outputs": [
        {
          "internalType": "string",
          "name": "name",
          "type": "string"
        },
        {
          "internalType": "string",
          "name": "ownerName",
          "type": "string"
        },
        {
          "internalType": "address",
          "name": "owner",
          "type": "address"
        },
        {
          "internalType": "uint256",
          "name": "start",
          "type": "uint256"
        },
        {
          "internalType": "uint256",
          "name": "end",
          "type": "uint256"
        }
      ],
      "stateMutability": "view",
      "type": "function"
    },
    {
      "inputs": [
        {
          "internalType": "string",
          "name": "_productId",
          "type": "string"
        },
        {
          "internalType": "string",
          "name": "_productName",
          "type": "string"
        },
        {
          "internalType": "uint256",
          "name": "_warrantyStart",
          "type": "uint256"
        },
        {
          "internalType": "uint256",
          "name": "_warrantyEnd",
          "type": "uint256"
        },
        {
          "internalType": "string",
          "name": "_ownerName",
          "type": "string"
        }
      ],
      "name": "registerProduct",
      "outputs": [],
      "stateMutability": "nonpayable",
      "type": "function"
    },
    {
      "inputs": [
        {
          "internalType": "string",
          "name": "_productId",
          "type": "string"
        },
        {
          "internalType": "address",
          "name": "_newOwner",
          "type": "address"
        },
        {
          "internalType": "string",
          "name": "_newOwnerName",
          "type": "string"
        }
      ],
      "name": "transferOwnership",
      "outputs": [],
      "stateMutability": "nonpayable",
      "type": "function"
    },
    {
      "inputs": [
        {
          "internalType": "string",
          "name": "_productId",
          "type": "string"
        }
      ],
      "name": "verifyOwnership",
      "outputs": [
        {
          "internalType": "address",
          "name": "ownerAddress",
          "type": "address"
        },
        {
          "internalType": "string",
          "name": "ownerName",
          "type": "string"
        },
        {
          "components": [
            {
              "internalType": "address",
              "name": "ownerAddress",
              "type": "address"
            },
            {
              "internalType": "string",
              "name": "ownerName",
              "type": "string"
            },
            {
              "internalType": "uint256",
              "name": "transferDate",
              "type": "uint256"
            }
          ],
          "internalType": "struct Warranty.OwnershipRecord[]",
          "name": "history",
          "type": "tuple[]"
        }
      ],
      "stateMutability": "view",
      "type": "function"
    },
    {
      "inputs": [
        {
          "internalType": "string",
          "name": "_productId",
          "type": "string"
        }
      ],
      "name": "verifyWarranty",
      "outputs": [
        {
          "internalType": "string",
          "name": "productName",
          "type": "string"
        },
        {
          "internalType": "uint256",
          "name": "warrantyStart",
          "type": "uint256"
        },
        {
          "internalType": "uint256",
          "name": "warrantyEnd",
          "type": "uint256"
        },
        {
          "internalType": "bool",
          "name": "isValid",
          "type": "bool"
        },
        {
          "internalType": "uint256",
          "name": "daysRemaining",
          "type": "uint256"
        },
        {
          "internalType": "address",
          "name": "ownerAddress",
          "type": "address"
        },
        {
          "internalType": "string",
          "name": "ownerName",
          "type": "string"
        }
      ],
      "stateMutability": "view",
      "type": "function"
    }
  ],
  "bytecode": "0x608060405234801561001057600080fd5b506127bf806100206000396000f3fe608060405234801561001057600080fd5b506004361061007d5760003560e01c806357a9666e1161005b57806357a9666e146100ee578063663c01af1461010a57806368111cce14610128578063baa526a81461015c5761007d565b806302ee3a5214610082578063293f854e146100a057806335764552146100d2575b600080fd5b61008a610192565b6040516100979190611993565b60405180910390f35b6100ba60048036038101906100b59190611afe565b6104a4565b6040516100c993929190611cb2565b60405180910390f35b6100ec60048036038101906100e79190611d23565b6108eb565b005b61010860048036038101906101039190611dda565b610c5f565b005b610112610fe2565b60405161011f9190611f6b565b60405180910390f35b610142600480360381019061013d9190611afe565b6110bb565b604051610153959493929190611f9c565b60405180910390f35b61017660048036038101906101719190611afe565b6113b1565b6040516101899796959493929190612018565b60405180910390f35b6060600060038054905067ffffffffffffffff8111156101b5576101b46119d3565b5b6040519080825280602002602001820160405280156101ee57816020015b6101db6116ea565b8152602001906001900390816101d35790505b50905060005b60038054905081101561049c5760006003828154811061021757610216612095565b5b9060005260206000200160405161022e91906121c7565b90815260200160405180910390206040518060e0016040529081600082018054610257906120f3565b80601f0160208091040260200160405190810160405280929190818152602001828054610283906120f3565b80156102d05780601f106102a5576101008083540402835291602001916102d0565b820191906000526020600020905b8154815290600101906020018083116102b357829003601f168201915b505050505081526020016001820180546102e9906120f3565b80601f0160208091040260200160405190810160405280929190818152602001828054610315906120f3565b80156103625780601f1061033757610100808354040283529160200191610362565b820191906000526020600020905b81548152906001019060200180831161034557829003601f168201915b5050505050815260200160028201548152602001600382015481526020016004820160009054906101000a900473ffffffffffffffffffffffffffffffffffffffff1673ffffffffffffffffffffffffffffffffffffffff1673ffffffffffffffffffffffffffffffffffffffff1681526020016005820180546103e5906120f3565b80601f0160208091040260200160405190810160405280929190818152602001828054610411906120f3565b801561045e5780601f106104335761010080835404028352916020019161045e565b820191906000526020600020905b81548152906001019060200180831161044157829003601f168201915b5050505050815260200160068201548152505082828151811061048457610483612095565b5b602002602001018190525080806001019150506101f4565b508091505090565b60006060806002846040516104b9919061220f565b908152602001604051809103902060009054906101000a900460ff16610514576040517f08c379a000000000000000000000000000000000000000000000000000000000815260040161050b90612272565b60405180910390fd5b60008085604051610525919061220f565b90815260200160405180910390206040518060e001604052908160008201805461054e906120f3565b80601f016020809104026020016040519081016040528092919081815260200182805461057a906120f3565b80156105c75780601f1061059c576101008083540402835291602001916105c7565b820191906000526020600020905b8154815290600101906020018083116105aa57829003601f168201915b505050505081526020016001820180546105e0906120f3565b80601f016020809104026020016040519081016040528092919081815260200182805461060c906120f3565b80156106595780601f1061062e57610100808354040283529160200191610659565b820191906000526020600020905b81548152906001019060200180831161063c57829003601f168201915b5050505050815260200160028201548152602001600382015481526020016004820160009054906101000a900473ffffffffffffffffffffffffffffffffffffffff1673ffffffffffffffffffffffffffffffffffffffff1673ffffffffffffffffffffffffffffffffffffffff1681526020016005820180546106dc906120f3565b80601f0160208091040260200160405190810160405280929190818152602001828054610708906120f3565b80156107555780601f1061072a57610100808354040283529160200191610755565b820191906000526020600020905b81548152906001019060200180831161073857829003601f168201915b50505050508152602001600682015481525050905080608001518160a00151600187604051610784919061220f565b908152602001604051809103902080805480602002602001604051908101604052809291908181526020016000905b828210156108d757838290600052602060002090600302016040518060600160405290816000820160009054906101000a900473ffffffffffffffffffffffffffffffffffffffff1673ffffffffffffffffffffffffffffffffffffffff1673ffffffffffffffffffffffffffffffffffffffff16815260200160018201805461083c906120f3565b80601f0160208091040260200160405190810160405280929190818152602001828054610868906120f3565b80156108b55780601f1061088a576101008083540402835291602001916108b5565b820191906000526020600020905b81548152906001019060200180831161089857829003601f168201915b50505050508152602001600282015481525050815260200190600101906107b3565b505050509050935093509350509193909250565b6002836040516108fb919061220f565b908152602001604051809103902060009054906101000a900460ff16610956576040517f08c379a000000000000000000000000000000000000000000000000000000000815260040161094d90612272565b60405180910390fd5b60008084604051610967919061220f565b908152602001604051809103902090508060040160009054906101000a900473ffffffffffffffffffffffffffffffffffffffff1673ffffffffffffffffffffffffffffffffffffffff163373ffffffffffffffffffffffffffffffffffffffff1614610a09576040517f08c379a0000000000000000000000000000000000000000000000000000000008152600401610a00906122de565b60405180910390fd5b600073ffffffffffffffffffffffffffffffffffffffff168373ffffffffffffffffffffffffffffffffffffffff1603610a78576040517f08c379a0000000000000000000000000000000000000000000000000000000008152600401610a6f9061234a565b60405180910390fd5b60008160040160009054906101000a900473ffffffffffffffffffffffffffffffffffffffff169050838260040160006101000a81548173ffffffffffffffffffffffffffffffffffffffff021916908373ffffffffffffffffffffffffffffffffffffffff16021790555082826005019081610af59190612501565b50600060405180606001604052808673ffffffffffffffffffffffffffffffffffffffff168152602001858152602001428152509050600186604051610b3b919061220f565b908152602001604051809103902081908060018154018082558091505060019003906000526020600020906003020160009091909190915060008201518160000160006101000a81548173ffffffffffffffffffffffffffffffffffffffff021916908373ffffffffffffffffffffffffffffffffffffffff1602179055506020820151816001019081610bcf9190612501565b506040820151816002015550508473ffffffffffffffffffffffffffffffffffffffff168273ffffffffffffffffffffffffffffffffffffffff1687604051610c18919061220f565b60405180910390207fe9bf8dbaa7eb0b6910401512e60afcae7734db09df0b7291b4a16e630d796e5642604051610c4f91906125d3565b60405180910390a4505050505050565b600285604051610c6f919061220f565b908152602001604051809103902060009054906101000a900460ff1615610ccb576040517f08c379a0000000000000000000000000000000000000000000000000000000008152600401610cc29061263a565b60405180910390fd5b828211610d0d576040517f08c379a0000000000000000000000000000000000000000000000000000000008152600401610d04906126a6565b60405180910390fd5b60006040518060e001604052808781526020018681526020018581526020018481526020013373ffffffffffffffffffffffffffffffffffffffff16815260200183815260200142815250905080600087604051610d6b919061220f565b90815260200160405180910390206000820151816000019081610d8e9190612501565b506020820151816001019081610da49190612501565b50604082015181600201556060820151816003015560808201518160040160006101000a81548173ffffffffffffffffffffffffffffffffffffffff021916908373ffffffffffffffffffffffffffffffffffffffff16021790555060a0820151816005019081610e159190612501565b5060c082015181600601559050506001600287604051610e35919061220f565b908152602001604051809103902060006101000a81548160ff021916908315150217905550600386908060018154018082558091505060019003906000526020600020016000909190919091509081610e8e9190612501565b50600060405180606001604052803373ffffffffffffffffffffffffffffffffffffffff168152602001848152602001428152509050600187604051610ed4919061220f565b908152602001604051809103902081908060018154018082558091505060019003906000526020600020906003020160009091909190915060008201518160000160006101000a81548173ffffffffffffffffffffffffffffffffffffffff021916908373ffffffffffffffffffffffffffffffffffffffff1602179055506020820151816001019081610f689190612501565b506040820151816002015550503373ffffffffffffffffffffffffffffffffffffffff1687604051610f9a919061220f565b60405180910390207f69a364a36de428def83b9136062f8e6214b44410a34f51f779f06dc745de8fca42604051610fd191906125d3565b60405180910390a350505050505050565b60606003805480602002602001604051908101604052809291908181526020016000905b828210156110b2578382906000526020600020018054611025906120f3565b80601f0160208091040260200160405190810160405280929190818152602001828054611051906120f3565b801561109e5780601f106110735761010080835404028352916020019161109e565b820191906000526020600020905b81548152906001019060200180831161108157829003601f168201915b505050505081526020019060010190611006565b50505050905090565b60608060008060006002866040516110d3919061220f565b908152602001604051809103902060009054906101000a900460ff1661112e576040517f08c379a000000000000000000000000000000000000000000000000000000000815260040161112590612272565b60405180910390fd5b6000808760405161113f919061220f565b90815260200160405180910390206040518060e0016040529081600082018054611168906120f3565b80601f0160208091040260200160405190810160405280929190818152602001828054611194906120f3565b80156111e15780601f106111b6576101008083540402835291602001916111e1565b820191906000526020600020905b8154815290600101906020018083116111c457829003601f168201915b505050505081526020016001820180546111fa906120f3565b80601f0160208091040260200160405190810160405280929190818152602001828054611226906120f3565b80156112735780601f1061124857610100808354040283529160200191611273565b820191906000526020600020905b81548152906001019060200180831161125657829003601f168201915b5050505050815260200160028201548152602001600382015481526020016004820160009054906101000a900473ffffffffffffffffffffffffffffffffffffffff1673ffffffffffffffffffffffffffffffffffffffff1673ffffffffffffffffffffffffffffffffffffffff1681526020016005820180546112f6906120f3565b80601f0160208091040260200160405190810160405280929190818152602001828054611322906120f3565b801561136f5780601f106113445761010080835404028352916020019161136f565b820191906000526020600020905b81548152906001019060200180831161135257829003601f168201915b50505050508152602001600682015481525050905080602001518160a00151826080015183604001518460600151955095509550955095505091939590929450565b6060600080600080600060606002886040516113cd919061220f565b908152602001604051809103902060009054906101000a900460ff16611428576040517f08c379a000000000000000000000000000000000000000000000000000000000815260040161141f90612272565b60405180910390fd5b60008089604051611439919061220f565b90815260200160405180910390206040518060e0016040529081600082018054611462906120f3565b80601f016020809104026020016040519081016040528092919081815260200182805461148e906120f3565b80156114db5780601f106114b0576101008083540402835291602001916114db565b820191906000526020600020905b8154815290600101906020018083116114be57829003601f168201915b505050505081526020016001820180546114f4906120f3565b80601f0160208091040260200160405190810160405280929190818152602001828054611520906120f3565b801561156d5780601f106115425761010080835404028352916020019161156d565b820191906000526020600020905b81548152906001019060200180831161155057829003601f168201915b5050505050815260200160028201548152602001600382015481526020016004820160009054906101000a900473ffffffffffffffffffffffffffffffffffffffff1673ffffffffffffffffffffffffffffffffffffffff1673ffffffffffffffffffffffffffffffffffffffff1681526020016005820180546115f0906120f3565b80601f016020809104026020016040519081016040528092919081815260200182805461161c906120f3565b80156116695780601f1061163e57610100808354040283529160200191611669565b820191906000526020600020905b81548152906001019060200180831161164c57829003601f168201915b505050505081526020016006820154815250509050600081606001514211159050600081156116b357620151804284606001516116a691906126f5565b6116b09190612758565b90505b826020015183604001518460600151848487608001518860a001519950995099509950995099509950505050919395979092949650565b6040518060e0016040528060608152602001606081526020016000815260200160008152602001600073ffffffffffffffffffffffffffffffffffffffff16815260200160608152602001600081525090565b600081519050919050565b600082825260208201905092915050565b6000819050602082019050919050565b600081519050919050565b600082825260208201905092915050565b60005b838110156117a3578082015181840152602081019050611788565b60008484015250505050565b6000601f19601f8301169050919050565b60006117cb82611769565b6117d58185611774565b93506117e5818560208601611785565b6117ee816117af565b840191505092915050565b6000819050919050565b61180c816117f9565b82525050565b600073ffffffffffffffffffffffffffffffffffffffff82169050919050565b600061183d82611812565b9050919050565b61184d81611832565b82525050565b600060e083016000830151848203600086015261187082826117c0565b9150506020830151848203602086015261188a82826117c0565b915050604083015161189f6040860182611803565b5060608301516118b26060860182611803565b5060808301516118c56080860182611844565b5060a083015184820360a08601526118dd82826117c0565b91505060c08301516118f260c0860182611803565b508091505092915050565b60006119098383611853565b905092915050565b6000602082019050919050565b60006119298261173d565b6119338185611748565b93508360208202850161194585611759565b8060005b85811015611981578484038952815161196285826118fd565b945061196d83611911565b925060208a01995050600181019050611949565b50829750879550505050505092915050565b600060208201905081810360008301526119ad818461191e565b905092915050565b6000604051905090565b600080fd5b600080fd5b600080fd5b600080fd5b7f4e487b7100000000000000000000000000000000000000000000000000000000600052604160045260246000fd5b611a0b826117af565b810181811067ffffffffffffffff82111715611a2a57611a296119d3565b5b80604052505050565b6000611a3d6119b5565b9050611a498282611a02565b919050565b600067ffffffffffffffff821115611a6957611a686119d3565b5b611a72826117af565b9050602081019050919050565b82818337600083830152505050565b6000611aa1611a9c84611a4e565b611a33565b905082815260208101848484011115611abd57611abc6119ce565b5b611ac8848285611a7f565b509392505050565b600082601f830112611ae557611ae46119c9565b5b8135611af5848260208601611a8e565b91505092915050565b600060208284031215611b1457611b136119bf565b5b600082013567ffffffffffffffff811115611b3257611b316119c4565b5b611b3e84828501611ad0565b91505092915050565b611b5081611832565b82525050565b600082825260208201905092915050565b6000611b7282611769565b611b7c8185611b56565b9350611b8c818560208601611785565b611b95816117af565b840191505092915050565b600081519050919050565b600082825260208201905092915050565b6000819050602082019050919050565b6000606083016000830151611be46000860182611844565b5060208301518482036020860152611bfc82826117c0565b9150506040830151611c116040860182611803565b508091505092915050565b6000611c288383611bcc565b905092915050565b6000602082019050919050565b6000611c4882611ba0565b611c528185611bab565b935083602082028501611c6485611bbc565b8060005b85811015611ca05784840389528151611c818582611c1c565b9450611c8c83611c30565b925060208a01995050600181019050611c68565b50829750879550505050505092915050565b6000606082019050611cc76000830186611b47565b8181036020830152611cd98185611b67565b90508181036040830152611ced8184611c3d565b9050949350505050565b611d0081611832565b8114611d0b57600080fd5b50565b600081359050611d1d81611cf7565b92915050565b600080600060608486031215611d3c57611d3b6119bf565b5b600084013567ffffffffffffffff811115611d5a57611d596119c4565b5b611d6686828701611ad0565b9350506020611d7786828701611d0e565b925050604084013567ffffffffffffffff811115611d9857611d976119c4565b5b611da486828701611ad0565b9150509250925092565b611db7816117f9565b8114611dc257600080fd5b50565b600081359050611dd481611dae565b92915050565b600080600080600060a08688031215611df657611df56119bf565b5b600086013567ffffffffffffffff811115611e1457611e136119c4565b5b611e2088828901611ad0565b955050602086013567ffffffffffffffff811115611e4157611e406119c4565b5b611e4d88828901611ad0565b9450506040611e5e88828901611dc5565b9350506060611e6f88828901611dc5565b925050608086013567ffffffffffffffff811115611e9057611e8f6119c4565b5b611e9c88828901611ad0565b9150509295509295909350565b600081519050919050565b600082825260208201905092915050565b6000819050602082019050919050565b6000611ee183836117c0565b905092915050565b6000602082019050919050565b6000611f0182611ea9565b611f0b8185611eb4565b935083602082028501611f1d85611ec5565b8060005b85811015611f595784840389528151611f3a8582611ed5565b9450611f4583611ee9565b925060208a01995050600181019050611f21565b50829750879550505050505092915050565b60006020820190508181036000830152611f858184611ef6565b905092915050565b611f96816117f9565b82525050565b600060a0820190508181036000830152611fb68188611b67565b90508181036020830152611fca8187611b67565b9050611fd96040830186611b47565b611fe66060830185611f8d565b611ff36080830184611f8d565b9695505050505050565b60008115159050919050565b61201281611ffd565b82525050565b600060e0820190508181036000830152612032818a611b67565b90506120416020830189611f8d565b61204e6040830188611f8d565b61205b6060830187612009565b6120686080830186611f8d565b61207560a0830185611b47565b81810360c08301526120878184611b67565b905098975050505050505050565b7f4e487b7100000000000000000000000000000000000000000000000000000000600052603260045260246000fd5b7f4e487b7100000000000000000000000000000000000000000000000000000000600052602260045260246000fd5b6000600282049050600182168061210b57607f821691505b60208210810361211e5761211d6120c4565b5b50919050565b600081905092915050565b60008190508160005260206000209050919050565b60008154612151816120f3565b61215b8186612124565b94506001821660008114612176576001811461218b576121be565b60ff19831686528115158202860193506121be565b6121948561212f565b60005b838110156121b657815481890152600182019150602081019050612197565b838801955050505b50505092915050565b60006121d38284612144565b915081905092915050565b60006121e982611769565b6121f38185612124565b9350612203818560208601611785565b80840191505092915050565b600061221b82846121de565b915081905092915050565b7f50726f64756374206e6f7420666f756e64000000000000000000000000000000600082015250565b600061225c601183611b56565b915061226782612226565b602082019050919050565b6000602082019050818103600083015261228b8161224f565b9050919050565b7f4f6e6c79206f776e65722063616e207472616e73666572000000000000000000600082015250565b60006122c8601783611b56565b91506122d382612292565b602082019050919050565b600060208201905081810360008301526122f7816122bb565b9050919050565b7f496e76616c6964206e6577206f776e6572206164647265737300000000000000600082015250565b6000612334601983611b56565b915061233f826122fe565b602082019050919050565b6000602082019050818103600083015261236381612327565b9050919050565b60006020601f8301049050919050565b600082821b905092915050565b6000600883026123b77fffffffffffffffffffffffffffffffffffffffffffffffffffffffffffffffff8261237a565b6123c1868361237a565b95508019841693508086168417925050509392505050565b6000819050919050565b60006123fe6123f96123f4846117f9565b6123d9565b6117f9565b9050919050565b6000819050919050565b612418836123e3565b61242c61242482612405565b848454612387565b825550505050565b600090565b612441612434565b61244c81848461240f565b505050565b5b8181101561247057612465600082612439565b600181019050612452565b5050565b601f8211156124b5576124868161212f565b61248f8461236a565b8101602085101561249e578190505b6124b26124aa8561236a565b830182612451565b50505b505050565b600082821c905092915050565b60006124d8600019846008026124ba565b1980831691505092915050565b60006124f183836124c7565b9150826002028217905092915050565b61250a82611769565b67ffffffffffffffff811115612523576125226119d3565b5b61252d82546120f3565b612538828285612474565b600060209050601f83116001811461256b5760008415612559578287015190505b61256385826124e5565b8655506125cb565b601f1984166125798661212f565b60005b828110156125a15784890151825560018201915060208501945060208101905061257c565b868310156125be57848901516125ba601f8916826124c7565b8355505b6001600288020188555050505b505050505050565b60006020820190506125e86000830184611f8d565b92915050565b7f50726f6475637420494420616c72656164792072656769737465726564000000600082015250565b6000612624601d83611b56565b915061262f826125ee565b602082019050919050565b6000602082019050818103600083015261265381612617565b9050919050565b7f496e76616c69642077617272616e747920646174657300000000000000000000600082015250565b6000612690601683611b56565b915061269b8261265a565b602082019050919050565b600060208201905081810360008301526126bf81612683565b9050919050565b7f4e487b7100000000000000000000000000000000000000000000000000000000600052601160045260246000fd5b6000612700826117f9565b915061270b836117f9565b9250828203905081811115612723576127226126c6565b5b92915050565b7f4e487b7100000000000000000000000000000000000000000000000000000000600052601260045260246000fd5b6000612763826117f9565b915061276e836117f9565b92508261277e5761277d612729565b5b82820490509291505056fea26469706673582212204767fe203c67cd0ea4219e16aed6454afe877781c8fbe766555aab2fae6c336164736f6c63430008180033",
  "linkReferences": {},
  "deployedLinkReferences": {}
}