{
  "_format": "hh-sol-artifact-1",
  "contractName": "Warranty",
  "sourceName": "contracts/Warranty.sol",
  "abi": [
    {
      "anonymous": false,
      "inputs": [
        {
          "indexed": true,
          "internalType": "string",
          "name": "productId",
          "type": "string"
        },
        {
          "indexed": true,
          "internalType": "address",
          "name": "oldOwner",
          "type": "address"
        },
        {
          "indexed": true,
          "internalType": "address",
          "name": "newOwner",
          "type": "address"
        },
        {
          "indexed": false,
          "internalType": "uint256",
          "name": "timestamp",
          "type": "uint256"
        }
      ],
      "name": "OwnershipTransferred",
      "type": "event"
    },
    {
      "anonymous": false,
      "inputs": [
        {
          "indexed": true,
          "internalType": "string",
          "name": "productId",
          "type": "string"
        },
        {
          "indexed": true,
          "internalType": "address",
          "name": "owner",
          "type": "address"
        },
        {
          "indexed": false,
          "internalType": "uint256",
          "name": "timestamp",
          "type": "uint256"
        }
      ],
      "name": "ProductRegistered",
      "type": "event"
    },
    {
      "inputs": [],
      "name": "getAllProductIds",
      "outputs": [
        {
          "internalType": "string[]",
          "name": "",
          "type": "string[]"
        }
      ],
      "stateMutability": "view",
      "type": "function"
    },
    {
      "inputs": [],
      "name": "getAllProducts",
      "outputs": [
        {
          "components": [
            {
              "internalType": "string",
              "name": "productId",
              "type": "string"
            },
            {
              "internalType": "string",
              "name": "productName",
              "type": "string"
            },
            {
              "internalType": "uint256",
              "name": "warrantyStart",
              "type": "uint256"
            },
            {
              "internalType": "uint256",
              "name": "warrantyEnd",
              "type": "uint256"
            },
            {
              "internalType": "address",
              "name": "ownerAddress",
              "type": "address"
            },
            {
              "internalType": "string",
              "name": "ownerName",
              "type": "string"
            },
            {
              "internalType": "string",
              "name": "serialNumber",
              "type": "string"
            },
            {
              "internalType": "uint256",
              "name": "createdAt",
              "type": "uint256"
            }
          ],
          "internalType": "struct Warranty.Product[]",
          "name": "",
          "type": "tuple[]"
        }
      ],
      "stateMutability": "view",
      "type": "function"
    },
    {
      "inputs": [
        {
          "internalType": "string",
          "name": "_productId",
          "type": "string"
        }
      ],
      "name": "getProduct",
      "outputs": [
        {
          "internalType": "string",
          "name": "name",
          "type": "string"
        },
        {
          "internalType": "string",
          "name": "ownerName",
          "type": "string"
        },
        {
          "internalType": "address",
          "name": "owner",
          "type": "address"
        },
        {
          "internalType": "uint256",
          "name": "start",
          "type": "uint256"
        },
        {
          "internalType": "uint256",
          "name": "end",
          "type": "uint256"
        }
      ],
      "stateMutability": "view",
      "type": "function"
    },
    {
      "inputs": [
        {
          "internalType": "string",
          "name": "_productId",
          "type": "string"
        },
        {
          "internalType": "string",
          "name": "_productName",
          "type": "string"
        },
        {
          "internalType": "uint256",
          "name": "_warrantyStart",
          "type": "uint256"
        },
        {
          "internalType": "uint256",
          "name": "_warrantyEnd",
          "type": "uint256"
        },
        {
          "internalType": "string",
          "name": "_ownerName",
          "type": "string"
        },
        {
          "internalType": "string",
          "name": "_serialNumber",
          "type": "string"
        }
      ],
      "name": "registerProduct",
      "outputs": [],
      "stateMutability": "nonpayable",
      "type": "function"
    },
    {
      "inputs": [
        {
          "internalType": "string",
          "name": "_productId",
          "type": "string"
        },
        {
          "internalType": "address",
          "name": "_newOwner",
          "type": "address"
        },
        {
          "internalType": "string",
          "name": "_newOwnerName",
          "type": "string"
        }
      ],
      "name": "transferOwnership",
      "outputs": [],
      "stateMutability": "nonpayable",
      "type": "function"
    },
    {
      "inputs": [
        {
          "internalType": "string",
          "name": "_productId",
          "type": "string"
        }
      ],
      "name": "verifyOwnership",
      "outputs": [
        {
          "internalType": "address",
          "name": "ownerAddress",
          "type": "address"
        },
        {
          "internalType": "string",
          "name": "ownerName",
          "type": "string"
        },
        {
          "components": [
            {
              "internalType": "address",
              "name": "ownerAddress",
              "type": "address"
            },
            {
              "internalType": "string",
              "name": "ownerName",
              "type": "string"
            },
            {
              "internalType": "uint256",
              "name": "transferDate",
              "type": "uint256"
            }
          ],
          "internalType": "struct Warranty.OwnershipRecord[]",
          "name": "history",
          "type": "tuple[]"
        }
      ],
      "stateMutability": "view",
      "type": "function"
    },
    {
      "inputs": [
        {
          "internalType": "string",
          "name": "_productId",
          "type": "string"
        }
      ],
      "name": "verifyWarranty",
      "outputs": [
        {
          "internalType": "string",
          "name": "productName",
          "type": "string"
        },
        {
          "internalType": "uint256",
          "name": "warrantyStart",
          "type": "uint256"
        },
        {
          "internalType": "uint256",
          "name": "warrantyEnd",
          "type": "uint256"
        },
        {
          "internalType": "bool",
          "name": "isValid",
          "type": "bool"
        },
        {
          "internalType": "uint256",
          "name": "daysRemaining",
          "type": "uint256"
        },
        {
          "internalType": "address",
          "name": "ownerAddress",
          "type": "address"
        },
        {
          "internalType": "string",
          "name": "ownerName",
          "type": "string"
        }
      ],
      "stateMutability": "view",
      "type": "function"
    }
  ],
  "bytecode": "0x608060405234801561001057600080fd5b50612bcd806100206000396000f3fe608060405234801561001057600080fd5b506004361061007d5760003560e01c8063663c01af1161005b578063663c01af146100ee57806368111cce1461010c578063baa526a814610140578063cbd9cc62146101765761007d565b806302ee3a5214610082578063293f854e146100a057806335764552146100d2575b600080fd5b61008a610192565b6040516100979190611d07565b60405180910390f35b6100ba60048036038101906100b59190611e72565b610537565b6040516100c993929190612026565b60405180910390f35b6100ec60048036038101906100e79190612097565b610a11565b005b6100f6610d85565b60405161010391906121e4565b60405180910390f35b61012660048036038101906101219190611e72565b610e5e565b604051610137959493929190612215565b60405180910390f35b61015a60048036038101906101559190611e72565b6111e7565b60405161016d9796959493929190612291565b60405180910390f35b610190600480360381019061018b919061233a565b6115b3565b005b6060600060048054905067ffffffffffffffff8111156101b5576101b4611d47565b5b6040519080825280602002602001820160405280156101ee57816020015b6101db611a3b565b8152602001906001900390816101d35790505b50905060005b60048054905081101561052f5760006004828154811061021757610216612437565b5b9060005260206000200160405161022e9190612569565b90815260200160405180910390206040518061010001604052908160008201805461025890612495565b80601f016020809104026020016040519081016040528092919081815260200182805461028490612495565b80156102d15780601f106102a6576101008083540402835291602001916102d1565b820191906000526020600020905b8154815290600101906020018083116102b457829003601f168201915b505050505081526020016001820180546102ea90612495565b80601f016020809104026020016040519081016040528092919081815260200182805461031690612495565b80156103635780601f1061033857610100808354040283529160200191610363565b820191906000526020600020905b81548152906001019060200180831161034657829003601f168201915b5050505050815260200160028201548152602001600382015481526020016004820160009054906101000a900473ffffffffffffffffffffffffffffffffffffffff1673ffffffffffffffffffffffffffffffffffffffff1673ffffffffffffffffffffffffffffffffffffffff1681526020016005820180546103e690612495565b80601f016020809104026020016040519081016040528092919081815260200182805461041290612495565b801561045f5780601f106104345761010080835404028352916020019161045f565b820191906000526020600020905b81548152906001019060200180831161044257829003601f168201915b5050505050815260200160068201805461047890612495565b80601f01602080910402602001604051908101604052809291908181526020018280546104a490612495565b80156104f15780601f106104c6576101008083540402835291602001916104f1565b820191906000526020600020905b8154815290600101906020018083116104d457829003601f168201915b5050505050815260200160078201548152505082828151811061051757610516612437565b5b602002602001018190525080806001019150506101f4565b508091505090565b600060608060028460405161054c91906125b1565b908152602001604051809103902060009054906101000a900460ff166105a7576040517f08c379a000000000000000000000000000000000000000000000000000000000815260040161059e90612614565b60405180910390fd5b600080856040516105b891906125b1565b9081526020016040518091039020604051806101000160405290816000820180546105e290612495565b80601f016020809104026020016040519081016040528092919081815260200182805461060e90612495565b801561065b5780601f106106305761010080835404028352916020019161065b565b820191906000526020600020905b81548152906001019060200180831161063e57829003601f168201915b5050505050815260200160018201805461067490612495565b80601f01602080910402602001604051908101604052809291908181526020018280546106a090612495565b80156106ed5780601f106106c2576101008083540402835291602001916106ed565b820191906000526020600020905b8154815290600101906020018083116106d057829003601f168201915b5050505050815260200160028201548152602001600382015481526020016004820160009054906101000a900473ffffffffffffffffffffffffffffffffffffffff1673ffffffffffffffffffffffffffffffffffffffff1673ffffffffffffffffffffffffffffffffffffffff16815260200160058201805461077090612495565b80601f016020809104026020016040519081016040528092919081815260200182805461079c90612495565b80156107e95780601f106107be576101008083540402835291602001916107e9565b820191906000526020600020905b8154815290600101906020018083116107cc57829003601f168201915b5050505050815260200160068201805461080290612495565b80601f016020809104026020016040519081016040528092919081815260200182805461082e90612495565b801561087b5780601f106108505761010080835404028352916020019161087b565b820191906000526020600020905b81548152906001019060200180831161085e57829003601f168201915b50505050508152602001600782015481525050905080608001518160a001516001876040516108aa91906125b1565b908152602001604051809103902080805480602002602001604051908101604052809291908181526020016000905b828210156109fd57838290600052602060002090600302016040518060600160405290816000820160009054906101000a900473ffffffffffffffffffffffffffffffffffffffff1673ffffffffffffffffffffffffffffffffffffffff1673ffffffffffffffffffffffffffffffffffffffff16815260200160018201805461096290612495565b80601f016020809104026020016040519081016040528092919081815260200182805461098e90612495565b80156109db5780601f106109b0576101008083540402835291602001916109db565b820191906000526020600020905b8154815290600101906020018083116109be57829003601f168201915b50505050508152602001600282015481525050815260200190600101906108d9565b505050509050935093509350509193909250565b600283604051610a2191906125b1565b908152602001604051809103902060009054906101000a900460ff16610a7c576040517f08c379a0000000000000000000000000000000000000000000000000000000008152600401610a7390612614565b60405180910390fd5b60008084604051610a8d91906125b1565b908152602001604051809103902090508060040160009054906101000a900473ffffffffffffffffffffffffffffffffffffffff1673ffffffffffffffffffffffffffffffffffffffff163373ffffffffffffffffffffffffffffffffffffffff1614610b2f576040517f08c379a0000000000000000000000000000000000000000000000000000000008152600401610b2690612680565b60405180910390fd5b600073ffffffffffffffffffffffffffffffffffffffff168373ffffffffffffffffffffffffffffffffffffffff1603610b9e576040517f08c379a0000000000000000000000000000000000000000000000000000000008152600401610b95906126ec565b60405180910390fd5b60008160040160009054906101000a900473ffffffffffffffffffffffffffffffffffffffff169050838260040160006101000a81548173ffffffffffffffffffffffffffffffffffffffff021916908373ffffffffffffffffffffffffffffffffffffffff16021790555082826005019081610c1b91906128a3565b50600060405180606001604052808673ffffffffffffffffffffffffffffffffffffffff168152602001858152602001428152509050600186604051610c6191906125b1565b908152602001604051809103902081908060018154018082558091505060019003906000526020600020906003020160009091909190915060008201518160000160006101000a81548173ffffffffffffffffffffffffffffffffffffffff021916908373ffffffffffffffffffffffffffffffffffffffff1602179055506020820151816001019081610cf591906128a3565b506040820151816002015550508473ffffffffffffffffffffffffffffffffffffffff168273ffffffffffffffffffffffffffffffffffffffff1687604051610d3e91906125b1565b60405180910390207fe9bf8dbaa7eb0b6910401512e60afcae7734db09df0b7291b4a16e630d796e5642604051610d759190612975565b60405180910390a4505050505050565b60606004805480602002602001604051908101604052809291908181526020016000905b82821015610e55578382906000526020600020018054610dc890612495565b80601f0160208091040260200160405190810160405280929190818152602001828054610df490612495565b8015610e415780601f10610e1657610100808354040283529160200191610e41565b820191906000526020600020905b815481529060010190602001808311610e2457829003601f168201915b505050505081526020019060010190610da9565b50505050905090565b6060806000806000600286604051610e7691906125b1565b908152602001604051809103902060009054906101000a900460ff16610ed1576040517f08c379a0000000000000000000000000000000000000000000000000000000008152600401610ec890612614565b60405180910390fd5b60008087604051610ee291906125b1565b908152602001604051809103902060405180610100016040529081600082018054610f0c90612495565b80601f0160208091040260200160405190810160405280929190818152602001828054610f3890612495565b8015610f855780601f10610f5a57610100808354040283529160200191610f85565b820191906000526020600020905b815481529060010190602001808311610f6857829003601f168201915b50505050508152602001600182018054610f9e90612495565b80601f0160208091040260200160405190810160405280929190818152602001828054610fca90612495565b80156110175780601f10610fec57610100808354040283529160200191611017565b820191906000526020600020905b815481529060010190602001808311610ffa57829003601f168201915b5050505050815260200160028201548152602001600382015481526020016004820160009054906101000a900473ffffffffffffffffffffffffffffffffffffffff1673ffffffffffffffffffffffffffffffffffffffff1673ffffffffffffffffffffffffffffffffffffffff16815260200160058201805461109a90612495565b80601f01602080910402602001604051908101604052809291908181526020018280546110c690612495565b80156111135780601f106110e857610100808354040283529160200191611113565b820191906000526020600020905b8154815290600101906020018083116110f657829003601f168201915b5050505050815260200160068201805461112c90612495565b80601f016020809104026020016040519081016040528092919081815260200182805461115890612495565b80156111a55780601f1061117a576101008083540402835291602001916111a5565b820191906000526020600020905b81548152906001019060200180831161118857829003601f168201915b50505050508152602001600782015481525050905080602001518160a00151826080015183604001518460600151955095509550955095505091939590929450565b60606000806000806000606060028860405161120391906125b1565b908152602001604051809103902060009054906101000a900460ff1661125e576040517f08c379a000000000000000000000000000000000000000000000000000000000815260040161125590612614565b60405180910390fd5b6000808960405161126f91906125b1565b90815260200160405180910390206040518061010001604052908160008201805461129990612495565b80601f01602080910402602001604051908101604052809291908181526020018280546112c590612495565b80156113125780601f106112e757610100808354040283529160200191611312565b820191906000526020600020905b8154815290600101906020018083116112f557829003601f168201915b5050505050815260200160018201805461132b90612495565b80601f016020809104026020016040519081016040528092919081815260200182805461135790612495565b80156113a45780601f10611379576101008083540402835291602001916113a4565b820191906000526020600020905b81548152906001019060200180831161138757829003601f168201915b5050505050815260200160028201548152602001600382015481526020016004820160009054906101000a900473ffffffffffffffffffffffffffffffffffffffff1673ffffffffffffffffffffffffffffffffffffffff1673ffffffffffffffffffffffffffffffffffffffff16815260200160058201805461142790612495565b80601f016020809104026020016040519081016040528092919081815260200182805461145390612495565b80156114a05780601f10611475576101008083540402835291602001916114a0565b820191906000526020600020905b81548152906001019060200180831161148357829003601f168201915b505050505081526020016006820180546114b990612495565b80601f01602080910402602001604051908101604052809291908181526020018280546114e590612495565b80156115325780601f1061150757610100808354040283529160200191611532565b820191906000526020600020905b81548152906001019060200180831161151557829003601f168201915b5050505050815260200160078201548152505090506000816060015142111590506000811561157c576201518042846060015161156f91906129bf565b6115799190612a22565b90505b826020015183604001518460600151848487608001518860a001519950995099509950995099509950505050919395979092949650565b600073ffffffffffffffffffffffffffffffffffffffff166000876040516115db91906125b1565b908152602001604051809103902060040160009054906101000a900473ffffffffffffffffffffffffffffffffffffffff1673ffffffffffffffffffffffffffffffffffffffff1614611663576040517f08c379a000000000000000000000000000000000000000000000000000000000815260040161165a90612a9f565b60405180910390fd5b60038160405161167391906125b1565b908152602001604051809103902060009054906101000a900460ff16156116cf576040517f08c379a00000000000000000000000000000000000000000000000000000000081526004016116c690612b0b565b60405180910390fd5b838311611711576040517f08c379a000000000000000000000000000000000000000000000000000000000815260040161170890612b77565b60405180910390fd5b60006040518061010001604052808881526020018781526020018681526020018581526020013373ffffffffffffffffffffffffffffffffffffffff1681526020018481526020018381526020014281525090508060008860405161177691906125b1565b9081526020016040518091039020600082015181600001908161179991906128a3565b5060208201518160010190816117af91906128a3565b50604082015181600201556060820151816003015560808201518160040160006101000a81548173ffffffffffffffffffffffffffffffffffffffff021916908373ffffffffffffffffffffffffffffffffffffffff16021790555060a082015181600501908161182091906128a3565b5060c082015181600601908161183691906128a3565b5060e08201518160070155905050600160028860405161185691906125b1565b908152602001604051809103902060006101000a81548160ff021916908315150217905550600160038360405161188d91906125b1565b908152602001604051809103902060006101000a81548160ff0219169083151502179055506004879080600181540180825580915050600190039060005260206000200160009091909190915090816118e691906128a3565b50600060405180606001604052803373ffffffffffffffffffffffffffffffffffffffff16815260200185815260200142815250905060018860405161192c91906125b1565b908152602001604051809103902081908060018154018082558091505060019003906000526020600020906003020160009091909190915060008201518160000160006101000a81548173ffffffffffffffffffffffffffffffffffffffff021916908373ffffffffffffffffffffffffffffffffffffffff16021790555060208201518160010190816119c091906128a3565b506040820151816002015550503373ffffffffffffffffffffffffffffffffffffffff16886040516119f291906125b1565b60405180910390207f69a364a36de428def83b9136062f8e6214b44410a34f51f779f06dc745de8fca42604051611a299190612975565b60405180910390a35050505050505050565b60405180610100016040528060608152602001606081526020016000815260200160008152602001600073ffffffffffffffffffffffffffffffffffffffff1681526020016060815260200160608152602001600081525090565b600081519050919050565b600082825260208201905092915050565b6000819050602082019050919050565b600081519050919050565b600082825260208201905092915050565b60005b83811015611afc578082015181840152602081019050611ae1565b60008484015250505050565b6000601f19601f8301169050919050565b6000611b2482611ac2565b611b2e8185611acd565b9350611b3e818560208601611ade565b611b4781611b08565b840191505092915050565b6000819050919050565b611b6581611b52565b82525050565b600073ffffffffffffffffffffffffffffffffffffffff82169050919050565b6000611b9682611b6b565b9050919050565b611ba681611b8b565b82525050565b6000610100830160008301518482036000860152611bca8282611b19565b91505060208301518482036020860152611be48282611b19565b9150506040830151611bf96040860182611b5c565b506060830151611c0c6060860182611b5c565b506080830151611c1f6080860182611b9d565b5060a083015184820360a0860152611c378282611b19565b91505060c083015184820360c0860152611c518282611b19565b91505060e0830151611c6660e0860182611b5c565b508091505092915050565b6000611c7d8383611bac565b905092915050565b6000602082019050919050565b6000611c9d82611a96565b611ca78185611aa1565b935083602082028501611cb985611ab2565b8060005b85811015611cf55784840389528151611cd68582611c71565b9450611ce183611c85565b925060208a01995050600181019050611cbd565b50829750879550505050505092915050565b60006020820190508181036000830152611d218184611c92565b905092915050565b6000604051905090565b600080fd5b600080fd5b600080fd5b600080fd5b7f4e487b7100000000000000000000000000000000000000000000000000000000600052604160045260246000fd5b611d7f82611b08565b810181811067ffffffffffffffff82111715611d9e57611d9d611d47565b5b80604052505050565b6000611db1611d29565b9050611dbd8282611d76565b919050565b600067ffffffffffffffff821115611ddd57611ddc611d47565b5b611de682611b08565b9050602081019050919050565b82818337600083830152505050565b6000611e15611e1084611dc2565b611da7565b905082815260208101848484011115611e3157611e30611d42565b5b611e3c848285611df3565b509392505050565b600082601f830112611e5957611e58611d3d565b5b8135611e69848260208601611e02565b91505092915050565b600060208284031215611e8857611e87611d33565b5b600082013567ffffffffffffffff811115611ea657611ea5611d38565b5b611eb284828501611e44565b91505092915050565b611ec481611b8b565b82525050565b600082825260208201905092915050565b6000611ee682611ac2565b611ef08185611eca565b9350611f00818560208601611ade565b611f0981611b08565b840191505092915050565b600081519050919050565b600082825260208201905092915050565b6000819050602082019050919050565b6000606083016000830151611f586000860182611b9d565b5060208301518482036020860152611f708282611b19565b9150506040830151611f856040860182611b5c565b508091505092915050565b6000611f9c8383611f40565b905092915050565b6000602082019050919050565b6000611fbc82611f14565b611fc68185611f1f565b935083602082028501611fd885611f30565b8060005b858110156120145784840389528151611ff58582611f90565b945061200083611fa4565b925060208a01995050600181019050611fdc565b50829750879550505050505092915050565b600060608201905061203b6000830186611ebb565b818103602083015261204d8185611edb565b905081810360408301526120618184611fb1565b9050949350505050565b61207481611b8b565b811461207f57600080fd5b50565b6000813590506120918161206b565b92915050565b6000806000606084860312156120b0576120af611d33565b5b600084013567ffffffffffffffff8111156120ce576120cd611d38565b5b6120da86828701611e44565b93505060206120eb86828701612082565b925050604084013567ffffffffffffffff81111561210c5761210b611d38565b5b61211886828701611e44565b9150509250925092565b600081519050919050565b600082825260208201905092915050565b6000819050602082019050919050565b600061215a8383611b19565b905092915050565b6000602082019050919050565b600061217a82612122565b612184818561212d565b9350836020820285016121968561213e565b8060005b858110156121d257848403895281516121b3858261214e565b94506121be83612162565b925060208a0199505060018101905061219a565b50829750879550505050505092915050565b600060208201905081810360008301526121fe818461216f565b905092915050565b61220f81611b52565b82525050565b600060a082019050818103600083015261222f8188611edb565b905081810360208301526122438187611edb565b90506122526040830186611ebb565b61225f6060830185612206565b61226c6080830184612206565b9695505050505050565b60008115159050919050565b61228b81612276565b82525050565b600060e08201905081810360008301526122ab818a611edb565b90506122ba6020830189612206565b6122c76040830188612206565b6122d46060830187612282565b6122e16080830186612206565b6122ee60a0830185611ebb565b81810360c08301526123008184611edb565b905098975050505050505050565b61231781611b52565b811461232257600080fd5b50565b6000813590506123348161230e565b92915050565b60008060008060008060c0878903121561235757612356611d33565b5b600087013567ffffffffffffffff81111561237557612374611d38565b5b61238189828a01611e44565b965050602087013567ffffffffffffffff8111156123a2576123a1611d38565b5b6123ae89828a01611e44565b95505060406123bf89828a01612325565b94505060606123d089828a01612325565b935050608087013567ffffffffffffffff8111156123f1576123f0611d38565b5b6123fd89828a01611e44565b92505060a087013567ffffffffffffffff81111561241e5761241d611d38565b5b61242a89828a01611e44565b9150509295509295509295565b7f4e487b7100000000000000000000000000000000000000000000000000000000600052603260045260246000fd5b7f4e487b7100000000000000000000000000000000000000000000000000000000600052602260045260246000fd5b600060028204905060018216806124ad57607f821691505b6020821081036124c0576124bf612466565b5b50919050565b600081905092915050565b60008190508160005260206000209050919050565b600081546124f381612495565b6124fd81866124c6565b94506001821660008114612518576001811461252d57612560565b60ff1983168652811515820286019350612560565b612536856124d1565b60005b8381101561255857815481890152600182019150602081019050612539565b838801955050505b50505092915050565b600061257582846124e6565b915081905092915050565b600061258b82611ac2565b61259581856124c6565b93506125a5818560208601611ade565b80840191505092915050565b60006125bd8284612580565b915081905092915050565b7f50726f64756374206e6f7420666f756e64000000000000000000000000000000600082015250565b60006125fe601183611eca565b9150612609826125c8565b602082019050919050565b6000602082019050818103600083015261262d816125f1565b9050919050565b7f4e6f7420746865206f776e657200000000000000000000000000000000000000600082015250565b600061266a600d83611eca565b915061267582612634565b602082019050919050565b600060208201905081810360008301526126998161265d565b9050919050565b7f496e76616c6964206e6577206f776e6572206164647265737300000000000000600082015250565b60006126d6601983611eca565b91506126e1826126a0565b602082019050919050565b60006020820190508181036000830152612705816126c9565b9050919050565b60006020601f8301049050919050565b600082821b905092915050565b6000600883026127597fffffffffffffffffffffffffffffffffffffffffffffffffffffffffffffffff8261271c565b612763868361271c565b95508019841693508086168417925050509392505050565b6000819050919050565b60006127a061279b61279684611b52565b61277b565b611b52565b9050919050565b6000819050919050565b6127ba83612785565b6127ce6127c6826127a7565b848454612729565b825550505050565b600090565b6127e36127d6565b6127ee8184846127b1565b505050565b5b81811015612812576128076000826127db565b6001810190506127f4565b5050565b601f82111561285757612828816124d1565b6128318461270c565b81016020851015612840578190505b61285461284c8561270c565b8301826127f3565b50505b505050565b600082821c905092915050565b600061287a6000198460080261285c565b1980831691505092915050565b60006128938383612869565b9150826002028217905092915050565b6128ac82611ac2565b67ffffffffffffffff8111156128c5576128c4611d47565b5b6128cf8254612495565b6128da828285612816565b600060209050601f83116001811461290d57600084156128fb578287015190505b6129058582612887565b86555061296d565b601f19841661291b866124d1565b60005b828110156129435784890151825560018201915060208501945060208101905061291e565b86831015612960578489015161295c601f891682612869565b8355505b6001600288020188555050505b505050505050565b600060208201905061298a6000830184612206565b92915050565b7f4e487b7100000000000000000000000000000000000000000000000000000000600052601160045260246000fd5b60006129ca82611b52565b91506129d583611b52565b92508282039050818111156129ed576129ec612990565b5b92915050565b7f4e487b7100000000000000000000000000000000000000000000000000000000600052601260045260246000fd5b6000612a2d82611b52565b9150612a3883611b52565b925082612a4857612a476129f3565b5b828204905092915050565b7f50726f6475637420494420616c72656164792072656769737465726564000000600082015250565b6000612a89601d83611eca565b9150612a9482612a53565b602082019050919050565b60006020820190508181036000830152612ab881612a7c565b9050919050565b7f53657269616c204e756d62657220616c72656164792072656769737465726564600082015250565b6000612af5602083611eca565b9150612b0082612abf565b602082019050919050565b60006020820190508181036000830152612b2481612ae8565b9050919050565b7f496e76616c69642077617272616e747920646174657300000000000000000000600082015250565b6000612b61601683611eca565b9150612b6c82612b2b565b602082019050919050565b60006020820190508181036000830152612b9081612b54565b905091905056fea26469706673582212200737b1bfcae439285b747e9ed03fdfe7b78462b867de9475a31b20928df9b7c464736f6c63430008180033",
  "linkReferences": {},
  "deployedLinkReferences": {}
}