{
  "_format": "hh-sol-artifact-1",
  "contractName": "Warranty",
  "sourceName": "contracts/Warranty.sol",
  "abi": [
    {
      "anonymous": false,
      "inputs": [
        {
          "indexed": true,
          "internalType": "string",
          "name": "productId",
          "type": "string"
        },
        {
          "indexed": true,
          "internalType": "address",
          "name": "oldOwner",
          "type": "address"
        },
        {
          "indexed": true,
          "internalType": "address",
          "name": "newOwner",
          "type": "address"
        },
        {
          "indexed": false,
          "internalType": "uint256",
          "name": "timestamp",
          "type": "uint256"
        }
      ],
      "name": "OwnershipTransferred",
      "type": "event"
    },
    {
      "anonymous": false,
      "inputs": [
        {
          "indexed": true,
          "internalType": "string",
          "name": "productId",
          "type": "string"
        },
        {
          "indexed": true,
          "internalType": "address",
          "name": "owner",
          "type": "address"
        },
        {
          "indexed": false,
          "internalType": "uint256",
          "name": "timestamp",
          "type": "uint256"
        }
      ],
      "name": "ProductRegistered",
      "type": "event"
    },
    {
      "anonymous": false,
      "inputs": [
        {
          "indexed": true,
          "internalType": "string",
          "name": "productId",
          "type": "string"
        },
        {
          "indexed": false,
          "internalType": "string",
          "name": "productName",
          "type": "string"
        },
        {
          "indexed": false,
          "internalType": "uint256",
          "name": "timestamp",
          "type": "uint256"
        }
      ],
      "name": "ProductUpdated",
      "type": "event"
    },
    {
      "anonymous": false,
      "inputs": [
        {
          "indexed": true,
          "internalType": "string",
          "name": "productId",
          "type": "string"
        },
        {
          "indexed": false,
          "internalType": "string",
          "name": "description",
          "type": "string"
        },
        {
          "indexed": false,
          "internalType": "uint256",
          "name": "timestamp",
          "type": "uint256"
        }
      ],
      "name": "ServiceRecordAdded",
      "type": "event"
    },
    {
      "anonymous": false,
      "inputs": [
        {
          "indexed": true,
          "internalType": "string",
          "name": "productId",
          "type": "string"
        },
        {
          "indexed": false,
          "internalType": "uint256",
          "name": "newExpiryDate",
          "type": "uint256"
        },
        {
          "indexed": false,
          "internalType": "uint256",
          "name": "timestamp",
          "type": "uint256"
        }
      ],
      "name": "WarrantyExtended",
      "type": "event"
    },
    {
      "inputs": [
        {
          "internalType": "string",
          "name": "_productId",
          "type": "string"
        },
        {
          "internalType": "string",
          "name": "_description",
          "type": "string"
        },
        {
          "internalType": "string",
          "name": "_technician",
          "type": "string"
        },
        {
          "internalType": "string",
          "name": "_location",
          "type": "string"
        },
        {
          "internalType": "bool",
          "name": "_isPaid",
          "type": "bool"
        },
        {
          "internalType": "uint256",
          "name": "_serviceDate",
          "type": "uint256"
        }
      ],
      "name": "addServiceRecord",
      "outputs": [],
      "stateMutability": "nonpayable",
      "type": "function"
    },
    {
      "inputs": [
        {
          "internalType": "string",
          "name": "_productId",
          "type": "string"
        },
        {
          "internalType": "uint256",
          "name": "_newExpiryDate",
          "type": "uint256"
        }
      ],
      "name": "extendWarranty",
      "outputs": [],
      "stateMutability": "nonpayable",
      "type": "function"
    },
    {
      "inputs": [],
      "name": "getAllProductIds",
      "outputs": [
        {
          "internalType": "string[]",
          "name": "",
          "type": "string[]"
        }
      ],
      "stateMutability": "view",
      "type": "function"
    },
    {
      "inputs": [],
      "name": "getAllProducts",
      "outputs": [
        {
          "components": [
            {
              "internalType": "string",
              "name": "productId",
              "type": "string"
            },
            {
              "internalType": "string",
              "name": "productName",
              "type": "string"
            },
            {
              "internalType": "uint256",
              "name": "warrantyStart",
              "type": "uint256"
            },
            {
              "internalType": "uint256",
              "name": "warrantyEnd",
              "type": "uint256"
            },
            {
              "internalType": "address",
              "name": "owner",
              "type": "address"
            },
            {
              "internalType": "string",
              "name": "ownerName",
              "type": "string"
            },
            {
              "internalType": "string",
              "name": "ownerContact",
              "type": "string"
            },
            {
              "internalType": "string",
              "name": "ownerEmail",
              "type": "string"
            },
            {
              "internalType": "string",
              "name": "serialNumber",
              "type": "string"
            },
            {
              "internalType": "string",
              "name": "specifications",
              "type": "string"
            },
            {
              "internalType": "uint256",
              "name": "createdAt",
              "type": "uint256"
            },
            {
              "internalType": "bool",
              "name": "isExtended",
              "type": "bool"
            }
          ],
          "internalType": "struct Warranty.Product[]",
          "name": "",
          "type": "tuple[]"
        }
      ],
      "stateMutability": "view",
      "type": "function"
    },
    {
      "inputs": [
        {
          "internalType": "string",
          "name": "_productId",
          "type": "string"
        }
      ],
      "name": "getProduct",
      "outputs": [
        {
          "components": [
            {
              "internalType": "string",
              "name": "productId",
              "type": "string"
            },
            {
              "internalType": "string",
              "name": "productName",
              "type": "string"
            },
            {
              "internalType": "uint256",
              "name": "warrantyStart",
              "type": "uint256"
            },
            {
              "internalType": "uint256",
              "name": "warrantyEnd",
              "type": "uint256"
            },
            {
              "internalType": "address",
              "name": "owner",
              "type": "address"
            },
            {
              "internalType": "string",
              "name": "ownerName",
              "type": "string"
            },
            {
              "internalType": "string",
              "name": "ownerContact",
              "type": "string"
            },
            {
              "internalType": "string",
              "name": "ownerEmail",
              "type": "string"
            },
            {
              "internalType": "string",
              "name": "serialNumber",
              "type": "string"
            },
            {
              "internalType": "string",
              "name": "specifications",
              "type": "string"
            },
            {
              "internalType": "uint256",
              "name": "createdAt",
              "type": "uint256"
            },
            {
              "internalType": "bool",
              "name": "isExtended",
              "type": "bool"
            }
          ],
          "internalType": "struct Warranty.Product",
          "name": "",
          "type": "tuple"
        }
      ],
      "stateMutability": "view",
      "type": "function"
    },
    {
      "inputs": [
        {
          "internalType": "string",
          "name": "_productId",
          "type": "string"
        }
      ],
      "name": "getServiceHistory",
      "outputs": [
        {
          "components": [
            {
              "internalType": "string",
              "name": "description",
              "type": "string"
            },
            {
              "internalType": "string",
              "name": "technicianName",
              "type": "string"
            },
            {
              "internalType": "uint256",
              "name": "serviceDate",
              "type": "uint256"
            },
            {
              "internalType": "string",
              "name": "location",
              "type": "string"
            },
            {
              "internalType": "bool",
              "name": "isPaid",
              "type": "bool"
            }
          ],
          "internalType": "struct Warranty.ServiceRecord[]",
          "name": "",
          "type": "tuple[]"
        }
      ],
      "stateMutability": "view",
      "type": "function"
    },
    {
      "inputs": [
        {
          "internalType": "string",
          "name": "_productId",
          "type": "string"
        },
        {
          "internalType": "string",
          "name": "_productName",
          "type": "string"
        },
        {
          "internalType": "uint256",
          "name": "_warrantyStart",
          "type": "uint256"
        },
        {
          "internalType": "uint256",
          "name": "_warrantyEnd",
          "type": "uint256"
        },
        {
          "internalType": "string",
          "name": "_ownerName",
          "type": "string"
        },
        {
          "internalType": "string",
          "name": "_ownerContact",
          "type": "string"
        },
        {
          "internalType": "string",
          "name": "_ownerEmail",
          "type": "string"
        },
        {
          "internalType": "string",
          "name": "_serialNumber",
          "type": "string"
        },
        {
          "internalType": "string",
          "name": "_specifications",
          "type": "string"
        }
      ],
      "name": "registerProduct",
      "outputs": [],
      "stateMutability": "nonpayable",
      "type": "function"
    },
    {
      "inputs": [
        {
          "internalType": "string",
          "name": "_productId",
          "type": "string"
        },
        {
          "internalType": "address",
          "name": "_newOwner",
          "type": "address"
        },
        {
          "internalType": "string",
          "name": "_newOwnerName",
          "type": "string"
        },
        {
          "internalType": "string",
          "name": "_newOwnerContact",
          "type": "string"
        },
        {
          "internalType": "string",
          "name": "_newOwnerEmail",
          "type": "string"
        }
      ],
      "name": "transferOwnership",
      "outputs": [],
      "stateMutability": "nonpayable",
      "type": "function"
    },
    {
      "inputs": [
        {
          "internalType": "string",
          "name": "_productId",
          "type": "string"
        },
        {
          "internalType": "string",
          "name": "_ownerName",
          "type": "string"
        },
        {
          "internalType": "string",
          "name": "_ownerContact",
          "type": "string"
        },
        {
          "internalType": "string",
          "name": "_ownerEmail",
          "type": "string"
        }
      ],
      "name": "updateProduct",
      "outputs": [],
      "stateMutability": "nonpayable",
      "type": "function"
    },
    {
      "inputs": [
        {
          "internalType": "string",
          "name": "_productId",
          "type": "string"
        }
      ],
      "name": "verifyOwnership",
      "outputs": [
        {
          "internalType": "address",
          "name": "currentOwner",
          "type": "address"
        },
        {
          "internalType": "string",
          "name": "currentOwnerName",
          "type": "string"
        },
        {
          "components": [
            {
              "internalType": "address",
              "name": "owner",
              "type": "address"
            },
            {
              "internalType": "string",
              "name": "ownerName",
              "type": "string"
            },
            {
              "internalType": "string",
              "name": "ownerContact",
              "type": "string"
            },
            {
              "internalType": "string",
              "name": "ownerEmail",
              "type": "string"
            },
            {
              "internalType": "uint256",
              "name": "transferDate",
              "type": "uint256"
            }
          ],
          "internalType": "struct Warranty.OwnershipRecord[]",
          "name": "history",
          "type": "tuple[]"
        }
      ],
      "stateMutability": "view",
      "type": "function"
    },
    {
      "inputs": [
        {
          "internalType": "string",
          "name": "_productId",
          "type": "string"
        }
      ],
      "name": "verifyWarranty",
      "outputs": [
        {
          "internalType": "string",
          "name": "productName",
          "type": "string"
        },
        {
          "internalType": "uint256",
          "name": "warrantyStart",
          "type": "uint256"
        },
        {
          "internalType": "uint256",
          "name": "warrantyEnd",
          "type": "uint256"
        },
        {
          "internalType": "bool",
          "name": "isValid",
          "type": "bool"
        },
        {
          "internalType": "uint256",
          "name": "daysRemaining",
          "type": "uint256"
        },
        {
          "internalType": "address",
          "name": "owner",
          "type": "address"
        },
        {
          "internalType": "string",
          "name": "ownerName",
          "type": "string"
        },
        {
          "internalType": "string",
          "name": "ownerContact",
          "type": "string"
        },
        {
          "internalType": "string",
          "name": "ownerEmail",
          "type": "string"
        },
        {
          "internalType": "string",
          "name": "serialNumber",
          "type": "string"
        },
        {
          "internalType": "string",
          "name": "specifications",
          "type": "string"
        },
        {
          "internalType": "bool",
          "name": "isExtended",
          "type": "bool"
        }
      ],
      "stateMutability": "view",
      "type": "function"
    }
  ],
  "bytecode": "0x608060405234801561001057600080fd5b5061492a806100206000396000f3fe608060405234801561001057600080fd5b50600436106100a95760003560e01c8063663c01af11610071578063663c01af1461016657806368111cce146101845780637e5ac7b1146101b457806393764487146101d0578063baa526a8146101ec578063df04a49914610227576100a9565b806302ee3a52146100ae578063036fed68146100cc578063293f854e146100e85780632f362b611461011a57806346f73e291461014a575b600080fd5b6100b6610243565b6040516100c391906132b8565b60405180910390f35b6100e660048036038101906100e1919061344f565b6107b9565b005b61010260048036038101906100fd919061353a565b610b8b565b60405161011193929190613722565b60405180910390f35b610134600480360381019061012f919061353a565b61135a565b60405161014191906138ad565b60405180910390f35b610164600480360381019061015f9190613927565b61161d565b005b61016e6117c3565b60405161017b9190613ae6565b60405180910390f35b61019e6004803603810190610199919061353a565b61189c565b6040516101ab9190613c36565b60405180910390f35b6101ce60048036038101906101c99190613c58565b611dcd565b005b6101ea60048036038101906101e59190613cb4565b6120ab565b005b6102066004803603810190610201919061353a565b612437565b60405161021e9c9b9a99989796959493929190613da9565b60405180910390f35b610241600480360381019061023c9190613e8d565b612a06565b005b6060600060058054905067ffffffffffffffff811115610266576102656132f8565b5b60405190808252806020026020018201604052801561029f57816020015b61028c612f4a565b8152602001906001900390816102845790505b50905060005b6005805490508110156107b1576000600582815481106102c8576102c761401b565b5b906000526020600020016040516102df919061414d565b90815260200160405180910390206040518061018001604052908160008201805461030990614079565b80601f016020809104026020016040519081016040528092919081815260200182805461033590614079565b80156103825780601f1061035757610100808354040283529160200191610382565b820191906000526020600020905b81548152906001019060200180831161036557829003601f168201915b5050505050815260200160018201805461039b90614079565b80601f01602080910402602001604051908101604052809291908181526020018280546103c790614079565b80156104145780601f106103e957610100808354040283529160200191610414565b820191906000526020600020905b8154815290600101906020018083116103f757829003601f168201915b5050505050815260200160028201548152602001600382015481526020016004820160009054906101000a900473ffffffffffffffffffffffffffffffffffffffff1673ffffffffffffffffffffffffffffffffffffffff1673ffffffffffffffffffffffffffffffffffffffff16815260200160058201805461049790614079565b80601f01602080910402602001604051908101604052809291908181526020018280546104c390614079565b80156105105780601f106104e557610100808354040283529160200191610510565b820191906000526020600020905b8154815290600101906020018083116104f357829003601f168201915b5050505050815260200160068201805461052990614079565b80601f016020809104026020016040519081016040528092919081815260200182805461055590614079565b80156105a25780601f10610577576101008083540402835291602001916105a2565b820191906000526020600020905b81548152906001019060200180831161058557829003601f168201915b505050505081526020016007820180546105bb90614079565b80601f01602080910402602001604051908101604052809291908181526020018280546105e790614079565b80156106345780601f1061060957610100808354040283529160200191610634565b820191906000526020600020905b81548152906001019060200180831161061757829003601f168201915b5050505050815260200160088201805461064d90614079565b80601f016020809104026020016040519081016040528092919081815260200182805461067990614079565b80156106c65780601f1061069b576101008083540402835291602001916106c6565b820191906000526020600020905b8154815290600101906020018083116106a957829003601f168201915b505050505081526020016009820180546106df90614079565b80601f016020809104026020016040519081016040528092919081815260200182805461070b90614079565b80156107585780601f1061072d57610100808354040283529160200191610758565b820191906000526020600020905b81548152906001019060200180831161073b57829003601f168201915b50505050508152602001600a8201548152602001600b820160009054906101000a900460ff1615151515815250508282815181106107995761079861401b565b5b602002602001018190525080806001019150506102a5565b508091505090565b6003856040516107c99190614195565b908152602001604051809103902060009054906101000a900460ff16610824576040517f08c379a000000000000000000000000000000000000000000000000000000000815260040161081b906141f8565b60405180910390fd5b600080866040516108359190614195565b908152602001604051809103902090508060040160009054906101000a900473ffffffffffffffffffffffffffffffffffffffff1673ffffffffffffffffffffffffffffffffffffffff163373ffffffffffffffffffffffffffffffffffffffff16146108d7576040517f08c379a00000000000000000000000000000000000000000000000000000000081526004016108ce90614264565b60405180910390fd5b600073ffffffffffffffffffffffffffffffffffffffff168573ffffffffffffffffffffffffffffffffffffffff1603610946576040517f08c379a000000000000000000000000000000000000000000000000000000000815260040161093d906142d0565b60405180910390fd5b60008160040160009054906101000a900473ffffffffffffffffffffffffffffffffffffffff169050858260040160006101000a81548173ffffffffffffffffffffffffffffffffffffffff021916908373ffffffffffffffffffffffffffffffffffffffff160217905550848260050190816109c39190614487565b50838260060190816109d59190614487565b50828260070190816109e79190614487565b5060006040518060a001604052808873ffffffffffffffffffffffffffffffffffffffff168152602001878152602001868152602001858152602001428152509050600188604051610a399190614195565b908152602001604051809103902081908060018154018082558091505060019003906000526020600020906005020160009091909190915060008201518160000160006101000a81548173ffffffffffffffffffffffffffffffffffffffff021916908373ffffffffffffffffffffffffffffffffffffffff1602179055506020820151816001019081610acd9190614487565b506040820151816002019081610ae39190614487565b506060820151816003019081610af99190614487565b506080820151816004015550508673ffffffffffffffffffffffffffffffffffffffff168273ffffffffffffffffffffffffffffffffffffffff1689604051610b429190614195565b60405180910390207fe9bf8dbaa7eb0b6910401512e60afcae7734db09df0b7291b4a16e630d796e5642604051610b799190614559565b60405180910390a45050505050505050565b6000606080600384604051610ba09190614195565b908152602001604051809103902060009054906101000a900460ff16610bfb576040517f08c379a0000000000000000000000000000000000000000000000000000000008152600401610bf2906141f8565b60405180910390fd5b60008085604051610c0c9190614195565b908152602001604051809103902060405180610180016040529081600082018054610c3690614079565b80601f0160208091040260200160405190810160405280929190818152602001828054610c6290614079565b8015610caf5780601f10610c8457610100808354040283529160200191610caf565b820191906000526020600020905b815481529060010190602001808311610c9257829003601f168201915b50505050508152602001600182018054610cc890614079565b80601f0160208091040260200160405190810160405280929190818152602001828054610cf490614079565b8015610d415780601f10610d1657610100808354040283529160200191610d41565b820191906000526020600020905b815481529060010190602001808311610d2457829003601f168201915b5050505050815260200160028201548152602001600382015481526020016004820160009054906101000a900473ffffffffffffffffffffffffffffffffffffffff1673ffffffffffffffffffffffffffffffffffffffff1673ffffffffffffffffffffffffffffffffffffffff168152602001600582018054610dc490614079565b80601f0160208091040260200160405190810160405280929190818152602001828054610df090614079565b8015610e3d5780601f10610e1257610100808354040283529160200191610e3d565b820191906000526020600020905b815481529060010190602001808311610e2057829003601f168201915b50505050508152602001600682018054610e5690614079565b80601f0160208091040260200160405190810160405280929190818152602001828054610e8290614079565b8015610ecf5780601f10610ea457610100808354040283529160200191610ecf565b820191906000526020600020905b815481529060010190602001808311610eb257829003601f168201915b50505050508152602001600782018054610ee890614079565b80601f0160208091040260200160405190810160405280929190818152602001828054610f1490614079565b8015610f615780601f10610f3657610100808354040283529160200191610f61565b820191906000526020600020905b815481529060010190602001808311610f4457829003601f168201915b50505050508152602001600882018054610f7a90614079565b80601f0160208091040260200160405190810160405280929190818152602001828054610fa690614079565b8015610ff35780601f10610fc857610100808354040283529160200191610ff3565b820191906000526020600020905b815481529060010190602001808311610fd657829003601f168201915b5050505050815260200160098201805461100c90614079565b80601f016020809104026020016040519081016040528092919081815260200182805461103890614079565b80156110855780601f1061105a57610100808354040283529160200191611085565b820191906000526020600020905b81548152906001019060200180831161106857829003601f168201915b50505050508152602001600a8201548152602001600b820160009054906101000a900460ff161515151581525050905080608001518160a001516001876040516110cf9190614195565b908152602001604051809103902080805480602002602001604051908101604052809291908181526020016000905b8282101561134657838290600052602060002090600502016040518060a00160405290816000820160009054906101000a900473ffffffffffffffffffffffffffffffffffffffff1673ffffffffffffffffffffffffffffffffffffffff1673ffffffffffffffffffffffffffffffffffffffff16815260200160018201805461118790614079565b80601f01602080910402602001604051908101604052809291908181526020018280546111b390614079565b80156112005780601f106111d557610100808354040283529160200191611200565b820191906000526020600020905b8154815290600101906020018083116111e357829003601f168201915b5050505050815260200160028201805461121990614079565b80601f016020809104026020016040519081016040528092919081815260200182805461124590614079565b80156112925780601f1061126757610100808354040283529160200191611292565b820191906000526020600020905b81548152906001019060200180831161127557829003601f168201915b505050505081526020016003820180546112ab90614079565b80601f01602080910402602001604051908101604052809291908181526020018280546112d790614079565b80156113245780601f106112f957610100808354040283529160200191611324565b820191906000526020600020905b81548152906001019060200180831161130757829003601f168201915b50505050508152602001600482015481525050815260200190600101906110fe565b505050509050935093509350509193909250565b606060038260405161136c9190614195565b908152602001604051809103902060009054906101000a900460ff166113c7576040517f08c379a00000000000000000000000000000000000000000000000000000000081526004016113be906141f8565b60405180910390fd5b6002826040516113d79190614195565b9081526020016040518091039020805480602002602001604051908101604052809291908181526020016000905b8282101561161257838290600052602060002090600502016040518060a001604052908160008201805461143890614079565b80601f016020809104026020016040519081016040528092919081815260200182805461146490614079565b80156114b15780601f10611486576101008083540402835291602001916114b1565b820191906000526020600020905b81548152906001019060200180831161149457829003601f168201915b505050505081526020016001820180546114ca90614079565b80601f01602080910402602001604051908101604052809291908181526020018280546114f690614079565b80156115435780601f1061151857610100808354040283529160200191611543565b820191906000526020600020905b81548152906001019060200180831161152657829003601f168201915b505050505081526020016002820154815260200160038201805461156690614079565b80601f016020809104026020016040519081016040528092919081815260200182805461159290614079565b80156115df5780601f106115b4576101008083540402835291602001916115df565b820191906000526020600020905b8154815290600101906020018083116115c257829003601f168201915b505050505081526020016004820160009054906101000a900460ff16151515158152505081526020019060010190611405565b505050509050919050565b60038660405161162d9190614195565b908152602001604051809103902060009054906101000a900460ff16611688576040517f08c379a000000000000000000000000000000000000000000000000000000000815260040161167f906141f8565b60405180910390fd5b60006040518060a0016040528087815260200186815260200183815260200185815260200184151581525090506002876040516116c59190614195565b908152602001604051809103902081908060018154018082558091505060019003906000526020600020906005020160009091909190915060008201518160000190816117129190614487565b5060208201518160010190816117289190614487565b506040820151816002015560608201518160030190816117489190614487565b5060808201518160040160006101000a81548160ff0219169083151502179055505050866040516117799190614195565b60405180910390207f5620eedf2a600b8dc974715c3a655fefb97a10db749ff7b267a2a62f5677def487846040516117b2929190614574565b60405180910390a250505050505050565b60606005805480602002602001604051908101604052809291908181526020016000905b8282101561189357838290600052602060002001805461180690614079565b80601f016020809104026020016040519081016040528092919081815260200182805461183290614079565b801561187f5780601f106118545761010080835404028352916020019161187f565b820191906000526020600020905b81548152906001019060200180831161186257829003601f168201915b5050505050815260200190600101906117e7565b50505050905090565b6118a4612f4a565b6003826040516118b49190614195565b908152602001604051809103902060009054906101000a900460ff1661190f576040517f08c379a0000000000000000000000000000000000000000000000000000000008152600401611906906141f8565b60405180910390fd5b60008260405161191f9190614195565b90815260200160405180910390206040518061018001604052908160008201805461194990614079565b80601f016020809104026020016040519081016040528092919081815260200182805461197590614079565b80156119c25780601f10611997576101008083540402835291602001916119c2565b820191906000526020600020905b8154815290600101906020018083116119a557829003601f168201915b505050505081526020016001820180546119db90614079565b80601f0160208091040260200160405190810160405280929190818152602001828054611a0790614079565b8015611a545780601f10611a2957610100808354040283529160200191611a54565b820191906000526020600020905b815481529060010190602001808311611a3757829003601f168201915b5050505050815260200160028201548152602001600382015481526020016004820160009054906101000a900473ffffffffffffffffffffffffffffffffffffffff1673ffffffffffffffffffffffffffffffffffffffff1673ffffffffffffffffffffffffffffffffffffffff168152602001600582018054611ad790614079565b80601f0160208091040260200160405190810160405280929190818152602001828054611b0390614079565b8015611b505780601f10611b2557610100808354040283529160200191611b50565b820191906000526020600020905b815481529060010190602001808311611b3357829003601f168201915b50505050508152602001600682018054611b6990614079565b80601f0160208091040260200160405190810160405280929190818152602001828054611b9590614079565b8015611be25780601f10611bb757610100808354040283529160200191611be2565b820191906000526020600020905b815481529060010190602001808311611bc557829003601f168201915b50505050508152602001600782018054611bfb90614079565b80601f0160208091040260200160405190810160405280929190818152602001828054611c2790614079565b8015611c745780601f10611c4957610100808354040283529160200191611c74565b820191906000526020600020905b815481529060010190602001808311611c5757829003601f168201915b50505050508152602001600882018054611c8d90614079565b80601f0160208091040260200160405190810160405280929190818152602001828054611cb990614079565b8015611d065780601f10611cdb57610100808354040283529160200191611d06565b820191906000526020600020905b815481529060010190602001808311611ce957829003601f168201915b50505050508152602001600982018054611d1f90614079565b80601f0160208091040260200160405190810160405280929190818152602001828054611d4b90614079565b8015611d985780601f10611d6d57610100808354040283529160200191611d98565b820191906000526020600020905b815481529060010190602001808311611d7b57829003601f168201915b50505050508152602001600a8201548152602001600b820160009054906101000a900460ff1615151515815250509050919050565b600382604051611ddd9190614195565b908152602001604051809103902060009054906101000a900460ff16611e38576040517f08c379a0000000000000000000000000000000000000000000000000000000008152600401611e2f906141f8565b60405180910390fd5b60008083604051611e499190614195565b908152602001604051809103902090508060030154821180611e6e5750806003015442115b611ead576040517f08c379a0000000000000000000000000000000000000000000000000000000008152600401611ea4906145f0565b60405180910390fd5b818160030181905550600181600b0160006101000a81548160ff02191690831515021790555060006040518060a001604052806040518060400160405280602081526020017f57617272616e747920506f6c69637920457874656e6465642f52656e6577656481525081526020016040518060400160405280601481526020017f53797374656d2041646d696e6973747261746f7200000000000000000000000081525081526020014281526020016040518060400160405280601681526020017f57617272616e7479436861696e205265676973747279000000000000000000008152508152602001600115158152509050600284604051611fb09190614195565b90815260200160405180910390208190806001815401808255809150506001900390600052602060002090600502016000909190919091506000820151816000019081611ffd9190614487565b5060208201518160010190816120139190614487565b506040820151816002015560608201518160030190816120339190614487565b5060808201518160040160006101000a81548160ff0219169083151502179055505050836040516120649190614195565b60405180910390207fc48617728610542b30e53150a95bc517b3fd09d605352e51ef431d0643aa94c9844260405161209d929190614610565b60405180910390a250505050565b6003846040516120bb9190614195565b908152602001604051809103902060009054906101000a900460ff16612116576040517f08c379a000000000000000000000000000000000000000000000000000000000815260040161210d906141f8565b60405180910390fd5b600080856040516121279190614195565b908152602001604051809103902090508060040160009054906101000a900473ffffffffffffffffffffffffffffffffffffffff1673ffffffffffffffffffffffffffffffffffffffff163373ffffffffffffffffffffffffffffffffffffffff16146121c9576040517f08c379a00000000000000000000000000000000000000000000000000000000081526004016121c090614264565b60405180910390fd5b838160050190816121da9190614487565b50828160060190816121ec9190614487565b50818160070190816121fe9190614487565b5060006001866040516122119190614195565b90815260200160405180910390208054905011156123de5760006001808760405161223c9190614195565b9081526020016040518091039020805490506122589190614668565b90503373ffffffffffffffffffffffffffffffffffffffff166001876040516122819190614195565b908152602001604051809103902082815481106122a1576122a061401b565b5b906000526020600020906005020160000160009054906101000a900473ffffffffffffffffffffffffffffffffffffffff1673ffffffffffffffffffffffffffffffffffffffff16036123dc57846001876040516122ff9190614195565b9081526020016040518091039020828154811061231f5761231e61401b565b5b9060005260206000209060050201600101908161233c9190614487565b508360018760405161234e9190614195565b9081526020016040518091039020828154811061236e5761236d61401b565b5b9060005260206000209060050201600201908161238b9190614487565b508260018760405161239d9190614195565b908152602001604051809103902082815481106123bd576123bc61401b565b5b906000526020600020906005020160030190816123da9190614487565b505b505b846040516123ec9190614195565b60405180910390207f28d04b3a3fb9170b3ad1f62a6d7aa849ab48dfa59927a94c270dd47597eaa82d8260010142604051612428929190614720565b60405180910390a25050505050565b606060008060008060006060806060806060600060038d60405161245b9190614195565b908152602001604051809103902060009054906101000a900460ff166124b6576040517f08c379a00000000000000000000000000000000000000000000000000000000081526004016124ad906141f8565b60405180910390fd5b6000808e6040516124c79190614195565b9081526020016040518091039020604051806101800160405290816000820180546124f190614079565b80601f016020809104026020016040519081016040528092919081815260200182805461251d90614079565b801561256a5780601f1061253f5761010080835404028352916020019161256a565b820191906000526020600020905b81548152906001019060200180831161254d57829003601f168201915b5050505050815260200160018201805461258390614079565b80601f01602080910402602001604051908101604052809291908181526020018280546125af90614079565b80156125fc5780601f106125d1576101008083540402835291602001916125fc565b820191906000526020600020905b8154815290600101906020018083116125df57829003601f168201915b5050505050815260200160028201548152602001600382015481526020016004820160009054906101000a900473ffffffffffffffffffffffffffffffffffffffff1673ffffffffffffffffffffffffffffffffffffffff1673ffffffffffffffffffffffffffffffffffffffff16815260200160058201805461267f90614079565b80601f01602080910402602001604051908101604052809291908181526020018280546126ab90614079565b80156126f85780601f106126cd576101008083540402835291602001916126f8565b820191906000526020600020905b8154815290600101906020018083116126db57829003601f168201915b5050505050815260200160068201805461271190614079565b80601f016020809104026020016040519081016040528092919081815260200182805461273d90614079565b801561278a5780601f1061275f5761010080835404028352916020019161278a565b820191906000526020600020905b81548152906001019060200180831161276d57829003601f168201915b505050505081526020016007820180546127a390614079565b80601f01602080910402602001604051908101604052809291908181526020018280546127cf90614079565b801561281c5780601f106127f15761010080835404028352916020019161281c565b820191906000526020600020905b8154815290600101906020018083116127ff57829003601f168201915b5050505050815260200160088201805461283590614079565b80601f016020809104026020016040519081016040528092919081815260200182805461286190614079565b80156128ae5780601f10612883576101008083540402835291602001916128ae565b820191906000526020600020905b81548152906001019060200180831161289157829003601f168201915b505050505081526020016009820180546128c790614079565b80601f01602080910402602001604051908101604052809291908181526020018280546128f390614079565b80156129405780601f1061291557610100808354040283529160200191612940565b820191906000526020600020905b81548152906001019060200180831161292357829003601f168201915b50505050508152602001600a8201548152602001600b820160009054906101000a900460ff1615151515815250509050600081606001514211159050600081156129a557620151804284606001516129989190614668565b6129a2919061477f565b90505b826020015183604001518460600151848487608001518860a001518960c001518a60e001518b61010001518c61012001518d61016001519e509e509e509e509e509e509e509e509e509e509e509e5050505091939597999b5091939597999b565b600073ffffffffffffffffffffffffffffffffffffffff1660008a604051612a2e9190614195565b908152602001604051809103902060040160009054906101000a900473ffffffffffffffffffffffffffffffffffffffff1673ffffffffffffffffffffffffffffffffffffffff1614612ab6576040517f08c379a0000000000000000000000000000000000000000000000000000000008152600401612aad906147fc565b60405180910390fd5b600482604051612ac69190614195565b908152602001604051809103902060009054906101000a900460ff1615612b22576040517f08c379a0000000000000000000000000000000000000000000000000000000008152600401612b1990614868565b60405180910390fd5b868611612b64576040517f08c379a0000000000000000000000000000000000000000000000000000000008152600401612b5b906148d4565b60405180910390fd5b60006040518061018001604052808b81526020018a81526020018981526020018881526020013373ffffffffffffffffffffffffffffffffffffffff1681526020018781526020018681526020018581526020018481526020018381526020014281526020016000151581525090508060008b604051612be49190614195565b90815260200160405180910390206000820151816000019081612c079190614487565b506020820151816001019081612c1d9190614487565b50604082015181600201556060820151816003015560808201518160040160006101000a81548173ffffffffffffffffffffffffffffffffffffffff021916908373ffffffffffffffffffffffffffffffffffffffff16021790555060a0820151816005019081612c8e9190614487565b5060c0820151816006019081612ca49190614487565b5060e0820151816007019081612cba9190614487565b50610100820151816008019081612cd19190614487565b50610120820151816009019081612ce89190614487565b5061014082015181600a015561016082015181600b0160006101000a81548160ff021916908315150217905550905050600160038b604051612d2a9190614195565b908152602001604051809103902060006101000a81548160ff0219169083151502179055506001600484604051612d619190614195565b908152602001604051809103902060006101000a81548160ff02191690831515021790555060058a908060018154018082558091505060019003906000526020600020016000909190919091509081612dba9190614487565b5060006040518060a001604052803373ffffffffffffffffffffffffffffffffffffffff16815260200188815260200187815260200186815260200142815250905060018b604051612e0c9190614195565b908152602001604051809103902081908060018154018082558091505060019003906000526020600020906005020160009091909190915060008201518160000160006101000a81548173ffffffffffffffffffffffffffffffffffffffff021916908373ffffffffffffffffffffffffffffffffffffffff1602179055506020820151816001019081612ea09190614487565b506040820151816002019081612eb69190614487565b506060820151816003019081612ecc9190614487565b506080820151816004015550503373ffffffffffffffffffffffffffffffffffffffff168b604051612efe9190614195565b60405180910390207f69a364a36de428def83b9136062f8e6214b44410a34f51f779f06dc745de8fca42604051612f359190614559565b60405180910390a35050505050505050505050565b60405180610180016040528060608152602001606081526020016000815260200160008152602001600073ffffffffffffffffffffffffffffffffffffffff1681526020016060815260200160608152602001606081526020016060815260200160608152602001600081526020016000151581525090565b600081519050919050565b600082825260208201905092915050565b6000819050602082019050919050565b600081519050919050565b600082825260208201905092915050565b60005b8381101561302957808201518184015260208101905061300e565b60008484015250505050565b6000601f19601f8301169050919050565b600061305182612fef565b61305b8185612ffa565b935061306b81856020860161300b565b61307481613035565b840191505092915050565b6000819050919050565b6130928161307f565b82525050565b600073ffffffffffffffffffffffffffffffffffffffff82169050919050565b60006130c382613098565b9050919050565b6130d3816130b8565b82525050565b60008115159050919050565b6130ee816130d9565b82525050565b60006101808301600083015184820360008601526131128282613046565b9150506020830151848203602086015261312c8282613046565b91505060408301516131416040860182613089565b5060608301516131546060860182613089565b50608083015161316760808601826130ca565b5060a083015184820360a086015261317f8282613046565b91505060c083015184820360c08601526131998282613046565b91505060e083015184820360e08601526131b38282613046565b9150506101008301518482036101008601526131cf8282613046565b9150506101208301518482036101208601526131eb8282613046565b915050610140830151613202610140860182613089565b506101608301516132176101608601826130e5565b508091505092915050565b600061322e83836130f4565b905092915050565b6000602082019050919050565b600061324e82612fc3565b6132588185612fce565b93508360208202850161326a85612fdf565b8060005b858110156132a657848403895281516132878582613222565b945061329283613236565b925060208a0199505060018101905061326e565b50829750879550505050505092915050565b600060208201905081810360008301526132d28184613243565b905092915050565b6000604051905090565b600080fd5b600080fd5b600080fd5b600080fd5b7f4e487b7100000000000000000000000000000000000000000000000000000000600052604160045260246000fd5b61333082613035565b810181811067ffffffffffffffff8211171561334f5761334e6132f8565b5b80604052505050565b60006133626132da565b905061336e8282613327565b919050565b600067ffffffffffffffff82111561338e5761338d6132f8565b5b61339782613035565b9050602081019050919050565b82818337600083830152505050565b60006133c66133c184613373565b613358565b9050828152602081018484840111156133e2576133e16132f3565b5b6133ed8482856133a4565b509392505050565b600082601f83011261340a576134096132ee565b5b813561341a8482602086016133b3565b91505092915050565b61342c816130b8565b811461343757600080fd5b50565b60008135905061344981613423565b92915050565b600080600080600060a0868803121561346b5761346a6132e4565b5b600086013567ffffffffffffffff811115613489576134886132e9565b5b613495888289016133f5565b95505060206134a68882890161343a565b945050604086013567ffffffffffffffff8111156134c7576134c66132e9565b5b6134d3888289016133f5565b935050606086013567ffffffffffffffff8111156134f4576134f36132e9565b5b613500888289016133f5565b925050608086013567ffffffffffffffff811115613521576135206132e9565b5b61352d888289016133f5565b9150509295509295909350565b6000602082840312156135505761354f6132e4565b5b600082013567ffffffffffffffff81111561356e5761356d6132e9565b5b61357a848285016133f5565b91505092915050565b61358c816130b8565b82525050565b600082825260208201905092915050565b60006135ae82612fef565b6135b88185613592565b93506135c881856020860161300b565b6135d181613035565b840191505092915050565b600081519050919050565b600082825260208201905092915050565b6000819050602082019050919050565b600060a08301600083015161362060008601826130ca565b50602083015184820360208601526136388282613046565b915050604083015184820360408601526136528282613046565b9150506060830151848203606086015261366c8282613046565b91505060808301516136816080860182613089565b508091505092915050565b60006136988383613608565b905092915050565b6000602082019050919050565b60006136b8826135dc565b6136c281856135e7565b9350836020820285016136d4856135f8565b8060005b8581101561371057848403895281516136f1858261368c565b94506136fc836136a0565b925060208a019950506001810190506136d8565b50829750879550505050505092915050565b60006060820190506137376000830186613583565b818103602083015261374981856135a3565b9050818103604083015261375d81846136ad565b9050949350505050565b600081519050919050565b600082825260208201905092915050565b6000819050602082019050919050565b600060a08301600083015184820360008601526137b08282613046565b915050602083015184820360208601526137ca8282613046565b91505060408301516137df6040860182613089565b50606083015184820360608601526137f78282613046565b915050608083015161380c60808601826130e5565b508091505092915050565b60006138238383613793565b905092915050565b6000602082019050919050565b600061384382613767565b61384d8185613772565b93508360208202850161385f85613783565b8060005b8581101561389b578484038952815161387c8582613817565b94506138878361382b565b925060208a01995050600181019050613863565b50829750879550505050505092915050565b600060208201905081810360008301526138c78184613838565b905092915050565b6138d8816130d9565b81146138e357600080fd5b50565b6000813590506138f5816138cf565b92915050565b6139048161307f565b811461390f57600080fd5b50565b600081359050613921816138fb565b92915050565b60008060008060008060c08789031215613944576139436132e4565b5b600087013567ffffffffffffffff811115613962576139616132e9565b5b61396e89828a016133f5565b965050602087013567ffffffffffffffff81111561398f5761398e6132e9565b5b61399b89828a016133f5565b955050604087013567ffffffffffffffff8111156139bc576139bb6132e9565b5b6139c889828a016133f5565b945050606087013567ffffffffffffffff8111156139e9576139e86132e9565b5b6139f589828a016133f5565b9350506080613a0689828a016138e6565b92505060a0613a1789828a01613912565b9150509295509295509295565b600081519050919050565b600082825260208201905092915050565b6000819050602082019050919050565b6000613a5c8383613046565b905092915050565b6000602082019050919050565b6000613a7c82613a24565b613a868185613a2f565b935083602082028501613a9885613a40565b8060005b85811015613ad45784840389528151613ab58582613a50565b9450613ac083613a64565b925060208a01995050600181019050613a9c565b50829750879550505050505092915050565b60006020820190508181036000830152613b008184613a71565b905092915050565b6000610180830160008301518482036000860152613b268282613046565b91505060208301518482036020860152613b408282613046565b9150506040830151613b556040860182613089565b506060830151613b686060860182613089565b506080830151613b7b60808601826130ca565b5060a083015184820360a0860152613b938282613046565b91505060c083015184820360c0860152613bad8282613046565b91505060e083015184820360e0860152613bc78282613046565b915050610100830151848203610100860152613be38282613046565b915050610120830151848203610120860152613bff8282613046565b915050610140830151613c16610140860182613089565b50610160830151613c2b6101608601826130e5565b508091505092915050565b60006020820190508181036000830152613c508184613b08565b905092915050565b60008060408385031215613c6f57613c6e6132e4565b5b600083013567ffffffffffffffff811115613c8d57613c8c6132e9565b5b613c99858286016133f5565b9250506020613caa85828601613912565b9150509250929050565b60008060008060808587031215613cce57613ccd6132e4565b5b600085013567ffffffffffffffff811115613cec57613ceb6132e9565b5b613cf8878288016133f5565b945050602085013567ffffffffffffffff811115613d1957613d186132e9565b5b613d25878288016133f5565b935050604085013567ffffffffffffffff811115613d4657613d456132e9565b5b613d52878288016133f5565b925050606085013567ffffffffffffffff811115613d7357613d726132e9565b5b613d7f878288016133f5565b91505092959194509250565b613d948161307f565b82525050565b613da3816130d9565b82525050565b6000610180820190508181036000830152613dc4818f6135a3565b9050613dd3602083018e613d8b565b613de0604083018d613d8b565b613ded606083018c613d9a565b613dfa608083018b613d8b565b613e0760a083018a613583565b81810360c0830152613e1981896135a3565b905081810360e0830152613e2d81886135a3565b9050818103610100830152613e4281876135a3565b9050818103610120830152613e5781866135a3565b9050818103610140830152613e6c81856135a3565b9050613e7c610160830184613d9a565b9d9c50505050505050505050505050565b60008060008060008060008060006101208a8c031215613eb057613eaf6132e4565b5b60008a013567ffffffffffffffff811115613ece57613ecd6132e9565b5b613eda8c828d016133f5565b99505060208a013567ffffffffffffffff811115613efb57613efa6132e9565b5b613f078c828d016133f5565b9850506040613f188c828d01613912565b9750506060613f298c828d01613912565b96505060808a013567ffffffffffffffff811115613f4a57613f496132e9565b5b613f568c828d016133f5565b95505060a08a013567ffffffffffffffff811115613f7757613f766132e9565b5b613f838c828d016133f5565b94505060c08a013567ffffffffffffffff811115613fa457613fa36132e9565b5b613fb08c828d016133f5565b93505060e08a013567ffffffffffffffff811115613fd157613fd06132e9565b5b613fdd8c828d016133f5565b9250506101008a013567ffffffffffffffff811115613fff57613ffe6132e9565b5b61400b8c828d016133f5565b9150509295985092959850929598565b7f4e487b7100000000000000000000000000000000000000000000000000000000600052603260045260246000fd5b7f4e487b7100000000000000000000000000000000000000000000000000000000600052602260045260246000fd5b6000600282049050600182168061409157607f821691505b6020821081036140a4576140a361404a565b5b50919050565b600081905092915050565b60008190508160005260206000209050919050565b600081546140d781614079565b6140e181866140aa565b945060018216600081146140fc576001811461411157614144565b60ff1983168652811515820286019350614144565b61411a856140b5565b60005b8381101561413c5781548189015260018201915060208101905061411d565b838801955050505b50505092915050565b600061415982846140ca565b915081905092915050565b600061416f82612fef565b61417981856140aa565b935061418981856020860161300b565b80840191505092915050565b60006141a18284614164565b915081905092915050565b7f50726f64756374206e6f7420666f756e64000000000000000000000000000000600082015250565b60006141e2601183613592565b91506141ed826141ac565b602082019050919050565b60006020820190508181036000830152614211816141d5565b9050919050565b7f4e6f7420746865206f776e657200000000000000000000000000000000000000600082015250565b600061424e600d83613592565b915061425982614218565b602082019050919050565b6000602082019050818103600083015261427d81614241565b9050919050565b7f496e76616c6964206e6577206f776e6572206164647265737300000000000000600082015250565b60006142ba601983613592565b91506142c582614284565b602082019050919050565b600060208201905081810360008301526142e9816142ad565b9050919050565b60006020601f8301049050919050565b600082821b905092915050565b60006008830261433d7fffffffffffffffffffffffffffffffffffffffffffffffffffffffffffffffff82614300565b6143478683614300565b95508019841693508086168417925050509392505050565b6000819050919050565b600061438461437f61437a8461307f565b61435f565b61307f565b9050919050565b6000819050919050565b61439e83614369565b6143b26143aa8261438b565b84845461430d565b825550505050565b600090565b6143c76143ba565b6143d2818484614395565b505050565b5b818110156143f6576143eb6000826143bf565b6001810190506143d8565b5050565b601f82111561443b5761440c816140b5565b614415846142f0565b81016020851015614424578190505b614438614430856142f0565b8301826143d7565b50505b505050565b600082821c905092915050565b600061445e60001984600802614440565b1980831691505092915050565b6000614477838361444d565b9150826002028217905092915050565b61449082612fef565b67ffffffffffffffff8111156144a9576144a86132f8565b5b6144b38254614079565b6144be8282856143fa565b600060209050601f8311600181146144f157600084156144df578287015190505b6144e9858261446b565b865550614551565b601f1984166144ff866140b5565b60005b8281101561452757848901518255600182019150602085019450602081019050614502565b868310156145445784890151614540601f89168261444d565b8355505b6001600288020188555050505b505050505050565b600060208201905061456e6000830184613d8b565b92915050565b6000604082019050818103600083015261458e81856135a3565b905061459d6020830184613d8b565b9392505050565b7f4e657720657870697279206d75737420626520696e2074686520667574757265600082015250565b60006145da602083613592565b91506145e5826145a4565b602082019050919050565b60006020820190508181036000830152614609816145cd565b9050919050565b60006040820190506146256000830185613d8b565b6146326020830184613d8b565b9392505050565b7f4e487b7100000000000000000000000000000000000000000000000000000000600052601160045260246000fd5b60006146738261307f565b915061467e8361307f565b925082820390508181111561469657614695614639565b5b92915050565b600081546146a981614079565b6146b38186613592565b945060018216600081146146ce57600181146146e457614717565b60ff198316865281151560200286019350614717565b6146ed856140b5565b60005b8381101561470f578154818901526001820191506020810190506146f0565b808801955050505b50505092915050565b6000604082019050818103600083015261473a818561469c565b90506147496020830184613d8b565b9392505050565b7f4e487b7100000000000000000000000000000000000000000000000000000000600052601260045260246000fd5b600061478a8261307f565b91506147958361307f565b9250826147a5576147a4614750565b5b828204905092915050565b7f50726f6475637420494420616c72656164792072656769737465726564000000600082015250565b60006147e6601d83613592565b91506147f1826147b0565b602082019050919050565b60006020820190508181036000830152614815816147d9565b9050919050565b7f53657269616c204e756d62657220616c72656164792072656769737465726564600082015250565b6000614852602083613592565b915061485d8261481c565b602082019050919050565b6000602082019050818103600083015261488181614845565b9050919050565b7f496e76616c69642077617272616e747920646174657300000000000000000000600082015250565b60006148be601683613592565b91506148c982614888565b602082019050919050565b600060208201905081810360008301526148ed816148b1565b905091905056fea2646970667358221220aafffca0ede86fe7d283b3f2e654df50e729954274c32c065a6010fa378236e164736f6c63430008180033",
  "linkReferences": {},
  "deployedLinkReferences": {}
}