{
  "_format": "hh-sol-artifact-1",
  "contractName": "Warranty",
  "sourceName": "contracts/Warranty.sol",
  "abi": [
    {
      "anonymous": false,
      "inputs": [
        {
          "indexed": true,
          "internalType": "string",
          "name": "productId",
          "type": "string"
        },
        {
          "indexed": true,
          "internalType": "address",
          "name": "oldOwner",
          "type": "address"
        },
        {
          "indexed": true,
          "internalType": "address",
          "name": "newOwner",
          "type": "address"
        },
        {
          "indexed": false,
          "internalType": "uint256",
          "name": "timestamp",
          "type": "uint256"
        }
      ],
      "name": "OwnershipTransferred",
      "type": "event"
    },
    {
      "anonymous": false,
      "inputs": [
        {
          "indexed": true,
          "internalType": "string",
          "name": "productId",
          "type": "string"
        },
        {
          "indexed": true,
          "internalType": "address",
          "name": "owner",
          "type": "address"
        },
        {
          "indexed": false,
          "internalType": "uint256",
          "name": "timestamp",
          "type": "uint256"
        }
      ],
      "name": "ProductRegistered",
      "type": "event"
    },
    {
      "anonymous": false,
      "inputs": [
        {
          "indexed": true,
          "internalType": "string",
          "name": "productId",
          "type": "string"
        },
        {
          "indexed": false,
          "internalType": "string",
          "name": "description",
          "type": "string"
        },
        {
          "indexed": false,
          "internalType": "uint256",
          "name": "timestamp",
          "type": "uint256"
        }
      ],
      "name": "ServiceRecordAdded",
      "type": "event"
    },
    {
      "anonymous": false,
      "inputs": [
        {
          "indexed": true,
          "internalType": "string",
          "name": "productId",
          "type": "string"
        },
        {
          "indexed": false,
          "internalType": "uint256",
          "name": "newExpiryDate",
          "type": "uint256"
        },
        {
          "indexed": false,
          "internalType": "uint256",
          "name": "timestamp",
          "type": "uint256"
        }
      ],
      "name": "WarrantyExtended",
      "type": "event"
    },
    {
      "inputs": [
        {
          "internalType": "string",
          "name": "_productId",
          "type": "string"
        },
        {
          "internalType": "string",
          "name": "_description",
          "type": "string"
        },
        {
          "internalType": "string",
          "name": "_technician",
          "type": "string"
        },
        {
          "internalType": "string",
          "name": "_location",
          "type": "string"
        },
        {
          "internalType": "bool",
          "name": "_isPaid",
          "type": "bool"
        }
      ],
      "name": "addServiceRecord",
      "outputs": [],
      "stateMutability": "nonpayable",
      "type": "function"
    },
    {
      "inputs": [
        {
          "internalType": "string",
          "name": "_productId",
          "type": "string"
        },
        {
          "internalType": "uint256",
          "name": "_newExpiryDate",
          "type": "uint256"
        }
      ],
      "name": "extendWarranty",
      "outputs": [],
      "stateMutability": "nonpayable",
      "type": "function"
    },
    {
      "inputs": [],
      "name": "getAllProductIds",
      "outputs": [
        {
          "internalType": "string[]",
          "name": "",
          "type": "string[]"
        }
      ],
      "stateMutability": "view",
      "type": "function"
    },
    {
      "inputs": [],
      "name": "getAllProducts",
      "outputs": [
        {
          "components": [
            {
              "internalType": "string",
              "name": "productId",
              "type": "string"
            },
            {
              "internalType": "string",
              "name": "productName",
              "type": "string"
            },
            {
              "internalType": "uint256",
              "name": "warrantyStart",
              "type": "uint256"
            },
            {
              "internalType": "uint256",
              "name": "warrantyEnd",
              "type": "uint256"
            },
            {
              "internalType": "address",
              "name": "owner",
              "type": "address"
            },
            {
              "internalType": "string",
              "name": "ownerName",
              "type": "string"
            },
            {
              "internalType": "string",
              "name": "ownerContact",
              "type": "string"
            },
            {
              "internalType": "string",
              "name": "serialNumber",
              "type": "string"
            },
            {
              "internalType": "string",
              "name": "specifications",
              "type": "string"
            },
            {
              "internalType": "uint256",
              "name": "createdAt",
              "type": "uint256"
            }
          ],
          "internalType": "struct Warranty.Product[]",
          "name": "",
          "type": "tuple[]"
        }
      ],
      "stateMutability": "view",
      "type": "function"
    },
    {
      "inputs": [
        {
          "internalType": "string",
          "name": "_productId",
          "type": "string"
        }
      ],
      "name": "getProduct",
      "outputs": [
        {
          "components": [
            {
              "internalType": "string",
              "name": "productId",
              "type": "string"
            },
            {
              "internalType": "string",
              "name": "productName",
              "type": "string"
            },
            {
              "internalType": "uint256",
              "name": "warrantyStart",
              "type": "uint256"
            },
            {
              "internalType": "uint256",
              "name": "warrantyEnd",
              "type": "uint256"
            },
            {
              "internalType": "address",
              "name": "owner",
              "type": "address"
            },
            {
              "internalType": "string",
              "name": "ownerName",
              "type": "string"
            },
            {
              "internalType": "string",
              "name": "ownerContact",
              "type": "string"
            },
            {
              "internalType": "string",
              "name": "serialNumber",
              "type": "string"
            },
            {
              "internalType": "string",
              "name": "specifications",
              "type": "string"
            },
            {
              "internalType": "uint256",
              "name": "createdAt",
              "type": "uint256"
            }
          ],
          "internalType": "struct Warranty.Product",
          "name": "",
          "type": "tuple"
        }
      ],
      "stateMutability": "view",
      "type": "function"
    },
    {
      "inputs": [
        {
          "internalType": "string",
          "name": "_productId",
          "type": "string"
        }
      ],
      "name": "getServiceHistory",
      "outputs": [
        {
          "components": [
            {
              "internalType": "string",
              "name": "description",
              "type": "string"
            },
            {
              "internalType": "string",
              "name": "technicianName",
              "type": "string"
            },
            {
              "internalType": "uint256",
              "name": "serviceDate",
              "type": "uint256"
            },
            {
              "internalType": "string",
              "name": "location",
              "type": "string"
            },
            {
              "internalType": "bool",
              "name": "isPaid",
              "type": "bool"
            }
          ],
          "internalType": "struct Warranty.ServiceRecord[]",
          "name": "",
          "type": "tuple[]"
        }
      ],
      "stateMutability": "view",
      "type": "function"
    },
    {
      "inputs": [
        {
          "internalType": "string",
          "name": "_productId",
          "type": "string"
        },
        {
          "internalType": "string",
          "name": "_productName",
          "type": "string"
        },
        {
          "internalType": "uint256",
          "name": "_warrantyStart",
          "type": "uint256"
        },
        {
          "internalType": "uint256",
          "name": "_warrantyEnd",
          "type": "uint256"
        },
        {
          "internalType": "string",
          "name": "_ownerName",
          "type": "string"
        },
        {
          "internalType": "string",
          "name": "_ownerContact",
          "type": "string"
        },
        {
          "internalType": "string",
          "name": "_serialNumber",
          "type": "string"
        },
        {
          "internalType": "string",
          "name": "_specifications",
          "type": "string"
        }
      ],
      "name": "registerProduct",
      "outputs": [],
      "stateMutability": "nonpayable",
      "type": "function"
    },
    {
      "inputs": [
        {
          "internalType": "string",
          "name": "_productId",
          "type": "string"
        },
        {
          "internalType": "address",
          "name": "_newOwner",
          "type": "address"
        },
        {
          "internalType": "string",
          "name": "_newOwnerName",
          "type": "string"
        },
        {
          "internalType": "string",
          "name": "_newOwnerContact",
          "type": "string"
        }
      ],
      "name": "transferOwnership",
      "outputs": [],
      "stateMutability": "nonpayable",
      "type": "function"
    },
    {
      "inputs": [
        {
          "internalType": "string",
          "name": "_productId",
          "type": "string"
        }
      ],
      "name": "verifyOwnership",
      "outputs": [
        {
          "internalType": "address",
          "name": "currentOwner",
          "type": "address"
        },
        {
          "internalType": "string",
          "name": "currentOwnerName",
          "type": "string"
        },
        {
          "components": [
            {
              "internalType": "address",
              "name": "owner",
              "type": "address"
            },
            {
              "internalType": "string",
              "name": "ownerName",
              "type": "string"
            },
            {
              "internalType": "string",
              "name": "ownerContact",
              "type": "string"
            },
            {
              "internalType": "uint256",
              "name": "transferDate",
              "type": "uint256"
            }
          ],
          "internalType": "struct Warranty.OwnershipRecord[]",
          "name": "history",
          "type": "tuple[]"
        }
      ],
      "stateMutability": "view",
      "type": "function"
    },
    {
      "inputs": [
        {
          "internalType": "string",
          "name": "_productId",
          "type": "string"
        }
      ],
      "name": "verifyWarranty",
      "outputs": [
        {
          "internalType": "string",
          "name": "productName",
          "type": "string"
        },
        {
          "internalType": "uint256",
          "name": "warrantyStart",
          "type": "uint256"
        },
        {
          "internalType": "uint256",
          "name": "warrantyEnd",
          "type": "uint256"
        },
        {
          "internalType": "bool",
          "name": "isValid",
          "type": "bool"
        },
        {
          "internalType": "uint256",
          "name": "daysRemaining",
          "type": "uint256"
        },
        {
          "internalType": "address",
          "name": "owner",
          "type": "address"
        },
        {
          "internalType": "string",
          "name": "ownerName",
          "type": "string"
        },
        {
          "internalType": "string",
          "name": "ownerContact",
          "type": "string"
        },
        {
          "internalType": "string",
          "name": "serialNumber",
          "type": "string"
        },
        {
          "internalType": "string",
          "name": "specifications",
          "type": "string"
        }
      ],
      "stateMutability": "view",
      "type": "function"
    }
  ],
  "bytecode": "0x608060405234801561001057600080fd5b50613eba806100206000396000f3fe608060405234801561001057600080fd5b506004361061009e5760003560e01c806368111cce1161006657806368111cce1461015d5780637e5ac7b11461018d578063b19a58de146101a9578063baa526a8146101c5578063f52c5513146101fe5761009e565b806302ee3a52146100a3578063293f854e146100c15780632f362b61146100f35780635142158c14610123578063663c01af1461013f575b600080fd5b6100ab61021a565b6040516100b89190612a9a565b60405180910390f35b6100db60048036038101906100d69190612c05565b6106e3565b6040516100ea93929190612dd3565b60405180910390f35b61010d60048036038101906101089190612c05565b610d73565b60405161011a9190612f79565b60405180910390f35b61013d60048036038101906101389190612fc7565b611036565b005b6101476111db565b6040516101549190613174565b60405180910390f35b61017760048036038101906101729190612c05565b6112b4565b6040516101849190613293565b60405180910390f35b6101a760048036038101906101a291906132e1565b611738565b005b6101c360048036038101906101be919061333d565b6119f9565b005b6101df60048036038101906101da9190612c05565b611ed9565b6040516101f59a999897969594939291906134b9565b60405180910390f35b610218600480360381019061021391906135a4565b6123e5565b005b6060600060058054905067ffffffffffffffff81111561023d5761023c612ada565b5b60405190808252806020026020018201604052801561027657816020015b610263612788565b81526020019060019003908161025b5790505b50905060005b6005805490508110156106db5760006005828154811061029f5761029e61365f565b5b906000526020600020016040516102b69190613791565b9081526020016040518091039020604051806101400160405290816000820180546102e0906136bd565b80601f016020809104026020016040519081016040528092919081815260200182805461030c906136bd565b80156103595780601f1061032e57610100808354040283529160200191610359565b820191906000526020600020905b81548152906001019060200180831161033c57829003601f168201915b50505050508152602001600182018054610372906136bd565b80601f016020809104026020016040519081016040528092919081815260200182805461039e906136bd565b80156103eb5780601f106103c0576101008083540402835291602001916103eb565b820191906000526020600020905b8154815290600101906020018083116103ce57829003601f168201915b5050505050815260200160028201548152602001600382015481526020016004820160009054906101000a900473ffffffffffffffffffffffffffffffffffffffff1673ffffffffffffffffffffffffffffffffffffffff1673ffffffffffffffffffffffffffffffffffffffff16815260200160058201805461046e906136bd565b80601f016020809104026020016040519081016040528092919081815260200182805461049a906136bd565b80156104e75780601f106104bc576101008083540402835291602001916104e7565b820191906000526020600020905b8154815290600101906020018083116104ca57829003601f168201915b50505050508152602001600682018054610500906136bd565b80601f016020809104026020016040519081016040528092919081815260200182805461052c906136bd565b80156105795780601f1061054e57610100808354040283529160200191610579565b820191906000526020600020905b81548152906001019060200180831161055c57829003601f168201915b50505050508152602001600782018054610592906136bd565b80601f01602080910402602001604051908101604052809291908181526020018280546105be906136bd565b801561060b5780601f106105e05761010080835404028352916020019161060b565b820191906000526020600020905b8154815290600101906020018083116105ee57829003601f168201915b50505050508152602001600882018054610624906136bd565b80601f0160208091040260200160405190810160405280929190818152602001828054610650906136bd565b801561069d5780601f106106725761010080835404028352916020019161069d565b820191906000526020600020905b81548152906001019060200180831161068057829003601f168201915b505050505081526020016009820154815250508282815181106106c3576106c261365f565b5b6020026020010181905250808060010191505061027c565b508091505090565b60006060806003846040516106f891906137d9565b908152602001604051809103902060009054906101000a900460ff16610753576040517f08c379a000000000000000000000000000000000000000000000000000000000815260040161074a9061383c565b60405180910390fd5b6000808560405161076491906137d9565b90815260200160405180910390206040518061014001604052908160008201805461078e906136bd565b80601f01602080910402602001604051908101604052809291908181526020018280546107ba906136bd565b80156108075780601f106107dc57610100808354040283529160200191610807565b820191906000526020600020905b8154815290600101906020018083116107ea57829003601f168201915b50505050508152602001600182018054610820906136bd565b80601f016020809104026020016040519081016040528092919081815260200182805461084c906136bd565b80156108995780601f1061086e57610100808354040283529160200191610899565b820191906000526020600020905b81548152906001019060200180831161087c57829003601f168201915b5050505050815260200160028201548152602001600382015481526020016004820160009054906101000a900473ffffffffffffffffffffffffffffffffffffffff1673ffffffffffffffffffffffffffffffffffffffff1673ffffffffffffffffffffffffffffffffffffffff16815260200160058201805461091c906136bd565b80601f0160208091040260200160405190810160405280929190818152602001828054610948906136bd565b80156109955780601f1061096a57610100808354040283529160200191610995565b820191906000526020600020905b81548152906001019060200180831161097857829003601f168201915b505050505081526020016006820180546109ae906136bd565b80601f01602080910402602001604051908101604052809291908181526020018280546109da906136bd565b8015610a275780601f106109fc57610100808354040283529160200191610a27565b820191906000526020600020905b815481529060010190602001808311610a0a57829003601f168201915b50505050508152602001600782018054610a40906136bd565b80601f0160208091040260200160405190810160405280929190818152602001828054610a6c906136bd565b8015610ab95780601f10610a8e57610100808354040283529160200191610ab9565b820191906000526020600020905b815481529060010190602001808311610a9c57829003601f168201915b50505050508152602001600882018054610ad2906136bd565b80601f0160208091040260200160405190810160405280929190818152602001828054610afe906136bd565b8015610b4b5780601f10610b2057610100808354040283529160200191610b4b565b820191906000526020600020905b815481529060010190602001808311610b2e57829003601f168201915b50505050508152602001600982015481525050905080608001518160a00151600187604051610b7a91906137d9565b908152602001604051809103902080805480602002602001604051908101604052809291908181526020016000905b82821015610d5f57838290600052602060002090600402016040518060800160405290816000820160009054906101000a900473ffffffffffffffffffffffffffffffffffffffff1673ffffffffffffffffffffffffffffffffffffffff1673ffffffffffffffffffffffffffffffffffffffff168152602001600182018054610c32906136bd565b80601f0160208091040260200160405190810160405280929190818152602001828054610c5e906136bd565b8015610cab5780601f10610c8057610100808354040283529160200191610cab565b820191906000526020600020905b815481529060010190602001808311610c8e57829003601f168201915b50505050508152602001600282018054610cc4906136bd565b80601f0160208091040260200160405190810160405280929190818152602001828054610cf0906136bd565b8015610d3d5780601f10610d1257610100808354040283529160200191610d3d565b820191906000526020600020905b815481529060010190602001808311610d2057829003601f168201915b5050505050815260200160038201548152505081526020019060010190610ba9565b505050509050935093509350509193909250565b6060600382604051610d8591906137d9565b908152602001604051809103902060009054906101000a900460ff16610de0576040517f08c379a0000000000000000000000000000000000000000000000000000000008152600401610dd79061383c565b60405180910390fd5b600282604051610df091906137d9565b9081526020016040518091039020805480602002602001604051908101604052809291908181526020016000905b8282101561102b57838290600052602060002090600502016040518060a0016040529081600082018054610e51906136bd565b80601f0160208091040260200160405190810160405280929190818152602001828054610e7d906136bd565b8015610eca5780601f10610e9f57610100808354040283529160200191610eca565b820191906000526020600020905b815481529060010190602001808311610ead57829003601f168201915b50505050508152602001600182018054610ee3906136bd565b80601f0160208091040260200160405190810160405280929190818152602001828054610f0f906136bd565b8015610f5c5780601f10610f3157610100808354040283529160200191610f5c565b820191906000526020600020905b815481529060010190602001808311610f3f57829003601f168201915b5050505050815260200160028201548152602001600382018054610f7f906136bd565b80601f0160208091040260200160405190810160405280929190818152602001828054610fab906136bd565b8015610ff85780601f10610fcd57610100808354040283529160200191610ff8565b820191906000526020600020905b815481529060010190602001808311610fdb57829003601f168201915b505050505081526020016004820160009054906101000a900460ff16151515158152505081526020019060010190610e1e565b505050509050919050565b60038560405161104691906137d9565b908152602001604051809103902060009054906101000a900460ff166110a1576040517f08c379a00000000000000000000000000000000000000000000000000000000081526004016110989061383c565b60405180910390fd5b60006040518060a0016040528086815260200185815260200142815260200184815260200183151581525090506002866040516110de91906137d9565b9081526020016040518091039020819080600181540180825580915050600190039060005260206000209060050201600090919091909150600082015181600001908161112b91906139f3565b50602082015181600101908161114191906139f3565b5060408201518160020155606082015181600301908161116191906139f3565b5060808201518160040160006101000a81548160ff02191690831515021790555050508560405161119291906137d9565b60405180910390207f5620eedf2a600b8dc974715c3a655fefb97a10db749ff7b267a2a62f5677def486426040516111cb929190613ac5565b60405180910390a2505050505050565b60606005805480602002602001604051908101604052809291908181526020016000905b828210156112ab57838290600052602060002001805461121e906136bd565b80601f016020809104026020016040519081016040528092919081815260200182805461124a906136bd565b80156112975780601f1061126c57610100808354040283529160200191611297565b820191906000526020600020905b81548152906001019060200180831161127a57829003601f168201915b5050505050815260200190600101906111ff565b50505050905090565b6112bc612788565b6003826040516112cc91906137d9565b908152602001604051809103902060009054906101000a900460ff16611327576040517f08c379a000000000000000000000000000000000000000000000000000000000815260040161131e9061383c565b60405180910390fd5b60008260405161133791906137d9565b908152602001604051809103902060405180610140016040529081600082018054611361906136bd565b80601f016020809104026020016040519081016040528092919081815260200182805461138d906136bd565b80156113da5780601f106113af576101008083540402835291602001916113da565b820191906000526020600020905b8154815290600101906020018083116113bd57829003601f168201915b505050505081526020016001820180546113f3906136bd565b80601f016020809104026020016040519081016040528092919081815260200182805461141f906136bd565b801561146c5780601f106114415761010080835404028352916020019161146c565b820191906000526020600020905b81548152906001019060200180831161144f57829003601f168201915b5050505050815260200160028201548152602001600382015481526020016004820160009054906101000a900473ffffffffffffffffffffffffffffffffffffffff1673ffffffffffffffffffffffffffffffffffffffff1673ffffffffffffffffffffffffffffffffffffffff1681526020016005820180546114ef906136bd565b80601f016020809104026020016040519081016040528092919081815260200182805461151b906136bd565b80156115685780601f1061153d57610100808354040283529160200191611568565b820191906000526020600020905b81548152906001019060200180831161154b57829003601f168201915b50505050508152602001600682018054611581906136bd565b80601f01602080910402602001604051908101604052809291908181526020018280546115ad906136bd565b80156115fa5780601f106115cf576101008083540402835291602001916115fa565b820191906000526020600020905b8154815290600101906020018083116115dd57829003601f168201915b50505050508152602001600782018054611613906136bd565b80601f016020809104026020016040519081016040528092919081815260200182805461163f906136bd565b801561168c5780601f106116615761010080835404028352916020019161168c565b820191906000526020600020905b81548152906001019060200180831161166f57829003601f168201915b505050505081526020016008820180546116a5906136bd565b80601f01602080910402602001604051908101604052809291908181526020018280546116d1906136bd565b801561171e5780601f106116f35761010080835404028352916020019161171e565b820191906000526020600020905b81548152906001019060200180831161170157829003601f168201915b505050505081526020016009820154815250509050919050565b60038260405161174891906137d9565b908152602001604051809103902060009054906101000a900460ff166117a3576040517f08c379a000000000000000000000000000000000000000000000000000000000815260040161179a9061383c565b60405180910390fd5b600080836040516117b491906137d9565b9081526020016040518091039020905080600301548211806117d95750806003015442115b611818576040517f08c379a000000000000000000000000000000000000000000000000000000000815260040161180f90613b41565b60405180910390fd5b81816003018190555060006040518060a001604052806040518060400160405280602081526020017f57617272616e747920506f6c69637920457874656e6465642f52656e6577656481525081526020016040518060400160405280601481526020017f53797374656d2041646d696e6973747261746f7200000000000000000000000081525081526020014281526020016040518060400160405280601681526020017f57617272616e7479436861696e2052656769737472790000000000000000000081525081526020016001151581525090506002846040516118fe91906137d9565b9081526020016040518091039020819080600181540180825580915050600190039060005260206000209060050201600090919091909150600082015181600001908161194b91906139f3565b50602082015181600101908161196191906139f3565b5060408201518160020155606082015181600301908161198191906139f3565b5060808201518160040160006101000a81548160ff0219169083151502179055505050836040516119b291906137d9565b60405180910390207fc48617728610542b30e53150a95bc517b3fd09d605352e51ef431d0643aa94c984426040516119eb929190613b61565b60405180910390a250505050565b600073ffffffffffffffffffffffffffffffffffffffff16600089604051611a2191906137d9565b908152602001604051809103902060040160009054906101000a900473ffffffffffffffffffffffffffffffffffffffff1673ffffffffffffffffffffffffffffffffffffffff1614611aa9576040517f08c379a0000000000000000000000000000000000000000000000000000000008152600401611aa090613bd6565b60405180910390fd5b600482604051611ab991906137d9565b908152602001604051809103902060009054906101000a900460ff1615611b15576040517f08c379a0000000000000000000000000000000000000000000000000000000008152600401611b0c90613c42565b60405180910390fd5b858511611b57576040517f08c379a0000000000000000000000000000000000000000000000000000000008152600401611b4e90613cae565b60405180910390fd5b60006040518061014001604052808a81526020018981526020018881526020018781526020013373ffffffffffffffffffffffffffffffffffffffff1681526020018681526020018581526020018481526020018381526020014281525090508060008a604051611bc891906137d9565b90815260200160405180910390206000820151816000019081611beb91906139f3565b506020820151816001019081611c0191906139f3565b50604082015181600201556060820151816003015560808201518160040160006101000a81548173ffffffffffffffffffffffffffffffffffffffff021916908373ffffffffffffffffffffffffffffffffffffffff16021790555060a0820151816005019081611c7291906139f3565b5060c0820151816006019081611c8891906139f3565b5060e0820151816007019081611c9e91906139f3565b50610100820151816008019081611cb591906139f3565b506101208201518160090155905050600160038a604051611cd691906137d9565b908152602001604051809103902060006101000a81548160ff0219169083151502179055506001600484604051611d0d91906137d9565b908152602001604051809103902060006101000a81548160ff021916908315150217905550600589908060018154018082558091505060019003906000526020600020016000909190919091509081611d6691906139f3565b50600060405180608001604052803373ffffffffffffffffffffffffffffffffffffffff16815260200187815260200186815260200142815250905060018a604051611db291906137d9565b908152602001604051809103902081908060018154018082558091505060019003906000526020600020906004020160009091909190915060008201518160000160006101000a81548173ffffffffffffffffffffffffffffffffffffffff021916908373ffffffffffffffffffffffffffffffffffffffff1602179055506020820151816001019081611e4691906139f3565b506040820151816002019081611e5c91906139f3565b506060820151816003015550503373ffffffffffffffffffffffffffffffffffffffff168a604051611e8e91906137d9565b60405180910390207f69a364a36de428def83b9136062f8e6214b44410a34f51f779f06dc745de8fca42604051611ec59190613cce565b60405180910390a350505050505050505050565b6060600080600080600060608060608060038b604051611ef991906137d9565b908152602001604051809103902060009054906101000a900460ff16611f54576040517f08c379a0000000000000000000000000000000000000000000000000000000008152600401611f4b9061383c565b60405180910390fd5b6000808c604051611f6591906137d9565b908152602001604051809103902060405180610140016040529081600082018054611f8f906136bd565b80601f0160208091040260200160405190810160405280929190818152602001828054611fbb906136bd565b80156120085780601f10611fdd57610100808354040283529160200191612008565b820191906000526020600020905b815481529060010190602001808311611feb57829003601f168201915b50505050508152602001600182018054612021906136bd565b80601f016020809104026020016040519081016040528092919081815260200182805461204d906136bd565b801561209a5780601f1061206f5761010080835404028352916020019161209a565b820191906000526020600020905b81548152906001019060200180831161207d57829003601f168201915b5050505050815260200160028201548152602001600382015481526020016004820160009054906101000a900473ffffffffffffffffffffffffffffffffffffffff1673ffffffffffffffffffffffffffffffffffffffff1673ffffffffffffffffffffffffffffffffffffffff16815260200160058201805461211d906136bd565b80601f0160208091040260200160405190810160405280929190818152602001828054612149906136bd565b80156121965780601f1061216b57610100808354040283529160200191612196565b820191906000526020600020905b81548152906001019060200180831161217957829003601f168201915b505050505081526020016006820180546121af906136bd565b80601f01602080910402602001604051908101604052809291908181526020018280546121db906136bd565b80156122285780601f106121fd57610100808354040283529160200191612228565b820191906000526020600020905b81548152906001019060200180831161220b57829003601f168201915b50505050508152602001600782018054612241906136bd565b80601f016020809104026020016040519081016040528092919081815260200182805461226d906136bd565b80156122ba5780601f1061228f576101008083540402835291602001916122ba565b820191906000526020600020905b81548152906001019060200180831161229d57829003601f168201915b505050505081526020016008820180546122d3906136bd565b80601f01602080910402602001604051908101604052809291908181526020018280546122ff906136bd565b801561234c5780601f106123215761010080835404028352916020019161234c565b820191906000526020600020905b81548152906001019060200180831161232f57829003601f168201915b5050505050815260200160098201548152505090506000816060015142111590506000811561239657620151804284606001516123899190613d18565b6123939190613d7b565b90505b826020015183604001518460600151848487608001518860a001518960c001518a60e001518b61010001519c509c509c509c509c509c509c509c509c509c505050509193959799509193959799565b6003846040516123f591906137d9565b908152602001604051809103902060009054906101000a900460ff16612450576040517f08c379a00000000000000000000000000000000000000000000000000000000081526004016124479061383c565b60405180910390fd5b6000808560405161246191906137d9565b908152602001604051809103902090508060040160009054906101000a900473ffffffffffffffffffffffffffffffffffffffff1673ffffffffffffffffffffffffffffffffffffffff163373ffffffffffffffffffffffffffffffffffffffff1614612503576040517f08c379a00000000000000000000000000000000000000000000000000000000081526004016124fa90613df8565b60405180910390fd5b600073ffffffffffffffffffffffffffffffffffffffff168473ffffffffffffffffffffffffffffffffffffffff1603612572576040517f08c379a000000000000000000000000000000000000000000000000000000000815260040161256990613e64565b60405180910390fd5b60008160040160009054906101000a900473ffffffffffffffffffffffffffffffffffffffff169050848260040160006101000a81548173ffffffffffffffffffffffffffffffffffffffff021916908373ffffffffffffffffffffffffffffffffffffffff160217905550838260050190816125ef91906139f3565b508282600601908161260191906139f3565b50600060405180608001604052808773ffffffffffffffffffffffffffffffffffffffff16815260200186815260200185815260200142815250905060018760405161264d91906137d9565b908152602001604051809103902081908060018154018082558091505060019003906000526020600020906004020160009091909190915060008201518160000160006101000a81548173ffffffffffffffffffffffffffffffffffffffff021916908373ffffffffffffffffffffffffffffffffffffffff16021790555060208201518160010190816126e191906139f3565b5060408201518160020190816126f791906139f3565b506060820151816003015550508573ffffffffffffffffffffffffffffffffffffffff168273ffffffffffffffffffffffffffffffffffffffff168860405161274091906137d9565b60405180910390207fe9bf8dbaa7eb0b6910401512e60afcae7734db09df0b7291b4a16e630d796e56426040516127779190613cce565b60405180910390a450505050505050565b60405180610140016040528060608152602001606081526020016000815260200160008152602001600073ffffffffffffffffffffffffffffffffffffffff16815260200160608152602001606081526020016060815260200160608152602001600081525090565b600081519050919050565b600082825260208201905092915050565b6000819050602082019050919050565b600081519050919050565b600082825260208201905092915050565b60005b8381101561285757808201518184015260208101905061283c565b60008484015250505050565b6000601f19601f8301169050919050565b600061287f8261281d565b6128898185612828565b9350612899818560208601612839565b6128a281612863565b840191505092915050565b6000819050919050565b6128c0816128ad565b82525050565b600073ffffffffffffffffffffffffffffffffffffffff82169050919050565b60006128f1826128c6565b9050919050565b612901816128e6565b82525050565b60006101408301600083015184820360008601526129258282612874565b9150506020830151848203602086015261293f8282612874565b915050604083015161295460408601826128b7565b50606083015161296760608601826128b7565b50608083015161297a60808601826128f8565b5060a083015184820360a08601526129928282612874565b91505060c083015184820360c08601526129ac8282612874565b91505060e083015184820360e08601526129c68282612874565b9150506101008301518482036101008601526129e28282612874565b9150506101208301516129f96101208601826128b7565b508091505092915050565b6000612a108383612907565b905092915050565b6000602082019050919050565b6000612a30826127f1565b612a3a81856127fc565b935083602082028501612a4c8561280d565b8060005b85811015612a885784840389528151612a698582612a04565b9450612a7483612a18565b925060208a01995050600181019050612a50565b50829750879550505050505092915050565b60006020820190508181036000830152612ab48184612a25565b905092915050565b6000604051905090565b600080fd5b600080fd5b600080fd5b600080fd5b7f4e487b7100000000000000000000000000000000000000000000000000000000600052604160045260246000fd5b612b1282612863565b810181811067ffffffffffffffff82111715612b3157612b30612ada565b5b80604052505050565b6000612b44612abc565b9050612b508282612b09565b919050565b600067ffffffffffffffff821115612b7057612b6f612ada565b5b612b7982612863565b9050602081019050919050565b82818337600083830152505050565b6000612ba8612ba384612b55565b612b3a565b905082815260208101848484011115612bc457612bc3612ad5565b5b612bcf848285612b86565b509392505050565b600082601f830112612bec57612beb612ad0565b5b8135612bfc848260208601612b95565b91505092915050565b600060208284031215612c1b57612c1a612ac6565b5b600082013567ffffffffffffffff811115612c3957612c38612acb565b5b612c4584828501612bd7565b91505092915050565b612c57816128e6565b82525050565b600082825260208201905092915050565b6000612c798261281d565b612c838185612c5d565b9350612c93818560208601612839565b612c9c81612863565b840191505092915050565b600081519050919050565b600082825260208201905092915050565b6000819050602082019050919050565b6000608083016000830151612ceb60008601826128f8565b5060208301518482036020860152612d038282612874565b91505060408301518482036040860152612d1d8282612874565b9150506060830151612d3260608601826128b7565b508091505092915050565b6000612d498383612cd3565b905092915050565b6000602082019050919050565b6000612d6982612ca7565b612d738185612cb2565b935083602082028501612d8585612cc3565b8060005b85811015612dc15784840389528151612da28582612d3d565b9450612dad83612d51565b925060208a01995050600181019050612d89565b50829750879550505050505092915050565b6000606082019050612de86000830186612c4e565b8181036020830152612dfa8185612c6e565b90508181036040830152612e0e8184612d5e565b9050949350505050565b600081519050919050565b600082825260208201905092915050565b6000819050602082019050919050565b60008115159050919050565b612e5981612e44565b82525050565b600060a0830160008301518482036000860152612e7c8282612874565b91505060208301518482036020860152612e968282612874565b9150506040830151612eab60408601826128b7565b5060608301518482036060860152612ec38282612874565b9150506080830151612ed86080860182612e50565b508091505092915050565b6000612eef8383612e5f565b905092915050565b6000602082019050919050565b6000612f0f82612e18565b612f198185612e23565b935083602082028501612f2b85612e34565b8060005b85811015612f675784840389528151612f488582612ee3565b9450612f5383612ef7565b925060208a01995050600181019050612f2f565b50829750879550505050505092915050565b60006020820190508181036000830152612f938184612f04565b905092915050565b612fa481612e44565b8114612faf57600080fd5b50565b600081359050612fc181612f9b565b92915050565b600080600080600060a08688031215612fe357612fe2612ac6565b5b600086013567ffffffffffffffff81111561300157613000612acb565b5b61300d88828901612bd7565b955050602086013567ffffffffffffffff81111561302e5761302d612acb565b5b61303a88828901612bd7565b945050604086013567ffffffffffffffff81111561305b5761305a612acb565b5b61306788828901612bd7565b935050606086013567ffffffffffffffff81111561308857613087612acb565b5b61309488828901612bd7565b92505060806130a588828901612fb2565b9150509295509295909350565b600081519050919050565b600082825260208201905092915050565b6000819050602082019050919050565b60006130ea8383612874565b905092915050565b6000602082019050919050565b600061310a826130b2565b61311481856130bd565b935083602082028501613126856130ce565b8060005b85811015613162578484038952815161314385826130de565b945061314e836130f2565b925060208a0199505060018101905061312a565b50829750879550505050505092915050565b6000602082019050818103600083015261318e81846130ff565b905092915050565b60006101408301600083015184820360008601526131b48282612874565b915050602083015184820360208601526131ce8282612874565b91505060408301516131e360408601826128b7565b5060608301516131f660608601826128b7565b50608083015161320960808601826128f8565b5060a083015184820360a08601526132218282612874565b91505060c083015184820360c086015261323b8282612874565b91505060e083015184820360e08601526132558282612874565b9150506101008301518482036101008601526132718282612874565b9150506101208301516132886101208601826128b7565b508091505092915050565b600060208201905081810360008301526132ad8184613196565b905092915050565b6132be816128ad565b81146132c957600080fd5b50565b6000813590506132db816132b5565b92915050565b600080604083850312156132f8576132f7612ac6565b5b600083013567ffffffffffffffff81111561331657613315612acb565b5b61332285828601612bd7565b9250506020613333858286016132cc565b9150509250929050565b600080600080600080600080610100898b03121561335e5761335d612ac6565b5b600089013567ffffffffffffffff81111561337c5761337b612acb565b5b6133888b828c01612bd7565b985050602089013567ffffffffffffffff8111156133a9576133a8612acb565b5b6133b58b828c01612bd7565b97505060406133c68b828c016132cc565b96505060606133d78b828c016132cc565b955050608089013567ffffffffffffffff8111156133f8576133f7612acb565b5b6134048b828c01612bd7565b94505060a089013567ffffffffffffffff81111561342557613424612acb565b5b6134318b828c01612bd7565b93505060c089013567ffffffffffffffff81111561345257613451612acb565b5b61345e8b828c01612bd7565b92505060e089013567ffffffffffffffff81111561347f5761347e612acb565b5b61348b8b828c01612bd7565b9150509295985092959890939650565b6134a4816128ad565b82525050565b6134b381612e44565b82525050565b60006101408201905081810360008301526134d4818d612c6e565b90506134e3602083018c61349b565b6134f0604083018b61349b565b6134fd606083018a6134aa565b61350a608083018961349b565b61351760a0830188612c4e565b81810360c08301526135298187612c6e565b905081810360e083015261353d8186612c6e565b90508181036101008301526135528185612c6e565b90508181036101208301526135678184612c6e565b90509b9a5050505050505050505050565b613581816128e6565b811461358c57600080fd5b50565b60008135905061359e81613578565b92915050565b600080600080608085870312156135be576135bd612ac6565b5b600085013567ffffffffffffffff8111156135dc576135db612acb565b5b6135e887828801612bd7565b94505060206135f98782880161358f565b935050604085013567ffffffffffffffff81111561361a57613619612acb565b5b61362687828801612bd7565b925050606085013567ffffffffffffffff81111561364757613646612acb565b5b61365387828801612bd7565b91505092959194509250565b7f4e487b7100000000000000000000000000000000000000000000000000000000600052603260045260246000fd5b7f4e487b7100000000000000000000000000000000000000000000000000000000600052602260045260246000fd5b600060028204905060018216806136d557607f821691505b6020821081036136e8576136e761368e565b5b50919050565b600081905092915050565b60008190508160005260206000209050919050565b6000815461371b816136bd565b61372581866136ee565b94506001821660008114613740576001811461375557613788565b60ff1983168652811515820286019350613788565b61375e856136f9565b60005b8381101561378057815481890152600182019150602081019050613761565b838801955050505b50505092915050565b600061379d828461370e565b915081905092915050565b60006137b38261281d565b6137bd81856136ee565b93506137cd818560208601612839565b80840191505092915050565b60006137e582846137a8565b915081905092915050565b7f50726f64756374206e6f7420666f756e64000000000000000000000000000000600082015250565b6000613826601183612c5d565b9150613831826137f0565b602082019050919050565b6000602082019050818103600083015261385581613819565b9050919050565b60006020601f8301049050919050565b600082821b905092915050565b6000600883026138a97fffffffffffffffffffffffffffffffffffffffffffffffffffffffffffffffff8261386c565b6138b3868361386c565b95508019841693508086168417925050509392505050565b6000819050919050565b60006138f06138eb6138e6846128ad565b6138cb565b6128ad565b9050919050565b6000819050919050565b61390a836138d5565b61391e613916826138f7565b848454613879565b825550505050565b600090565b613933613926565b61393e818484613901565b505050565b5b818110156139625761395760008261392b565b600181019050613944565b5050565b601f8211156139a757613978816136f9565b6139818461385c565b81016020851015613990578190505b6139a461399c8561385c565b830182613943565b50505b505050565b600082821c905092915050565b60006139ca600019846008026139ac565b1980831691505092915050565b60006139e383836139b9565b9150826002028217905092915050565b6139fc8261281d565b67ffffffffffffffff811115613a1557613a14612ada565b5b613a1f82546136bd565b613a2a828285613966565b600060209050601f831160018114613a5d5760008415613a4b578287015190505b613a5585826139d7565b865550613abd565b601f198416613a6b866136f9565b60005b82811015613a9357848901518255600182019150602085019450602081019050613a6e565b86831015613ab05784890151613aac601f8916826139b9565b8355505b6001600288020188555050505b505050505050565b60006040820190508181036000830152613adf8185612c6e565b9050613aee602083018461349b565b9392505050565b7f4e657720657870697279206d75737420626520696e2074686520667574757265600082015250565b6000613b2b602083612c5d565b9150613b3682613af5565b602082019050919050565b60006020820190508181036000830152613b5a81613b1e565b9050919050565b6000604082019050613b76600083018561349b565b613b83602083018461349b565b9392505050565b7f50726f6475637420494420616c72656164792072656769737465726564000000600082015250565b6000613bc0601d83612c5d565b9150613bcb82613b8a565b602082019050919050565b60006020820190508181036000830152613bef81613bb3565b9050919050565b7f53657269616c204e756d62657220616c72656164792072656769737465726564600082015250565b6000613c2c602083612c5d565b9150613c3782613bf6565b602082019050919050565b60006020820190508181036000830152613c5b81613c1f565b9050919050565b7f496e76616c69642077617272616e747920646174657300000000000000000000600082015250565b6000613c98601683612c5d565b9150613ca382613c62565b602082019050919050565b60006020820190508181036000830152613cc781613c8b565b9050919050565b6000602082019050613ce3600083018461349b565b92915050565b7f4e487b7100000000000000000000000000000000000000000000000000000000600052601160045260246000fd5b6000613d23826128ad565b9150613d2e836128ad565b9250828203905081811115613d4657613d45613ce9565b5b92915050565b7f4e487b7100000000000000000000000000000000000000000000000000000000600052601260045260246000fd5b6000613d86826128ad565b9150613d91836128ad565b925082613da157613da0613d4c565b5b828204905092915050565b7f4e6f7420746865206f776e657200000000000000000000000000000000000000600082015250565b6000613de2600d83612c5d565b9150613ded82613dac565b602082019050919050565b60006020820190508181036000830152613e1181613dd5565b9050919050565b7f496e76616c6964206e6577206f776e6572206164647265737300000000000000600082015250565b6000613e4e601983612c5d565b9150613e5982613e18565b602082019050919050565b60006020820190508181036000830152613e7d81613e41565b905091905056fea264697066735822122058721c1820b5ebe5f042396590d4682243e01e91524d498d097420cbb5b238c264736f6c63430008180033",
  "linkReferences": {},
  "deployedLinkReferences": {}
}