{
  "_format": "hh-sol-artifact-1",
  "contractName": "Warranty",
  "sourceName": "contracts/Warranty.sol",
  "abi": [
    {
      "anonymous": false,
      "inputs": [
        {
          "indexed": true,
          "internalType": "string",
          "name": "productId",
          "type": "string"
        },
        {
          "indexed": true,
          "internalType": "address",
          "name": "oldOwner",
          "type": "address"
        },
        {
          "indexed": true,
          "internalType": "address",
          "name": "newOwner",
          "type": "address"
        },
        {
          "indexed": false,
          "internalType": "uint256",
          "name": "timestamp",
          "type": "uint256"
        }
      ],
      "name": "OwnershipTransferred",
      "type": "event"
    },
    {
      "anonymous": false,
      "inputs": [
        {
          "indexed": true,
          "internalType": "string",
          "name": "productId",
          "type": "string"
        },
        {
          "indexed": true,
          "internalType": "address",
          "name": "owner",
          "type": "address"
        },
        {
          "indexed": false,
          "internalType": "uint256",
          "name": "timestamp",
          "type": "uint256"
        }
      ],
      "name": "ProductRegistered",
      "type": "event"
    },
    {
      "anonymous": false,
      "inputs": [
        {
          "indexed": true,
          "internalType": "string",
          "name": "productId",
          "type": "string"
        },
        {
          "indexed": false,
          "internalType": "string",
          "name": "productName",
          "type": "string"
        },
        {
          "indexed": false,
          "internalType": "uint256",
          "name": "timestamp",
          "type": "uint256"
        }
      ],
      "name": "ProductUpdated",
      "type": "event"
    },
    {
      "anonymous": false,
      "inputs": [
        {
          "indexed": true,
          "internalType": "string",
          "name": "productId",
          "type": "string"
        },
        {
          "indexed": false,
          "internalType": "string",
          "name": "description",
          "type": "string"
        },
        {
          "indexed": false,
          "internalType": "uint256",
          "name": "timestamp",
          "type": "uint256"
        }
      ],
      "name": "ServiceRecordAdded",
      "type": "event"
    },
    {
      "anonymous": false,
      "inputs": [
        {
          "indexed": true,
          "internalType": "string",
          "name": "productId",
          "type": "string"
        },
        {
          "indexed": false,
          "internalType": "uint256",
          "name": "newExpiryDate",
          "type": "uint256"
        },
        {
          "indexed": false,
          "internalType": "uint256",
          "name": "timestamp",
          "type": "uint256"
        }
      ],
      "name": "WarrantyExtended",
      "type": "event"
    },
    {
      "inputs": [
        {
          "internalType": "string",
          "name": "_productId",
          "type": "string"
        },
        {
          "internalType": "string",
          "name": "_description",
          "type": "string"
        },
        {
          "internalType": "string",
          "name": "_technician",
          "type": "string"
        },
        {
          "internalType": "string",
          "name": "_location",
          "type": "string"
        },
        {
          "internalType": "bool",
          "name": "_isPaid",
          "type": "bool"
        }
      ],
      "name": "addServiceRecord",
      "outputs": [],
      "stateMutability": "nonpayable",
      "type": "function"
    },
    {
      "inputs": [
        {
          "internalType": "string",
          "name": "_productId",
          "type": "string"
        },
        {
          "internalType": "uint256",
          "name": "_newExpiryDate",
          "type": "uint256"
        }
      ],
      "name": "extendWarranty",
      "outputs": [],
      "stateMutability": "nonpayable",
      "type": "function"
    },
    {
      "inputs": [],
      "name": "getAllProductIds",
      "outputs": [
        {
          "internalType": "string[]",
          "name": "",
          "type": "string[]"
        }
      ],
      "stateMutability": "view",
      "type": "function"
    },
    {
      "inputs": [],
      "name": "getAllProducts",
      "outputs": [
        {
          "components": [
            {
              "internalType": "string",
              "name": "productId",
              "type": "string"
            },
            {
              "internalType": "string",
              "name": "productName",
              "type": "string"
            },
            {
              "internalType": "uint256",
              "name": "warrantyStart",
              "type": "uint256"
            },
            {
              "internalType": "uint256",
              "name": "warrantyEnd",
              "type": "uint256"
            },
            {
              "internalType": "address",
              "name": "owner",
              "type": "address"
            },
            {
              "internalType": "string",
              "name": "ownerName",
              "type": "string"
            },
            {
              "internalType": "string",
              "name": "ownerContact",
              "type": "string"
            },
            {
              "internalType": "string",
              "name": "ownerEmail",
              "type": "string"
            },
            {
              "internalType": "string",
              "name": "serialNumber",
              "type": "string"
            },
            {
              "internalType": "string",
              "name": "specifications",
              "type": "string"
            },
            {
              "internalType": "uint256",
              "name": "createdAt",
              "type": "uint256"
            },
            {
              "internalType": "bool",
              "name": "isExtended",
              "type": "bool"
            }
          ],
          "internalType": "struct Warranty.Product[]",
          "name": "",
          "type": "tuple[]"
        }
      ],
      "stateMutability": "view",
      "type": "function"
    },
    {
      "inputs": [
        {
          "internalType": "string",
          "name": "_productId",
          "type": "string"
        }
      ],
      "name": "getProduct",
      "outputs": [
        {
          "components": [
            {
              "internalType": "string",
              "name": "productId",
              "type": "string"
            },
            {
              "internalType": "string",
              "name": "productName",
              "type": "string"
            },
            {
              "internalType": "uint256",
              "name": "warrantyStart",
              "type": "uint256"
            },
            {
              "internalType": "uint256",
              "name": "warrantyEnd",
              "type": "uint256"
            },
            {
              "internalType": "address",
              "name": "owner",
              "type": "address"
            },
            {
              "internalType": "string",
              "name": "ownerName",
              "type": "string"
            },
            {
              "internalType": "string",
              "name": "ownerContact",
              "type": "string"
            },
            {
              "internalType": "string",
              "name": "ownerEmail",
              "type": "string"
            },
            {
              "internalType": "string",
              "name": "serialNumber",
              "type": "string"
            },
            {
              "internalType": "string",
              "name": "specifications",
              "type": "string"
            },
            {
              "internalType": "uint256",
              "name": "createdAt",
              "type": "uint256"
            },
            {
              "internalType": "bool",
              "name": "isExtended",
              "type": "bool"
            }
          ],
          "internalType": "struct Warranty.Product",
          "name": "",
          "type": "tuple"
        }
      ],
      "stateMutability": "view",
      "type": "function"
    },
    {
      "inputs": [
        {
          "internalType": "string",
          "name": "_productId",
          "type": "string"
        }
      ],
      "name": "getServiceHistory",
      "outputs": [
        {
          "components": [
            {
              "internalType": "string",
              "name": "description",
              "type": "string"
            },
            {
              "internalType": "string",
              "name": "technicianName",
              "type": "string"
            },
            {
              "internalType": "uint256",
              "name": "serviceDate",
              "type": "uint256"
            },
            {
              "internalType": "string",
              "name": "location",
              "type": "string"
            },
            {
              "internalType": "bool",
              "name": "isPaid",
              "type": "bool"
            }
          ],
          "internalType": "struct Warranty.ServiceRecord[]",
          "name": "",
          "type": "tuple[]"
        }
      ],
      "stateMutability": "view",
      "type": "function"
    },
    {
      "inputs": [
        {
          "internalType": "string",
          "name": "_productId",
          "type": "string"
        },
        {
          "internalType": "string",
          "name": "_productName",
          "type": "string"
        },
        {
          "internalType": "uint256",
          "name": "_warrantyStart",
          "type": "uint256"
        },
        {
          "internalType": "uint256",
          "name": "_warrantyEnd",
          "type": "uint256"
        },
        {
          "internalType": "string",
          "name": "_ownerName",
          "type": "string"
        },
        {
          "internalType": "string",
          "name": "_ownerContact",
          "type": "string"
        },
        {
          "internalType": "string",
          "name": "_ownerEmail",
          "type": "string"
        },
        {
          "internalType": "string",
          "name": "_serialNumber",
          "type": "string"
        },
        {
          "internalType": "string",
          "name": "_specifications",
          "type": "string"
        }
      ],
      "name": "registerProduct",
      "outputs": [],
      "stateMutability": "nonpayable",
      "type": "function"
    },
    {
      "inputs": [
        {
          "internalType": "string",
          "name": "_productId",
          "type": "string"
        },
        {
          "internalType": "address",
          "name": "_newOwner",
          "type": "address"
        },
        {
          "internalType": "string",
          "name": "_newOwnerName",
          "type": "string"
        },
        {
          "internalType": "string",
          "name": "_newOwnerContact",
          "type": "string"
        },
        {
          "internalType": "string",
          "name": "_newOwnerEmail",
          "type": "string"
        }
      ],
      "name": "transferOwnership",
      "outputs": [],
      "stateMutability": "nonpayable",
      "type": "function"
    },
    {
      "inputs": [
        {
          "internalType": "string",
          "name": "_productId",
          "type": "string"
        },
        {
          "internalType": "string",
          "name": "_ownerName",
          "type": "string"
        },
        {
          "internalType": "string",
          "name": "_ownerContact",
          "type": "string"
        },
        {
          "internalType": "string",
          "name": "_ownerEmail",
          "type": "string"
        }
      ],
      "name": "updateProduct",
      "outputs": [],
      "stateMutability": "nonpayable",
      "type": "function"
    },
    {
      "inputs": [
        {
          "internalType": "string",
          "name": "_productId",
          "type": "string"
        }
      ],
      "name": "verifyOwnership",
      "outputs": [
        {
          "internalType": "address",
          "name": "currentOwner",
          "type": "address"
        },
        {
          "internalType": "string",
          "name": "currentOwnerName",
          "type": "string"
        },
        {
          "components": [
            {
              "internalType": "address",
              "name": "owner",
              "type": "address"
            },
            {
              "internalType": "string",
              "name": "ownerName",
              "type": "string"
            },
            {
              "internalType": "string",
              "name": "ownerContact",
              "type": "string"
            },
            {
              "internalType": "string",
              "name": "ownerEmail",
              "type": "string"
            },
            {
              "internalType": "uint256",
              "name": "transferDate",
              "type": "uint256"
            }
          ],
          "internalType": "struct Warranty.OwnershipRecord[]",
          "name": "history",
          "type": "tuple[]"
        }
      ],
      "stateMutability": "view",
      "type": "function"
    },
    {
      "inputs": [
        {
          "internalType": "string",
          "name": "_productId",
          "type": "string"
        }
      ],
      "name": "verifyWarranty",
      "outputs": [
        {
          "internalType": "string",
          "name": "productName",
          "type": "string"
        },
        {
          "internalType": "uint256",
          "name": "warrantyStart",
          "type": "uint256"
        },
        {
          "internalType": "uint256",
          "name": "warrantyEnd",
          "type": "uint256"
        },
        {
          "internalType": "bool",
          "name": "isValid",
          "type": "bool"
        },
        {
          "internalType": "uint256",
          "name": "daysRemaining",
          "type": "uint256"
        },
        {
          "internalType": "address",
          "name": "owner",
          "type": "address"
        },
        {
          "internalType": "string",
          "name": "ownerName",
          "type": "string"
        },
        {
          "internalType": "string",
          "name": "ownerContact",
          "type": "string"
        },
        {
          "internalType": "string",
          "name": "ownerEmail",
          "type": "string"
        },
        {
          "internalType": "string",
          "name": "serialNumber",
          "type": "string"
        },
        {
          "internalType": "string",
          "name": "specifications",
          "type": "string"
        },
        {
          "internalType": "bool",
          "name": "isExtended",
          "type": "bool"
        }
      ],
      "stateMutability": "view",
      "type": "function"
    }
  ],
  "bytecode": "0x608060405234801561001057600080fd5b50614917806100206000396000f3fe608060405234801561001057600080fd5b50600436106100a95760003560e01c8063663c01af11610071578063663c01af1461016657806368111cce146101845780637e5ac7b1146101b457806393764487146101d0578063baa526a8146101ec578063df04a49914610227576100a9565b806302ee3a52146100ae578063036fed68146100cc578063293f854e146100e85780632f362b611461011a5780635142158c1461014a575b600080fd5b6100b6610243565b6040516100c391906132b7565b60405180910390f35b6100e660048036038101906100e1919061344e565b6107b9565b005b61010260048036038101906100fd9190613539565b610b8b565b60405161011193929190613721565b60405180910390f35b610134600480360381019061012f9190613539565b61135a565b60405161014191906138ac565b60405180910390f35b610164600480360381019061015f91906138fa565b61161d565b005b61016e6117c2565b60405161017b9190613aa7565b60405180910390f35b61019e60048036038101906101999190613539565b61189b565b6040516101ab9190613bf7565b60405180910390f35b6101ce60048036038101906101c99190613c45565b611dcc565b005b6101ea60048036038101906101e59190613ca1565b6120aa565b005b61020660048036038101906102019190613539565b612436565b60405161021e9c9b9a99989796959493929190613d96565b60405180910390f35b610241600480360381019061023c9190613e7a565b612a05565b005b6060600060058054905067ffffffffffffffff811115610266576102656132f7565b5b60405190808252806020026020018201604052801561029f57816020015b61028c612f49565b8152602001906001900390816102845790505b50905060005b6005805490508110156107b1576000600582815481106102c8576102c7614008565b5b906000526020600020016040516102df919061413a565b90815260200160405180910390206040518061018001604052908160008201805461030990614066565b80601f016020809104026020016040519081016040528092919081815260200182805461033590614066565b80156103825780601f1061035757610100808354040283529160200191610382565b820191906000526020600020905b81548152906001019060200180831161036557829003601f168201915b5050505050815260200160018201805461039b90614066565b80601f01602080910402602001604051908101604052809291908181526020018280546103c790614066565b80156104145780601f106103e957610100808354040283529160200191610414565b820191906000526020600020905b8154815290600101906020018083116103f757829003601f168201915b5050505050815260200160028201548152602001600382015481526020016004820160009054906101000a900473ffffffffffffffffffffffffffffffffffffffff1673ffffffffffffffffffffffffffffffffffffffff1673ffffffffffffffffffffffffffffffffffffffff16815260200160058201805461049790614066565b80601f01602080910402602001604051908101604052809291908181526020018280546104c390614066565b80156105105780601f106104e557610100808354040283529160200191610510565b820191906000526020600020905b8154815290600101906020018083116104f357829003601f168201915b5050505050815260200160068201805461052990614066565b80601f016020809104026020016040519081016040528092919081815260200182805461055590614066565b80156105a25780601f10610577576101008083540402835291602001916105a2565b820191906000526020600020905b81548152906001019060200180831161058557829003601f168201915b505050505081526020016007820180546105bb90614066565b80601f01602080910402602001604051908101604052809291908181526020018280546105e790614066565b80156106345780601f1061060957610100808354040283529160200191610634565b820191906000526020600020905b81548152906001019060200180831161061757829003601f168201915b5050505050815260200160088201805461064d90614066565b80601f016020809104026020016040519081016040528092919081815260200182805461067990614066565b80156106c65780601f1061069b576101008083540402835291602001916106c6565b820191906000526020600020905b8154815290600101906020018083116106a957829003601f168201915b505050505081526020016009820180546106df90614066565b80601f016020809104026020016040519081016040528092919081815260200182805461070b90614066565b80156107585780601f1061072d57610100808354040283529160200191610758565b820191906000526020600020905b81548152906001019060200180831161073b57829003601f168201915b50505050508152602001600a8201548152602001600b820160009054906101000a900460ff16151515158152505082828151811061079957610798614008565b5b602002602001018190525080806001019150506102a5565b508091505090565b6003856040516107c99190614182565b908152602001604051809103902060009054906101000a900460ff16610824576040517f08c379a000000000000000000000000000000000000000000000000000000000815260040161081b906141e5565b60405180910390fd5b600080866040516108359190614182565b908152602001604051809103902090508060040160009054906101000a900473ffffffffffffffffffffffffffffffffffffffff1673ffffffffffffffffffffffffffffffffffffffff163373ffffffffffffffffffffffffffffffffffffffff16146108d7576040517f08c379a00000000000000000000000000000000000000000000000000000000081526004016108ce90614251565b60405180910390fd5b600073ffffffffffffffffffffffffffffffffffffffff168573ffffffffffffffffffffffffffffffffffffffff1603610946576040517f08c379a000000000000000000000000000000000000000000000000000000000815260040161093d906142bd565b60405180910390fd5b60008160040160009054906101000a900473ffffffffffffffffffffffffffffffffffffffff169050858260040160006101000a81548173ffffffffffffffffffffffffffffffffffffffff021916908373ffffffffffffffffffffffffffffffffffffffff160217905550848260050190816109c39190614474565b50838260060190816109d59190614474565b50828260070190816109e79190614474565b5060006040518060a001604052808873ffffffffffffffffffffffffffffffffffffffff168152602001878152602001868152602001858152602001428152509050600188604051610a399190614182565b908152602001604051809103902081908060018154018082558091505060019003906000526020600020906005020160009091909190915060008201518160000160006101000a81548173ffffffffffffffffffffffffffffffffffffffff021916908373ffffffffffffffffffffffffffffffffffffffff1602179055506020820151816001019081610acd9190614474565b506040820151816002019081610ae39190614474565b506060820151816003019081610af99190614474565b506080820151816004015550508673ffffffffffffffffffffffffffffffffffffffff168273ffffffffffffffffffffffffffffffffffffffff1689604051610b429190614182565b60405180910390207fe9bf8dbaa7eb0b6910401512e60afcae7734db09df0b7291b4a16e630d796e5642604051610b799190614546565b60405180910390a45050505050505050565b6000606080600384604051610ba09190614182565b908152602001604051809103902060009054906101000a900460ff16610bfb576040517f08c379a0000000000000000000000000000000000000000000000000000000008152600401610bf2906141e5565b60405180910390fd5b60008085604051610c0c9190614182565b908152602001604051809103902060405180610180016040529081600082018054610c3690614066565b80601f0160208091040260200160405190810160405280929190818152602001828054610c6290614066565b8015610caf5780601f10610c8457610100808354040283529160200191610caf565b820191906000526020600020905b815481529060010190602001808311610c9257829003601f168201915b50505050508152602001600182018054610cc890614066565b80601f0160208091040260200160405190810160405280929190818152602001828054610cf490614066565b8015610d415780601f10610d1657610100808354040283529160200191610d41565b820191906000526020600020905b815481529060010190602001808311610d2457829003601f168201915b5050505050815260200160028201548152602001600382015481526020016004820160009054906101000a900473ffffffffffffffffffffffffffffffffffffffff1673ffffffffffffffffffffffffffffffffffffffff1673ffffffffffffffffffffffffffffffffffffffff168152602001600582018054610dc490614066565b80601f0160208091040260200160405190810160405280929190818152602001828054610df090614066565b8015610e3d5780601f10610e1257610100808354040283529160200191610e3d565b820191906000526020600020905b815481529060010190602001808311610e2057829003601f168201915b50505050508152602001600682018054610e5690614066565b80601f0160208091040260200160405190810160405280929190818152602001828054610e8290614066565b8015610ecf5780601f10610ea457610100808354040283529160200191610ecf565b820191906000526020600020905b815481529060010190602001808311610eb257829003601f168201915b50505050508152602001600782018054610ee890614066565b80601f0160208091040260200160405190810160405280929190818152602001828054610f1490614066565b8015610f615780601f10610f3657610100808354040283529160200191610f61565b820191906000526020600020905b815481529060010190602001808311610f4457829003601f168201915b50505050508152602001600882018054610f7a90614066565b80601f0160208091040260200160405190810160405280929190818152602001828054610fa690614066565b8015610ff35780601f10610fc857610100808354040283529160200191610ff3565b820191906000526020600020905b815481529060010190602001808311610fd657829003601f168201915b5050505050815260200160098201805461100c90614066565b80601f016020809104026020016040519081016040528092919081815260200182805461103890614066565b80156110855780601f1061105a57610100808354040283529160200191611085565b820191906000526020600020905b81548152906001019060200180831161106857829003601f168201915b50505050508152602001600a8201548152602001600b820160009054906101000a900460ff161515151581525050905080608001518160a001516001876040516110cf9190614182565b908152602001604051809103902080805480602002602001604051908101604052809291908181526020016000905b8282101561134657838290600052602060002090600502016040518060a00160405290816000820160009054906101000a900473ffffffffffffffffffffffffffffffffffffffff1673ffffffffffffffffffffffffffffffffffffffff1673ffffffffffffffffffffffffffffffffffffffff16815260200160018201805461118790614066565b80601f01602080910402602001604051908101604052809291908181526020018280546111b390614066565b80156112005780601f106111d557610100808354040283529160200191611200565b820191906000526020600020905b8154815290600101906020018083116111e357829003601f168201915b5050505050815260200160028201805461121990614066565b80601f016020809104026020016040519081016040528092919081815260200182805461124590614066565b80156112925780601f1061126757610100808354040283529160200191611292565b820191906000526020600020905b81548152906001019060200180831161127557829003601f168201915b505050505081526020016003820180546112ab90614066565b80601f01602080910402602001604051908101604052809291908181526020018280546112d790614066565b80156113245780601f106112f957610100808354040283529160200191611324565b820191906000526020600020905b81548152906001019060200180831161130757829003601f168201915b50505050508152602001600482015481525050815260200190600101906110fe565b505050509050935093509350509193909250565b606060038260405161136c9190614182565b908152602001604051809103902060009054906101000a900460ff166113c7576040517f08c379a00000000000000000000000000000000000000000000000000000000081526004016113be906141e5565b60405180910390fd5b6002826040516113d79190614182565b9081526020016040518091039020805480602002602001604051908101604052809291908181526020016000905b8282101561161257838290600052602060002090600502016040518060a001604052908160008201805461143890614066565b80601f016020809104026020016040519081016040528092919081815260200182805461146490614066565b80156114b15780601f10611486576101008083540402835291602001916114b1565b820191906000526020600020905b81548152906001019060200180831161149457829003601f168201915b505050505081526020016001820180546114ca90614066565b80601f01602080910402602001604051908101604052809291908181526020018280546114f690614066565b80156115435780601f1061151857610100808354040283529160200191611543565b820191906000526020600020905b81548152906001019060200180831161152657829003601f168201915b505050505081526020016002820154815260200160038201805461156690614066565b80601f016020809104026020016040519081016040528092919081815260200182805461159290614066565b80156115df5780601f106115b4576101008083540402835291602001916115df565b820191906000526020600020905b8154815290600101906020018083116115c257829003601f168201915b505050505081526020016004820160009054906101000a900460ff16151515158152505081526020019060010190611405565b505050509050919050565b60038560405161162d9190614182565b908152602001604051809103902060009054906101000a900460ff16611688576040517f08c379a000000000000000000000000000000000000000000000000000000000815260040161167f906141e5565b60405180910390fd5b60006040518060a0016040528086815260200185815260200142815260200184815260200183151581525090506002866040516116c59190614182565b908152602001604051809103902081908060018154018082558091505060019003906000526020600020906005020160009091909190915060008201518160000190816117129190614474565b5060208201518160010190816117289190614474565b506040820151816002015560608201518160030190816117489190614474565b5060808201518160040160006101000a81548160ff0219169083151502179055505050856040516117799190614182565b60405180910390207f5620eedf2a600b8dc974715c3a655fefb97a10db749ff7b267a2a62f5677def486426040516117b2929190614561565b60405180910390a2505050505050565b60606005805480602002602001604051908101604052809291908181526020016000905b8282101561189257838290600052602060002001805461180590614066565b80601f016020809104026020016040519081016040528092919081815260200182805461183190614066565b801561187e5780601f106118535761010080835404028352916020019161187e565b820191906000526020600020905b81548152906001019060200180831161186157829003601f168201915b5050505050815260200190600101906117e6565b50505050905090565b6118a3612f49565b6003826040516118b39190614182565b908152602001604051809103902060009054906101000a900460ff1661190e576040517f08c379a0000000000000000000000000000000000000000000000000000000008152600401611905906141e5565b60405180910390fd5b60008260405161191e9190614182565b90815260200160405180910390206040518061018001604052908160008201805461194890614066565b80601f016020809104026020016040519081016040528092919081815260200182805461197490614066565b80156119c15780601f10611996576101008083540402835291602001916119c1565b820191906000526020600020905b8154815290600101906020018083116119a457829003601f168201915b505050505081526020016001820180546119da90614066565b80601f0160208091040260200160405190810160405280929190818152602001828054611a0690614066565b8015611a535780601f10611a2857610100808354040283529160200191611a53565b820191906000526020600020905b815481529060010190602001808311611a3657829003601f168201915b5050505050815260200160028201548152602001600382015481526020016004820160009054906101000a900473ffffffffffffffffffffffffffffffffffffffff1673ffffffffffffffffffffffffffffffffffffffff1673ffffffffffffffffffffffffffffffffffffffff168152602001600582018054611ad690614066565b80601f0160208091040260200160405190810160405280929190818152602001828054611b0290614066565b8015611b4f5780601f10611b2457610100808354040283529160200191611b4f565b820191906000526020600020905b815481529060010190602001808311611b3257829003601f168201915b50505050508152602001600682018054611b6890614066565b80601f0160208091040260200160405190810160405280929190818152602001828054611b9490614066565b8015611be15780601f10611bb657610100808354040283529160200191611be1565b820191906000526020600020905b815481529060010190602001808311611bc457829003601f168201915b50505050508152602001600782018054611bfa90614066565b80601f0160208091040260200160405190810160405280929190818152602001828054611c2690614066565b8015611c735780601f10611c4857610100808354040283529160200191611c73565b820191906000526020600020905b815481529060010190602001808311611c5657829003601f168201915b50505050508152602001600882018054611c8c90614066565b80601f0160208091040260200160405190810160405280929190818152602001828054611cb890614066565b8015611d055780601f10611cda57610100808354040283529160200191611d05565b820191906000526020600020905b815481529060010190602001808311611ce857829003601f168201915b50505050508152602001600982018054611d1e90614066565b80601f0160208091040260200160405190810160405280929190818152602001828054611d4a90614066565b8015611d975780601f10611d6c57610100808354040283529160200191611d97565b820191906000526020600020905b815481529060010190602001808311611d7a57829003601f168201915b50505050508152602001600a8201548152602001600b820160009054906101000a900460ff1615151515815250509050919050565b600382604051611ddc9190614182565b908152602001604051809103902060009054906101000a900460ff16611e37576040517f08c379a0000000000000000000000000000000000000000000000000000000008152600401611e2e906141e5565b60405180910390fd5b60008083604051611e489190614182565b908152602001604051809103902090508060030154821180611e6d5750806003015442115b611eac576040517f08c379a0000000000000000000000000000000000000000000000000000000008152600401611ea3906145dd565b60405180910390fd5b818160030181905550600181600b0160006101000a81548160ff02191690831515021790555060006040518060a001604052806040518060400160405280602081526020017f57617272616e747920506f6c69637920457874656e6465642f52656e6577656481525081526020016040518060400160405280601481526020017f53797374656d2041646d696e6973747261746f7200000000000000000000000081525081526020014281526020016040518060400160405280601681526020017f57617272616e7479436861696e205265676973747279000000000000000000008152508152602001600115158152509050600284604051611faf9190614182565b90815260200160405180910390208190806001815401808255809150506001900390600052602060002090600502016000909190919091506000820151816000019081611ffc9190614474565b5060208201518160010190816120129190614474565b506040820151816002015560608201518160030190816120329190614474565b5060808201518160040160006101000a81548160ff0219169083151502179055505050836040516120639190614182565b60405180910390207fc48617728610542b30e53150a95bc517b3fd09d605352e51ef431d0643aa94c9844260405161209c9291906145fd565b60405180910390a250505050565b6003846040516120ba9190614182565b908152602001604051809103902060009054906101000a900460ff16612115576040517f08c379a000000000000000000000000000000000000000000000000000000000815260040161210c906141e5565b60405180910390fd5b600080856040516121269190614182565b908152602001604051809103902090508060040160009054906101000a900473ffffffffffffffffffffffffffffffffffffffff1673ffffffffffffffffffffffffffffffffffffffff163373ffffffffffffffffffffffffffffffffffffffff16146121c8576040517f08c379a00000000000000000000000000000000000000000000000000000000081526004016121bf90614251565b60405180910390fd5b838160050190816121d99190614474565b50828160060190816121eb9190614474565b50818160070190816121fd9190614474565b5060006001866040516122109190614182565b90815260200160405180910390208054905011156123dd5760006001808760405161223b9190614182565b9081526020016040518091039020805490506122579190614655565b90503373ffffffffffffffffffffffffffffffffffffffff166001876040516122809190614182565b908152602001604051809103902082815481106122a05761229f614008565b5b906000526020600020906005020160000160009054906101000a900473ffffffffffffffffffffffffffffffffffffffff1673ffffffffffffffffffffffffffffffffffffffff16036123db57846001876040516122fe9190614182565b9081526020016040518091039020828154811061231e5761231d614008565b5b9060005260206000209060050201600101908161233b9190614474565b508360018760405161234d9190614182565b9081526020016040518091039020828154811061236d5761236c614008565b5b9060005260206000209060050201600201908161238a9190614474565b508260018760405161239c9190614182565b908152602001604051809103902082815481106123bc576123bb614008565b5b906000526020600020906005020160030190816123d99190614474565b505b505b846040516123eb9190614182565b60405180910390207f28d04b3a3fb9170b3ad1f62a6d7aa849ab48dfa59927a94c270dd47597eaa82d826001014260405161242792919061470d565b60405180910390a25050505050565b606060008060008060006060806060806060600060038d60405161245a9190614182565b908152602001604051809103902060009054906101000a900460ff166124b5576040517f08c379a00000000000000000000000000000000000000000000000000000000081526004016124ac906141e5565b60405180910390fd5b6000808e6040516124c69190614182565b9081526020016040518091039020604051806101800160405290816000820180546124f090614066565b80601f016020809104026020016040519081016040528092919081815260200182805461251c90614066565b80156125695780601f1061253e57610100808354040283529160200191612569565b820191906000526020600020905b81548152906001019060200180831161254c57829003601f168201915b5050505050815260200160018201805461258290614066565b80601f01602080910402602001604051908101604052809291908181526020018280546125ae90614066565b80156125fb5780601f106125d0576101008083540402835291602001916125fb565b820191906000526020600020905b8154815290600101906020018083116125de57829003601f168201915b5050505050815260200160028201548152602001600382015481526020016004820160009054906101000a900473ffffffffffffffffffffffffffffffffffffffff1673ffffffffffffffffffffffffffffffffffffffff1673ffffffffffffffffffffffffffffffffffffffff16815260200160058201805461267e90614066565b80601f01602080910402602001604051908101604052809291908181526020018280546126aa90614066565b80156126f75780601f106126cc576101008083540402835291602001916126f7565b820191906000526020600020905b8154815290600101906020018083116126da57829003601f168201915b5050505050815260200160068201805461271090614066565b80601f016020809104026020016040519081016040528092919081815260200182805461273c90614066565b80156127895780601f1061275e57610100808354040283529160200191612789565b820191906000526020600020905b81548152906001019060200180831161276c57829003601f168201915b505050505081526020016007820180546127a290614066565b80601f01602080910402602001604051908101604052809291908181526020018280546127ce90614066565b801561281b5780601f106127f05761010080835404028352916020019161281b565b820191906000526020600020905b8154815290600101906020018083116127fe57829003601f168201915b5050505050815260200160088201805461283490614066565b80601f016020809104026020016040519081016040528092919081815260200182805461286090614066565b80156128ad5780601f10612882576101008083540402835291602001916128ad565b820191906000526020600020905b81548152906001019060200180831161289057829003601f168201915b505050505081526020016009820180546128c690614066565b80601f01602080910402602001604051908101604052809291908181526020018280546128f290614066565b801561293f5780601f106129145761010080835404028352916020019161293f565b820191906000526020600020905b81548152906001019060200180831161292257829003601f168201915b50505050508152602001600a8201548152602001600b820160009054906101000a900460ff1615151515815250509050600081606001514211159050600081156129a457620151804284606001516129979190614655565b6129a1919061476c565b90505b826020015183604001518460600151848487608001518860a001518960c001518a60e001518b61010001518c61012001518d61016001519e509e509e509e509e509e509e509e509e509e509e509e5050505091939597999b5091939597999b565b600073ffffffffffffffffffffffffffffffffffffffff1660008a604051612a2d9190614182565b908152602001604051809103902060040160009054906101000a900473ffffffffffffffffffffffffffffffffffffffff1673ffffffffffffffffffffffffffffffffffffffff1614612ab5576040517f08c379a0000000000000000000000000000000000000000000000000000000008152600401612aac906147e9565b60405180910390fd5b600482604051612ac59190614182565b908152602001604051809103902060009054906101000a900460ff1615612b21576040517f08c379a0000000000000000000000000000000000000000000000000000000008152600401612b1890614855565b60405180910390fd5b868611612b63576040517f08c379a0000000000000000000000000000000000000000000000000000000008152600401612b5a906148c1565b60405180910390fd5b60006040518061018001604052808b81526020018a81526020018981526020018881526020013373ffffffffffffffffffffffffffffffffffffffff1681526020018781526020018681526020018581526020018481526020018381526020014281526020016000151581525090508060008b604051612be39190614182565b90815260200160405180910390206000820151816000019081612c069190614474565b506020820151816001019081612c1c9190614474565b50604082015181600201556060820151816003015560808201518160040160006101000a81548173ffffffffffffffffffffffffffffffffffffffff021916908373ffffffffffffffffffffffffffffffffffffffff16021790555060a0820151816005019081612c8d9190614474565b5060c0820151816006019081612ca39190614474565b5060e0820151816007019081612cb99190614474565b50610100820151816008019081612cd09190614474565b50610120820151816009019081612ce79190614474565b5061014082015181600a015561016082015181600b0160006101000a81548160ff021916908315150217905550905050600160038b604051612d299190614182565b908152602001604051809103902060006101000a81548160ff0219169083151502179055506001600484604051612d609190614182565b908152602001604051809103902060006101000a81548160ff02191690831515021790555060058a908060018154018082558091505060019003906000526020600020016000909190919091509081612db99190614474565b5060006040518060a001604052803373ffffffffffffffffffffffffffffffffffffffff16815260200188815260200187815260200186815260200142815250905060018b604051612e0b9190614182565b908152602001604051809103902081908060018154018082558091505060019003906000526020600020906005020160009091909190915060008201518160000160006101000a81548173ffffffffffffffffffffffffffffffffffffffff021916908373ffffffffffffffffffffffffffffffffffffffff1602179055506020820151816001019081612e9f9190614474565b506040820151816002019081612eb59190614474565b506060820151816003019081612ecb9190614474565b506080820151816004015550503373ffffffffffffffffffffffffffffffffffffffff168b604051612efd9190614182565b60405180910390207f69a364a36de428def83b9136062f8e6214b44410a34f51f779f06dc745de8fca42604051612f349190614546565b60405180910390a35050505050505050505050565b60405180610180016040528060608152602001606081526020016000815260200160008152602001600073ffffffffffffffffffffffffffffffffffffffff1681526020016060815260200160608152602001606081526020016060815260200160608152602001600081526020016000151581525090565b600081519050919050565b600082825260208201905092915050565b6000819050602082019050919050565b600081519050919050565b600082825260208201905092915050565b60005b8381101561302857808201518184015260208101905061300d565b60008484015250505050565b6000601f19601f8301169050919050565b600061305082612fee565b61305a8185612ff9565b935061306a81856020860161300a565b61307381613034565b840191505092915050565b6000819050919050565b6130918161307e565b82525050565b600073ffffffffffffffffffffffffffffffffffffffff82169050919050565b60006130c282613097565b9050919050565b6130d2816130b7565b82525050565b60008115159050919050565b6130ed816130d8565b82525050565b60006101808301600083015184820360008601526131118282613045565b9150506020830151848203602086015261312b8282613045565b91505060408301516131406040860182613088565b5060608301516131536060860182613088565b50608083015161316660808601826130c9565b5060a083015184820360a086015261317e8282613045565b91505060c083015184820360c08601526131988282613045565b91505060e083015184820360e08601526131b28282613045565b9150506101008301518482036101008601526131ce8282613045565b9150506101208301518482036101208601526131ea8282613045565b915050610140830151613201610140860182613088565b506101608301516132166101608601826130e4565b508091505092915050565b600061322d83836130f3565b905092915050565b6000602082019050919050565b600061324d82612fc2565b6132578185612fcd565b93508360208202850161326985612fde565b8060005b858110156132a557848403895281516132868582613221565b945061329183613235565b925060208a0199505060018101905061326d565b50829750879550505050505092915050565b600060208201905081810360008301526132d18184613242565b905092915050565b6000604051905090565b600080fd5b600080fd5b600080fd5b600080fd5b7f4e487b7100000000000000000000000000000000000000000000000000000000600052604160045260246000fd5b61332f82613034565b810181811067ffffffffffffffff8211171561334e5761334d6132f7565b5b80604052505050565b60006133616132d9565b905061336d8282613326565b919050565b600067ffffffffffffffff82111561338d5761338c6132f7565b5b61339682613034565b9050602081019050919050565b82818337600083830152505050565b60006133c56133c084613372565b613357565b9050828152602081018484840111156133e1576133e06132f2565b5b6133ec8482856133a3565b509392505050565b600082601f830112613409576134086132ed565b5b81356134198482602086016133b2565b91505092915050565b61342b816130b7565b811461343657600080fd5b50565b60008135905061344881613422565b92915050565b600080600080600060a0868803121561346a576134696132e3565b5b600086013567ffffffffffffffff811115613488576134876132e8565b5b613494888289016133f4565b95505060206134a588828901613439565b945050604086013567ffffffffffffffff8111156134c6576134c56132e8565b5b6134d2888289016133f4565b935050606086013567ffffffffffffffff8111156134f3576134f26132e8565b5b6134ff888289016133f4565b925050608086013567ffffffffffffffff8111156135205761351f6132e8565b5b61352c888289016133f4565b9150509295509295909350565b60006020828403121561354f5761354e6132e3565b5b600082013567ffffffffffffffff81111561356d5761356c6132e8565b5b613579848285016133f4565b91505092915050565b61358b816130b7565b82525050565b600082825260208201905092915050565b60006135ad82612fee565b6135b78185613591565b93506135c781856020860161300a565b6135d081613034565b840191505092915050565b600081519050919050565b600082825260208201905092915050565b6000819050602082019050919050565b600060a08301600083015161361f60008601826130c9565b50602083015184820360208601526136378282613045565b915050604083015184820360408601526136518282613045565b9150506060830151848203606086015261366b8282613045565b91505060808301516136806080860182613088565b508091505092915050565b60006136978383613607565b905092915050565b6000602082019050919050565b60006136b7826135db565b6136c181856135e6565b9350836020820285016136d3856135f7565b8060005b8581101561370f57848403895281516136f0858261368b565b94506136fb8361369f565b925060208a019950506001810190506136d7565b50829750879550505050505092915050565b60006060820190506137366000830186613582565b818103602083015261374881856135a2565b9050818103604083015261375c81846136ac565b9050949350505050565b600081519050919050565b600082825260208201905092915050565b6000819050602082019050919050565b600060a08301600083015184820360008601526137af8282613045565b915050602083015184820360208601526137c98282613045565b91505060408301516137de6040860182613088565b50606083015184820360608601526137f68282613045565b915050608083015161380b60808601826130e4565b508091505092915050565b60006138228383613792565b905092915050565b6000602082019050919050565b600061384282613766565b61384c8185613771565b93508360208202850161385e85613782565b8060005b8581101561389a578484038952815161387b8582613816565b94506138868361382a565b925060208a01995050600181019050613862565b50829750879550505050505092915050565b600060208201905081810360008301526138c68184613837565b905092915050565b6138d7816130d8565b81146138e257600080fd5b50565b6000813590506138f4816138ce565b92915050565b600080600080600060a08688031215613916576139156132e3565b5b600086013567ffffffffffffffff811115613934576139336132e8565b5b613940888289016133f4565b955050602086013567ffffffffffffffff811115613961576139606132e8565b5b61396d888289016133f4565b945050604086013567ffffffffffffffff81111561398e5761398d6132e8565b5b61399a888289016133f4565b935050606086013567ffffffffffffffff8111156139bb576139ba6132e8565b5b6139c7888289016133f4565b92505060806139d8888289016138e5565b9150509295509295909350565b600081519050919050565b600082825260208201905092915050565b6000819050602082019050919050565b6000613a1d8383613045565b905092915050565b6000602082019050919050565b6000613a3d826139e5565b613a4781856139f0565b935083602082028501613a5985613a01565b8060005b85811015613a955784840389528151613a768582613a11565b9450613a8183613a25565b925060208a01995050600181019050613a5d565b50829750879550505050505092915050565b60006020820190508181036000830152613ac18184613a32565b905092915050565b6000610180830160008301518482036000860152613ae78282613045565b91505060208301518482036020860152613b018282613045565b9150506040830151613b166040860182613088565b506060830151613b296060860182613088565b506080830151613b3c60808601826130c9565b5060a083015184820360a0860152613b548282613045565b91505060c083015184820360c0860152613b6e8282613045565b91505060e083015184820360e0860152613b888282613045565b915050610100830151848203610100860152613ba48282613045565b915050610120830151848203610120860152613bc08282613045565b915050610140830151613bd7610140860182613088565b50610160830151613bec6101608601826130e4565b508091505092915050565b60006020820190508181036000830152613c118184613ac9565b905092915050565b613c228161307e565b8114613c2d57600080fd5b50565b600081359050613c3f81613c19565b92915050565b60008060408385031215613c5c57613c5b6132e3565b5b600083013567ffffffffffffffff811115613c7a57613c796132e8565b5b613c86858286016133f4565b9250506020613c9785828601613c30565b9150509250929050565b60008060008060808587031215613cbb57613cba6132e3565b5b600085013567ffffffffffffffff811115613cd957613cd86132e8565b5b613ce5878288016133f4565b945050602085013567ffffffffffffffff811115613d0657613d056132e8565b5b613d12878288016133f4565b935050604085013567ffffffffffffffff811115613d3357613d326132e8565b5b613d3f878288016133f4565b925050606085013567ffffffffffffffff811115613d6057613d5f6132e8565b5b613d6c878288016133f4565b91505092959194509250565b613d818161307e565b82525050565b613d90816130d8565b82525050565b6000610180820190508181036000830152613db1818f6135a2565b9050613dc0602083018e613d78565b613dcd604083018d613d78565b613dda606083018c613d87565b613de7608083018b613d78565b613df460a083018a613582565b81810360c0830152613e0681896135a2565b905081810360e0830152613e1a81886135a2565b9050818103610100830152613e2f81876135a2565b9050818103610120830152613e4481866135a2565b9050818103610140830152613e5981856135a2565b9050613e69610160830184613d87565b9d9c50505050505050505050505050565b60008060008060008060008060006101208a8c031215613e9d57613e9c6132e3565b5b60008a013567ffffffffffffffff811115613ebb57613eba6132e8565b5b613ec78c828d016133f4565b99505060208a013567ffffffffffffffff811115613ee857613ee76132e8565b5b613ef48c828d016133f4565b9850506040613f058c828d01613c30565b9750506060613f168c828d01613c30565b96505060808a013567ffffffffffffffff811115613f3757613f366132e8565b5b613f438c828d016133f4565b95505060a08a013567ffffffffffffffff811115613f6457613f636132e8565b5b613f708c828d016133f4565b94505060c08a013567ffffffffffffffff811115613f9157613f906132e8565b5b613f9d8c828d016133f4565b93505060e08a013567ffffffffffffffff811115613fbe57613fbd6132e8565b5b613fca8c828d016133f4565b9250506101008a013567ffffffffffffffff811115613fec57613feb6132e8565b5b613ff88c828d016133f4565b9150509295985092959850929598565b7f4e487b7100000000000000000000000000000000000000000000000000000000600052603260045260246000fd5b7f4e487b7100000000000000000000000000000000000000000000000000000000600052602260045260246000fd5b6000600282049050600182168061407e57607f821691505b60208210810361409157614090614037565b5b50919050565b600081905092915050565b60008190508160005260206000209050919050565b600081546140c481614066565b6140ce8186614097565b945060018216600081146140e957600181146140fe57614131565b60ff1983168652811515820286019350614131565b614107856140a2565b60005b838110156141295781548189015260018201915060208101905061410a565b838801955050505b50505092915050565b600061414682846140b7565b915081905092915050565b600061415c82612fee565b6141668185614097565b935061417681856020860161300a565b80840191505092915050565b600061418e8284614151565b915081905092915050565b7f50726f64756374206e6f7420666f756e64000000000000000000000000000000600082015250565b60006141cf601183613591565b91506141da82614199565b602082019050919050565b600060208201905081810360008301526141fe816141c2565b9050919050565b7f4e6f7420746865206f776e657200000000000000000000000000000000000000600082015250565b600061423b600d83613591565b915061424682614205565b602082019050919050565b6000602082019050818103600083015261426a8161422e565b9050919050565b7f496e76616c6964206e6577206f776e6572206164647265737300000000000000600082015250565b60006142a7601983613591565b91506142b282614271565b602082019050919050565b600060208201905081810360008301526142d68161429a565b9050919050565b60006020601f8301049050919050565b600082821b905092915050565b60006008830261432a7fffffffffffffffffffffffffffffffffffffffffffffffffffffffffffffffff826142ed565b61433486836142ed565b95508019841693508086168417925050509392505050565b6000819050919050565b600061437161436c6143678461307e565b61434c565b61307e565b9050919050565b6000819050919050565b61438b83614356565b61439f61439782614378565b8484546142fa565b825550505050565b600090565b6143b46143a7565b6143bf818484614382565b505050565b5b818110156143e3576143d86000826143ac565b6001810190506143c5565b5050565b601f821115614428576143f9816140a2565b614402846142dd565b81016020851015614411578190505b61442561441d856142dd565b8301826143c4565b50505b505050565b600082821c905092915050565b600061444b6000198460080261442d565b1980831691505092915050565b6000614464838361443a565b9150826002028217905092915050565b61447d82612fee565b67ffffffffffffffff811115614496576144956132f7565b5b6144a08254614066565b6144ab8282856143e7565b600060209050601f8311600181146144de57600084156144cc578287015190505b6144d68582614458565b86555061453e565b601f1984166144ec866140a2565b60005b82811015614514578489015182556001820191506020850194506020810190506144ef565b86831015614531578489015161452d601f89168261443a565b8355505b6001600288020188555050505b505050505050565b600060208201905061455b6000830184613d78565b92915050565b6000604082019050818103600083015261457b81856135a2565b905061458a6020830184613d78565b9392505050565b7f4e657720657870697279206d75737420626520696e2074686520667574757265600082015250565b60006145c7602083613591565b91506145d282614591565b602082019050919050565b600060208201905081810360008301526145f6816145ba565b9050919050565b60006040820190506146126000830185613d78565b61461f6020830184613d78565b9392505050565b7f4e487b7100000000000000000000000000000000000000000000000000000000600052601160045260246000fd5b60006146608261307e565b915061466b8361307e565b925082820390508181111561468357614682614626565b5b92915050565b6000815461469681614066565b6146a08186613591565b945060018216600081146146bb57600181146146d157614704565b60ff198316865281151560200286019350614704565b6146da856140a2565b60005b838110156146fc578154818901526001820191506020810190506146dd565b808801955050505b50505092915050565b600060408201905081810360008301526147278185614689565b90506147366020830184613d78565b9392505050565b7f4e487b7100000000000000000000000000000000000000000000000000000000600052601260045260246000fd5b60006147778261307e565b91506147828361307e565b9250826147925761479161473d565b5b828204905092915050565b7f50726f6475637420494420616c72656164792072656769737465726564000000600082015250565b60006147d3601d83613591565b91506147de8261479d565b602082019050919050565b60006020820190508181036000830152614802816147c6565b9050919050565b7f53657269616c204e756d62657220616c72656164792072656769737465726564600082015250565b600061483f602083613591565b915061484a82614809565b602082019050919050565b6000602082019050818103600083015261486e81614832565b9050919050565b7f496e76616c69642077617272616e747920646174657300000000000000000000600082015250565b60006148ab601683613591565b91506148b682614875565b602082019050919050565b600060208201905081810360008301526148da8161489e565b905091905056fea264697066735822122032e03ede441c8be0ea5bd52f0e20154fc0c972eda5ed9125724f161f78001f4a64736f6c63430008180033",
  "linkReferences": {},
  "deployedLinkReferences": {}
}