{
  "_format": "hh-sol-artifact-1",
  "contractName": "Warranty",
  "sourceName": "contracts/Warranty.sol",
  "abi": [
    {
      "anonymous": false,
      "inputs": [
        {
          "indexed": true,
          "internalType": "string",
          "name": "productId",
          "type": "string"
        },
        {
          "indexed": true,
          "internalType": "address",
          "name": "oldOwner",
          "type": "address"
        },
        {
          "indexed": true,
          "internalType": "address",
          "name": "newOwner",
          "type": "address"
        },
        {
          "indexed": false,
          "internalType": "uint256",
          "name": "timestamp",
          "type": "uint256"
        }
      ],
      "name": "OwnershipTransferred",
      "type": "event"
    },
    {
      "anonymous": false,
      "inputs": [
        {
          "indexed": true,
          "internalType": "string",
          "name": "productId",
          "type": "string"
        },
        {
          "indexed": true,
          "internalType": "address",
          "name": "owner",
          "type": "address"
        },
        {
          "indexed": false,
          "internalType": "uint256",
          "name": "timestamp",
          "type": "uint256"
        }
      ],
      "name": "ProductRegistered",
      "type": "event"
    },
    {
      "inputs": [],
      "name": "getAllProductIds",
      "outputs": [
        {
          "internalType": "string[]",
          "name": "",
          "type": "string[]"
        }
      ],
      "stateMutability": "view",
      "type": "function"
    },
    {
      "inputs": [],
      "name": "getAllProducts",
      "outputs": [
        {
          "components": [
            {
              "internalType": "string",
              "name": "productId",
              "type": "string"
            },
            {
              "internalType": "string",
              "name": "productName",
              "type": "string"
            },
            {
              "internalType": "uint256",
              "name": "warrantyStart",
              "type": "uint256"
            },
            {
              "internalType": "uint256",
              "name": "warrantyEnd",
              "type": "uint256"
            },
            {
              "internalType": "address",
              "name": "owner",
              "type": "address"
            },
            {
              "internalType": "string",
              "name": "ownerName",
              "type": "string"
            },
            {
              "internalType": "string",
              "name": "ownerContact",
              "type": "string"
            },
            {
              "internalType": "string",
              "name": "serialNumber",
              "type": "string"
            },
            {
              "internalType": "string",
              "name": "specifications",
              "type": "string"
            },
            {
              "internalType": "uint256",
              "name": "createdAt",
              "type": "uint256"
            }
          ],
          "internalType": "struct Warranty.Product[]",
          "name": "",
          "type": "tuple[]"
        }
      ],
      "stateMutability": "view",
      "type": "function"
    },
    {
      "inputs": [
        {
          "internalType": "string",
          "name": "_productId",
          "type": "string"
        }
      ],
      "name": "getProduct",
      "outputs": [
        {
          "internalType": "string",
          "name": "name",
          "type": "string"
        },
        {
          "internalType": "string",
          "name": "ownerName",
          "type": "string"
        },
        {
          "internalType": "string",
          "name": "ownerContact",
          "type": "string"
        },
        {
          "internalType": "address",
          "name": "owner",
          "type": "address"
        },
        {
          "internalType": "uint256",
          "name": "start",
          "type": "uint256"
        },
        {
          "internalType": "uint256",
          "name": "end",
          "type": "uint256"
        }
      ],
      "stateMutability": "view",
      "type": "function"
    },
    {
      "inputs": [
        {
          "internalType": "string",
          "name": "_productId",
          "type": "string"
        },
        {
          "internalType": "string",
          "name": "_productName",
          "type": "string"
        },
        {
          "internalType": "uint256",
          "name": "_warrantyStart",
          "type": "uint256"
        },
        {
          "internalType": "uint256",
          "name": "_warrantyEnd",
          "type": "uint256"
        },
        {
          "internalType": "string",
          "name": "_ownerName",
          "type": "string"
        },
        {
          "internalType": "string",
          "name": "_ownerContact",
          "type": "string"
        },
        {
          "internalType": "string",
          "name": "_serialNumber",
          "type": "string"
        },
        {
          "internalType": "string",
          "name": "_specifications",
          "type": "string"
        }
      ],
      "name": "registerProduct",
      "outputs": [],
      "stateMutability": "nonpayable",
      "type": "function"
    },
    {
      "inputs": [
        {
          "internalType": "string",
          "name": "_productId",
          "type": "string"
        },
        {
          "internalType": "address",
          "name": "_newOwner",
          "type": "address"
        },
        {
          "internalType": "string",
          "name": "_newOwnerName",
          "type": "string"
        },
        {
          "internalType": "string",
          "name": "_newOwnerContact",
          "type": "string"
        }
      ],
      "name": "transferOwnership",
      "outputs": [],
      "stateMutability": "nonpayable",
      "type": "function"
    },
    {
      "inputs": [
        {
          "internalType": "string",
          "name": "_productId",
          "type": "string"
        }
      ],
      "name": "verifyOwnership",
      "outputs": [
        {
          "internalType": "address",
          "name": "owner",
          "type": "address"
        },
        {
          "internalType": "string",
          "name": "ownerName",
          "type": "string"
        },
        {
          "components": [
            {
              "internalType": "address",
              "name": "owner",
              "type": "address"
            },
            {
              "internalType": "string",
              "name": "ownerName",
              "type": "string"
            },
            {
              "internalType": "string",
              "name": "ownerContact",
              "type": "string"
            },
            {
              "internalType": "uint256",
              "name": "transferDate",
              "type": "uint256"
            }
          ],
          "internalType": "struct Warranty.OwnershipRecord[]",
          "name": "history",
          "type": "tuple[]"
        }
      ],
      "stateMutability": "view",
      "type": "function"
    },
    {
      "inputs": [
        {
          "internalType": "string",
          "name": "_productId",
          "type": "string"
        }
      ],
      "name": "verifyWarranty",
      "outputs": [
        {
          "internalType": "string",
          "name": "productName",
          "type": "string"
        },
        {
          "internalType": "uint256",
          "name": "warrantyStart",
          "type": "uint256"
        },
        {
          "internalType": "uint256",
          "name": "warrantyEnd",
          "type": "uint256"
        },
        {
          "internalType": "bool",
          "name": "isValid",
          "type": "bool"
        },
        {
          "internalType": "uint256",
          "name": "daysRemaining",
          "type": "uint256"
        },
        {
          "internalType": "address",
          "name": "owner",
          "type": "address"
        },
        {
          "internalType": "string",
          "name": "ownerName",
          "type": "string"
        },
        {
          "internalType": "string",
          "name": "ownerContact",
          "type": "string"
        }
      ],
      "stateMutability": "view",
      "type": "function"
    }
  ],
  "bytecode": "0x608060405234801561001057600080fd5b506132a5806100206000396000f3fe608060405234801561001057600080fd5b506004361061007d5760003560e01c806368111cce1161005b57806368111cce146100f0578063b19a58de14610125578063baa526a814610141578063f52c5513146101785761007d565b806302ee3a5214610082578063293f854e146100a0578063663c01af146100d2575b600080fd5b61008a610194565b6040516100979190612309565b60405180910390f35b6100ba60048036038101906100b59190612474565b61065d565b6040516100c993929190612642565b60405180910390f35b6100da610ced565b6040516100e79190612749565b60405180910390f35b61010a60048036038101906101059190612474565b610dc6565b60405161011c9695949392919061277a565b60405180910390f35b61013f600480360381019061013a919061281c565b61127c565b005b61015b60048036038101906101569190612474565b61175c565b60405161016f989796959493929190612995565b60405180910390f35b610192600480360381019061018d9190612a54565b611c54565b005b6060600060048054905067ffffffffffffffff8111156101b7576101b6612349565b5b6040519080825280602002602001820160405280156101f057816020015b6101dd611ff7565b8152602001906001900390816101d55790505b50905060005b6004805490508110156106555760006004828154811061021957610218612b0f565b5b906000526020600020016040516102309190612c41565b90815260200160405180910390206040518061014001604052908160008201805461025a90612b6d565b80601f016020809104026020016040519081016040528092919081815260200182805461028690612b6d565b80156102d35780601f106102a8576101008083540402835291602001916102d3565b820191906000526020600020905b8154815290600101906020018083116102b657829003601f168201915b505050505081526020016001820180546102ec90612b6d565b80601f016020809104026020016040519081016040528092919081815260200182805461031890612b6d565b80156103655780601f1061033a57610100808354040283529160200191610365565b820191906000526020600020905b81548152906001019060200180831161034857829003601f168201915b5050505050815260200160028201548152602001600382015481526020016004820160009054906101000a900473ffffffffffffffffffffffffffffffffffffffff1673ffffffffffffffffffffffffffffffffffffffff1673ffffffffffffffffffffffffffffffffffffffff1681526020016005820180546103e890612b6d565b80601f016020809104026020016040519081016040528092919081815260200182805461041490612b6d565b80156104615780601f1061043657610100808354040283529160200191610461565b820191906000526020600020905b81548152906001019060200180831161044457829003601f168201915b5050505050815260200160068201805461047a90612b6d565b80601f01602080910402602001604051908101604052809291908181526020018280546104a690612b6d565b80156104f35780601f106104c8576101008083540402835291602001916104f3565b820191906000526020600020905b8154815290600101906020018083116104d657829003601f168201915b5050505050815260200160078201805461050c90612b6d565b80601f016020809104026020016040519081016040528092919081815260200182805461053890612b6d565b80156105855780601f1061055a57610100808354040283529160200191610585565b820191906000526020600020905b81548152906001019060200180831161056857829003601f168201915b5050505050815260200160088201805461059e90612b6d565b80601f01602080910402602001604051908101604052809291908181526020018280546105ca90612b6d565b80156106175780601f106105ec57610100808354040283529160200191610617565b820191906000526020600020905b8154815290600101906020018083116105fa57829003601f168201915b5050505050815260200160098201548152505082828151811061063d5761063c612b0f565b5b602002602001018190525080806001019150506101f6565b508091505090565b60006060806002846040516106729190612c89565b908152602001604051809103902060009054906101000a900460ff166106cd576040517f08c379a00000000000000000000000000000000000000000000000000000000081526004016106c490612cec565b60405180910390fd5b600080856040516106de9190612c89565b90815260200160405180910390206040518061014001604052908160008201805461070890612b6d565b80601f016020809104026020016040519081016040528092919081815260200182805461073490612b6d565b80156107815780601f1061075657610100808354040283529160200191610781565b820191906000526020600020905b81548152906001019060200180831161076457829003601f168201915b5050505050815260200160018201805461079a90612b6d565b80601f01602080910402602001604051908101604052809291908181526020018280546107c690612b6d565b80156108135780601f106107e857610100808354040283529160200191610813565b820191906000526020600020905b8154815290600101906020018083116107f657829003601f168201915b5050505050815260200160028201548152602001600382015481526020016004820160009054906101000a900473ffffffffffffffffffffffffffffffffffffffff1673ffffffffffffffffffffffffffffffffffffffff1673ffffffffffffffffffffffffffffffffffffffff16815260200160058201805461089690612b6d565b80601f01602080910402602001604051908101604052809291908181526020018280546108c290612b6d565b801561090f5780601f106108e45761010080835404028352916020019161090f565b820191906000526020600020905b8154815290600101906020018083116108f257829003601f168201915b5050505050815260200160068201805461092890612b6d565b80601f016020809104026020016040519081016040528092919081815260200182805461095490612b6d565b80156109a15780601f10610976576101008083540402835291602001916109a1565b820191906000526020600020905b81548152906001019060200180831161098457829003601f168201915b505050505081526020016007820180546109ba90612b6d565b80601f01602080910402602001604051908101604052809291908181526020018280546109e690612b6d565b8015610a335780601f10610a0857610100808354040283529160200191610a33565b820191906000526020600020905b815481529060010190602001808311610a1657829003601f168201915b50505050508152602001600882018054610a4c90612b6d565b80601f0160208091040260200160405190810160405280929190818152602001828054610a7890612b6d565b8015610ac55780601f10610a9a57610100808354040283529160200191610ac5565b820191906000526020600020905b815481529060010190602001808311610aa857829003601f168201915b50505050508152602001600982015481525050905080608001518160a00151600187604051610af49190612c89565b908152602001604051809103902080805480602002602001604051908101604052809291908181526020016000905b82821015610cd957838290600052602060002090600402016040518060800160405290816000820160009054906101000a900473ffffffffffffffffffffffffffffffffffffffff1673ffffffffffffffffffffffffffffffffffffffff1673ffffffffffffffffffffffffffffffffffffffff168152602001600182018054610bac90612b6d565b80601f0160208091040260200160405190810160405280929190818152602001828054610bd890612b6d565b8015610c255780601f10610bfa57610100808354040283529160200191610c25565b820191906000526020600020905b815481529060010190602001808311610c0857829003601f168201915b50505050508152602001600282018054610c3e90612b6d565b80601f0160208091040260200160405190810160405280929190818152602001828054610c6a90612b6d565b8015610cb75780601f10610c8c57610100808354040283529160200191610cb7565b820191906000526020600020905b815481529060010190602001808311610c9a57829003601f168201915b5050505050815260200160038201548152505081526020019060010190610b23565b505050509050935093509350509193909250565b60606004805480602002602001604051908101604052809291908181526020016000905b82821015610dbd578382906000526020600020018054610d3090612b6d565b80601f0160208091040260200160405190810160405280929190818152602001828054610d5c90612b6d565b8015610da95780601f10610d7e57610100808354040283529160200191610da9565b820191906000526020600020905b815481529060010190602001808311610d8c57829003601f168201915b505050505081526020019060010190610d11565b50505050905090565b60608060606000806000600287604051610de09190612c89565b908152602001604051809103902060009054906101000a900460ff16610e3b576040517f08c379a0000000000000000000000000000000000000000000000000000000008152600401610e3290612cec565b60405180910390fd5b60008088604051610e4c9190612c89565b908152602001604051809103902060405180610140016040529081600082018054610e7690612b6d565b80601f0160208091040260200160405190810160405280929190818152602001828054610ea290612b6d565b8015610eef5780601f10610ec457610100808354040283529160200191610eef565b820191906000526020600020905b815481529060010190602001808311610ed257829003601f168201915b50505050508152602001600182018054610f0890612b6d565b80601f0160208091040260200160405190810160405280929190818152602001828054610f3490612b6d565b8015610f815780601f10610f5657610100808354040283529160200191610f81565b820191906000526020600020905b815481529060010190602001808311610f6457829003601f168201915b5050505050815260200160028201548152602001600382015481526020016004820160009054906101000a900473ffffffffffffffffffffffffffffffffffffffff1673ffffffffffffffffffffffffffffffffffffffff1673ffffffffffffffffffffffffffffffffffffffff16815260200160058201805461100490612b6d565b80601f016020809104026020016040519081016040528092919081815260200182805461103090612b6d565b801561107d5780601f106110525761010080835404028352916020019161107d565b820191906000526020600020905b81548152906001019060200180831161106057829003601f168201915b5050505050815260200160068201805461109690612b6d565b80601f01602080910402602001604051908101604052809291908181526020018280546110c290612b6d565b801561110f5780601f106110e45761010080835404028352916020019161110f565b820191906000526020600020905b8154815290600101906020018083116110f257829003601f168201915b5050505050815260200160078201805461112890612b6d565b80601f016020809104026020016040519081016040528092919081815260200182805461115490612b6d565b80156111a15780601f10611176576101008083540402835291602001916111a1565b820191906000526020600020905b81548152906001019060200180831161118457829003601f168201915b505050505081526020016008820180546111ba90612b6d565b80601f01602080910402602001604051908101604052809291908181526020018280546111e690612b6d565b80156112335780601f1061120857610100808354040283529160200191611233565b820191906000526020600020905b81548152906001019060200180831161121657829003601f168201915b50505050508152602001600982015481525050905080602001518160a001518260c001518360800151846040015185606001519650965096509650965096505091939550919395565b600073ffffffffffffffffffffffffffffffffffffffff166000896040516112a49190612c89565b908152602001604051809103902060040160009054906101000a900473ffffffffffffffffffffffffffffffffffffffff1673ffffffffffffffffffffffffffffffffffffffff161461132c576040517f08c379a000000000000000000000000000000000000000000000000000000000815260040161132390612d58565b60405180910390fd5b60038260405161133c9190612c89565b908152602001604051809103902060009054906101000a900460ff1615611398576040517f08c379a000000000000000000000000000000000000000000000000000000000815260040161138f90612dc4565b60405180910390fd5b8585116113da576040517f08c379a00000000000000000000000000000000000000000000000000000000081526004016113d190612e30565b60405180910390fd5b60006040518061014001604052808a81526020018981526020018881526020018781526020013373ffffffffffffffffffffffffffffffffffffffff1681526020018681526020018581526020018481526020018381526020014281525090508060008a60405161144b9190612c89565b9081526020016040518091039020600082015181600001908161146e9190612fe7565b5060208201518160010190816114849190612fe7565b50604082015181600201556060820151816003015560808201518160040160006101000a81548173ffffffffffffffffffffffffffffffffffffffff021916908373ffffffffffffffffffffffffffffffffffffffff16021790555060a08201518160050190816114f59190612fe7565b5060c082015181600601908161150b9190612fe7565b5060e08201518160070190816115219190612fe7565b506101008201518160080190816115389190612fe7565b506101208201518160090155905050600160028a6040516115599190612c89565b908152602001604051809103902060006101000a81548160ff02191690831515021790555060016003846040516115909190612c89565b908152602001604051809103902060006101000a81548160ff0219169083151502179055506004899080600181540180825580915050600190039060005260206000200160009091909190915090816115e99190612fe7565b50600060405180608001604052803373ffffffffffffffffffffffffffffffffffffffff16815260200187815260200186815260200142815250905060018a6040516116359190612c89565b908152602001604051809103902081908060018154018082558091505060019003906000526020600020906004020160009091909190915060008201518160000160006101000a81548173ffffffffffffffffffffffffffffffffffffffff021916908373ffffffffffffffffffffffffffffffffffffffff16021790555060208201518160010190816116c99190612fe7565b5060408201518160020190816116df9190612fe7565b506060820151816003015550503373ffffffffffffffffffffffffffffffffffffffff168a6040516117119190612c89565b60405180910390207f69a364a36de428def83b9136062f8e6214b44410a34f51f779f06dc745de8fca4260405161174891906130b9565b60405180910390a350505050505050505050565b606060008060008060006060806002896040516117799190612c89565b908152602001604051809103902060009054906101000a900460ff166117d4576040517f08c379a00000000000000000000000000000000000000000000000000000000081526004016117cb90612cec565b60405180910390fd5b6000808a6040516117e59190612c89565b90815260200160405180910390206040518061014001604052908160008201805461180f90612b6d565b80601f016020809104026020016040519081016040528092919081815260200182805461183b90612b6d565b80156118885780601f1061185d57610100808354040283529160200191611888565b820191906000526020600020905b81548152906001019060200180831161186b57829003601f168201915b505050505081526020016001820180546118a190612b6d565b80601f01602080910402602001604051908101604052809291908181526020018280546118cd90612b6d565b801561191a5780601f106118ef5761010080835404028352916020019161191a565b820191906000526020600020905b8154815290600101906020018083116118fd57829003601f168201915b5050505050815260200160028201548152602001600382015481526020016004820160009054906101000a900473ffffffffffffffffffffffffffffffffffffffff1673ffffffffffffffffffffffffffffffffffffffff1673ffffffffffffffffffffffffffffffffffffffff16815260200160058201805461199d90612b6d565b80601f01602080910402602001604051908101604052809291908181526020018280546119c990612b6d565b8015611a165780601f106119eb57610100808354040283529160200191611a16565b820191906000526020600020905b8154815290600101906020018083116119f957829003601f168201915b50505050508152602001600682018054611a2f90612b6d565b80601f0160208091040260200160405190810160405280929190818152602001828054611a5b90612b6d565b8015611aa85780601f10611a7d57610100808354040283529160200191611aa8565b820191906000526020600020905b815481529060010190602001808311611a8b57829003601f168201915b50505050508152602001600782018054611ac190612b6d565b80601f0160208091040260200160405190810160405280929190818152602001828054611aed90612b6d565b8015611b3a5780601f10611b0f57610100808354040283529160200191611b3a565b820191906000526020600020905b815481529060010190602001808311611b1d57829003601f168201915b50505050508152602001600882018054611b5390612b6d565b80601f0160208091040260200160405190810160405280929190818152602001828054611b7f90612b6d565b8015611bcc5780601f10611ba157610100808354040283529160200191611bcc565b820191906000526020600020905b815481529060010190602001808311611baf57829003601f168201915b50505050508152602001600982015481525050905060008160600151421115905060008115611c165762015180428460600151611c099190613103565b611c139190613166565b90505b826020015183604001518460600151848487608001518860a001518960c001519a509a509a509a509a509a509a509a50505050919395975091939597565b600284604051611c649190612c89565b908152602001604051809103902060009054906101000a900460ff16611cbf576040517f08c379a0000000000000000000000000000000000000000000000000000000008152600401611cb690612cec565b60405180910390fd5b60008085604051611cd09190612c89565b908152602001604051809103902090508060040160009054906101000a900473ffffffffffffffffffffffffffffffffffffffff1673ffffffffffffffffffffffffffffffffffffffff163373ffffffffffffffffffffffffffffffffffffffff1614611d72576040517f08c379a0000000000000000000000000000000000000000000000000000000008152600401611d69906131e3565b60405180910390fd5b600073ffffffffffffffffffffffffffffffffffffffff168473ffffffffffffffffffffffffffffffffffffffff1603611de1576040517f08c379a0000000000000000000000000000000000000000000000000000000008152600401611dd89061324f565b60405180910390fd5b60008160040160009054906101000a900473ffffffffffffffffffffffffffffffffffffffff169050848260040160006101000a81548173ffffffffffffffffffffffffffffffffffffffff021916908373ffffffffffffffffffffffffffffffffffffffff16021790555083826005019081611e5e9190612fe7565b5082826006019081611e709190612fe7565b50600060405180608001604052808773ffffffffffffffffffffffffffffffffffffffff168152602001868152602001858152602001428152509050600187604051611ebc9190612c89565b908152602001604051809103902081908060018154018082558091505060019003906000526020600020906004020160009091909190915060008201518160000160006101000a81548173ffffffffffffffffffffffffffffffffffffffff021916908373ffffffffffffffffffffffffffffffffffffffff1602179055506020820151816001019081611f509190612fe7565b506040820151816002019081611f669190612fe7565b506060820151816003015550508573ffffffffffffffffffffffffffffffffffffffff168273ffffffffffffffffffffffffffffffffffffffff1688604051611faf9190612c89565b60405180910390207fe9bf8dbaa7eb0b6910401512e60afcae7734db09df0b7291b4a16e630d796e5642604051611fe691906130b9565b60405180910390a450505050505050565b60405180610140016040528060608152602001606081526020016000815260200160008152602001600073ffffffffffffffffffffffffffffffffffffffff16815260200160608152602001606081526020016060815260200160608152602001600081525090565b600081519050919050565b600082825260208201905092915050565b6000819050602082019050919050565b600081519050919050565b600082825260208201905092915050565b60005b838110156120c65780820151818401526020810190506120ab565b60008484015250505050565b6000601f19601f8301169050919050565b60006120ee8261208c565b6120f88185612097565b93506121088185602086016120a8565b612111816120d2565b840191505092915050565b6000819050919050565b61212f8161211c565b82525050565b600073ffffffffffffffffffffffffffffffffffffffff82169050919050565b600061216082612135565b9050919050565b61217081612155565b82525050565b600061014083016000830151848203600086015261219482826120e3565b915050602083015184820360208601526121ae82826120e3565b91505060408301516121c36040860182612126565b5060608301516121d66060860182612126565b5060808301516121e96080860182612167565b5060a083015184820360a086015261220182826120e3565b91505060c083015184820360c086015261221b82826120e3565b91505060e083015184820360e086015261223582826120e3565b91505061010083015184820361010086015261225182826120e3565b915050610120830151612268610120860182612126565b508091505092915050565b600061227f8383612176565b905092915050565b6000602082019050919050565b600061229f82612060565b6122a9818561206b565b9350836020820285016122bb8561207c565b8060005b858110156122f757848403895281516122d88582612273565b94506122e383612287565b925060208a019950506001810190506122bf565b50829750879550505050505092915050565b600060208201905081810360008301526123238184612294565b905092915050565b6000604051905090565b600080fd5b600080fd5b600080fd5b600080fd5b7f4e487b7100000000000000000000000000000000000000000000000000000000600052604160045260246000fd5b612381826120d2565b810181811067ffffffffffffffff821117156123a05761239f612349565b5b80604052505050565b60006123b361232b565b90506123bf8282612378565b919050565b600067ffffffffffffffff8211156123df576123de612349565b5b6123e8826120d2565b9050602081019050919050565b82818337600083830152505050565b6000612417612412846123c4565b6123a9565b90508281526020810184848401111561243357612432612344565b5b61243e8482856123f5565b509392505050565b600082601f83011261245b5761245a61233f565b5b813561246b848260208601612404565b91505092915050565b60006020828403121561248a57612489612335565b5b600082013567ffffffffffffffff8111156124a8576124a761233a565b5b6124b484828501612446565b91505092915050565b6124c681612155565b82525050565b600082825260208201905092915050565b60006124e88261208c565b6124f281856124cc565b93506125028185602086016120a8565b61250b816120d2565b840191505092915050565b600081519050919050565b600082825260208201905092915050565b6000819050602082019050919050565b600060808301600083015161255a6000860182612167565b506020830151848203602086015261257282826120e3565b9150506040830151848203604086015261258c82826120e3565b91505060608301516125a16060860182612126565b508091505092915050565b60006125b88383612542565b905092915050565b6000602082019050919050565b60006125d882612516565b6125e28185612521565b9350836020820285016125f485612532565b8060005b85811015612630578484038952815161261185826125ac565b945061261c836125c0565b925060208a019950506001810190506125f8565b50829750879550505050505092915050565b600060608201905061265760008301866124bd565b818103602083015261266981856124dd565b9050818103604083015261267d81846125cd565b9050949350505050565b600081519050919050565b600082825260208201905092915050565b6000819050602082019050919050565b60006126bf83836120e3565b905092915050565b6000602082019050919050565b60006126df82612687565b6126e98185612692565b9350836020820285016126fb856126a3565b8060005b85811015612737578484038952815161271885826126b3565b9450612723836126c7565b925060208a019950506001810190506126ff565b50829750879550505050505092915050565b6000602082019050818103600083015261276381846126d4565b905092915050565b6127748161211c565b82525050565b600060c082019050818103600083015261279481896124dd565b905081810360208301526127a881886124dd565b905081810360408301526127bc81876124dd565b90506127cb60608301866124bd565b6127d8608083018561276b565b6127e560a083018461276b565b979650505050505050565b6127f98161211c565b811461280457600080fd5b50565b600081359050612816816127f0565b92915050565b600080600080600080600080610100898b03121561283d5761283c612335565b5b600089013567ffffffffffffffff81111561285b5761285a61233a565b5b6128678b828c01612446565b985050602089013567ffffffffffffffff8111156128885761288761233a565b5b6128948b828c01612446565b97505060406128a58b828c01612807565b96505060606128b68b828c01612807565b955050608089013567ffffffffffffffff8111156128d7576128d661233a565b5b6128e38b828c01612446565b94505060a089013567ffffffffffffffff8111156129045761290361233a565b5b6129108b828c01612446565b93505060c089013567ffffffffffffffff8111156129315761293061233a565b5b61293d8b828c01612446565b92505060e089013567ffffffffffffffff81111561295e5761295d61233a565b5b61296a8b828c01612446565b9150509295985092959890939650565b60008115159050919050565b61298f8161297a565b82525050565b60006101008201905081810360008301526129b0818b6124dd565b90506129bf602083018a61276b565b6129cc604083018961276b565b6129d96060830188612986565b6129e6608083018761276b565b6129f360a08301866124bd565b81810360c0830152612a0581856124dd565b905081810360e0830152612a1981846124dd565b90509998505050505050505050565b612a3181612155565b8114612a3c57600080fd5b50565b600081359050612a4e81612a28565b92915050565b60008060008060808587031215612a6e57612a6d612335565b5b600085013567ffffffffffffffff811115612a8c57612a8b61233a565b5b612a9887828801612446565b9450506020612aa987828801612a3f565b935050604085013567ffffffffffffffff811115612aca57612ac961233a565b5b612ad687828801612446565b925050606085013567ffffffffffffffff811115612af757612af661233a565b5b612b0387828801612446565b91505092959194509250565b7f4e487b7100000000000000000000000000000000000000000000000000000000600052603260045260246000fd5b7f4e487b7100000000000000000000000000000000000000000000000000000000600052602260045260246000fd5b60006002820490506001821680612b8557607f821691505b602082108103612b9857612b97612b3e565b5b50919050565b600081905092915050565b60008190508160005260206000209050919050565b60008154612bcb81612b6d565b612bd58186612b9e565b94506001821660008114612bf05760018114612c0557612c38565b60ff1983168652811515820286019350612c38565b612c0e85612ba9565b60005b83811015612c3057815481890152600182019150602081019050612c11565b838801955050505b50505092915050565b6000612c4d8284612bbe565b915081905092915050565b6000612c638261208c565b612c6d8185612b9e565b9350612c7d8185602086016120a8565b80840191505092915050565b6000612c958284612c58565b915081905092915050565b7f50726f64756374206e6f7420666f756e64000000000000000000000000000000600082015250565b6000612cd66011836124cc565b9150612ce182612ca0565b602082019050919050565b60006020820190508181036000830152612d0581612cc9565b9050919050565b7f50726f6475637420494420616c72656164792072656769737465726564000000600082015250565b6000612d42601d836124cc565b9150612d4d82612d0c565b602082019050919050565b60006020820190508181036000830152612d7181612d35565b9050919050565b7f53657269616c204e756d62657220616c72656164792072656769737465726564600082015250565b6000612dae6020836124cc565b9150612db982612d78565b602082019050919050565b60006020820190508181036000830152612ddd81612da1565b9050919050565b7f496e76616c69642077617272616e747920646174657300000000000000000000600082015250565b6000612e1a6016836124cc565b9150612e2582612de4565b602082019050919050565b60006020820190508181036000830152612e4981612e0d565b9050919050565b60006020601f8301049050919050565b600082821b905092915050565b600060088302612e9d7fffffffffffffffffffffffffffffffffffffffffffffffffffffffffffffffff82612e60565b612ea78683612e60565b95508019841693508086168417925050509392505050565b6000819050919050565b6000612ee4612edf612eda8461211c565b612ebf565b61211c565b9050919050565b6000819050919050565b612efe83612ec9565b612f12612f0a82612eeb565b848454612e6d565b825550505050565b600090565b612f27612f1a565b612f32818484612ef5565b505050565b5b81811015612f5657612f4b600082612f1f565b600181019050612f38565b5050565b601f821115612f9b57612f6c81612ba9565b612f7584612e50565b81016020851015612f84578190505b612f98612f9085612e50565b830182612f37565b50505b505050565b600082821c905092915050565b6000612fbe60001984600802612fa0565b1980831691505092915050565b6000612fd78383612fad565b9150826002028217905092915050565b612ff08261208c565b67ffffffffffffffff81111561300957613008612349565b5b6130138254612b6d565b61301e828285612f5a565b600060209050601f831160018114613051576000841561303f578287015190505b6130498582612fcb565b8655506130b1565b601f19841661305f86612ba9565b60005b8281101561308757848901518255600182019150602085019450602081019050613062565b868310156130a457848901516130a0601f891682612fad565b8355505b6001600288020188555050505b505050505050565b60006020820190506130ce600083018461276b565b92915050565b7f4e487b7100000000000000000000000000000000000000000000000000000000600052601160045260246000fd5b600061310e8261211c565b91506131198361211c565b9250828203905081811115613131576131306130d4565b5b92915050565b7f4e487b7100000000000000000000000000000000000000000000000000000000600052601260045260246000fd5b60006131718261211c565b915061317c8361211c565b92508261318c5761318b613137565b5b828204905092915050565b7f4e6f7420746865206f776e657200000000000000000000000000000000000000600082015250565b60006131cd600d836124cc565b91506131d882613197565b602082019050919050565b600060208201905081810360008301526131fc816131c0565b9050919050565b7f496e76616c6964206e6577206f776e6572206164647265737300000000000000600082015250565b60006132396019836124cc565b915061324482613203565b602082019050919050565b600060208201905081810360008301526132688161322c565b905091905056fea2646970667358221220b74f97bee00b6d8b6793a13a09713b9705d89dbe633e408bcfe4276c94379fc264736f6c63430008180033",
  "linkReferences": {},
  "deployedLinkReferences": {}
}